:020000040800F2
:10000000E0060020D1030008D7010008D90100084C
:10001000DD010008E1010008E50100080000000022
:10002000000000000000000000000000E9010008DE
:10003000EB01000800000000ED010008EF010008DE
:10004000EB030008EB030008EB030008EB030008D8
:10005000EB030008EB030008EB030008EB030008C8
:10006000EB030008EB030008EB030008EB030008B8
:10007000EB030008EB030008EB030008EB030008A8
:10008000EB030008EB030008EB030008EB03000898
:10009000EB030008EB030008EB030008EB03000888
:1000A000EB030008EB030008EB030008EB03000878
:1000B000EB030008EB030008EB030008EB03000868
:1000C000EB030008EB030008EB030008EB03000858
:1000D000EB030008A9140008EB030008EB03000879
:1000E000EB030008EB030008EB030008EB03000838
:1000F000EB030008EB030008EB030008EB03000828
:10010000EB030008EB030008EB030008EB03000817
:10011000EB030008EB030008EB030008EB03000807
:10012000EB030008EB030008EB030008EB030008F7
:1001300000F002F800F03FF80AA090E8000C8244BA
:100140008344AAF10107DA4501D100F034F8AFF297
:10015000090EBAE80F0013F0010F18BFFB1A43F0A5
:1001600001031847EC2200000C230000103A24BFC2
:1001700078C878C1FAD8520724BF30C830C144BF0C
:1001800004680C607047000000230024002500264E
:10019000103A28BF78C1FBD8520728BF30C148BFEA
:1001A0000B607047782901F08F86002070471FB5DB
:1001B0001FBD10B510BD01F0CAFF1146FFF7F7FFD4
:1001C00001F0D4F901F0E8FF03B4FFF7F2FF03BC3C
:1001D00001F006F930BF704700BFFEE700BFFEE741
:1001E00000BFFEE700BFFEE77047704770477047EB
:1001F0000CB50020019000906C48006840F48030FD
:100200006A49086000BF6948006800F40030009047
:100210000198401C0190009818B90198B0F5A06FA2
:10022000F1D16248006800F4003010B10120009064
:1002300001E0002000900098012843D15C4800684C
:1002400040F010005A4908600846006820F003009A
:1002500008600846006840F00200086053484068A3
:10026000524948600846406848600846406840F483
:10027000806048600846406820F47C10486008466A
:10028000406840F4E81048600846006840F080701C
:10029000086000BF4548006800F000700028F9D0F1
:1002A0004248406820F003004049486008464068E2
:1002B00040F00200486000BF3C48406800F00C007D
:1002C0000828F9D10CBD10B5FFF792FF10BD10B58D
:1002D0003648006840F0010034490860084640682C
:1002E00034490840314948600846006832490840AE
:1002F0002E4908600846006820F4802008600846FF
:10030000406820F4FE0048604FF41F008860FFF74B
:10031000DAFF4FF000602949086010BD10B50021D8
:1003200000200022214B5B6803F00C0121B104295D
:1003300006D0082928D107E0214B224C236027E072
:100340001F4B204C236023E0184B5B6803F47010B4
:10035000164B5B6803F48032022303EB904022B912
:10036000194B4343174C23600DE0104B5B6803F4BB
:10037000003323B1144B4343124C236003E0104B72
:100380004343104C236003E00D4B0E4C236000BF31
:1003900000BF064B5B68C3F303130C4CE15C094BD5
:1003A0001B68CB40074C236010BD000000100240CA
:1003B000002002400000FFF8FFFFF6FE08ED00E01D
:1003C00000127A000000002000093D000400002017
:1003D0000948804709480047FEE7FEE7FEE7FEE7D9
:1003E000FEE7FEE7FEE7FEE7FEE7FEE70448054915
:1003F000054A064B70470000CF0200083101000893
:10040000E0000020E0060020E0020020E0020020E2
:1004100031490143314A1160704770B50021002312
:100420000F22C47804B32D4C246804F4E064C4F5AE
:10043000E064210AC1F10403CA40447804FA03F1DC
:100440008478144021430901254C0678A15504788D
:1004500004F01F050124AC4005786D11AD0005F1D5
:10046000E025C5F8004109E0047804F01F050124E7
:10047000AC401C4D0678761145F8264070BD1A4AEE
:100480000A400243154B1B1F1A60704739B1134ACB
:10049000121D12680243114B1B1D1A6006E00F4A21
:1004A000121D126882430D4B1B1D1A6070470428F1
:1004B00008D14FF0E021096941F004014FF0E0223A
:1004C000116107E04FF0E021096921F004014FF0CC
:1004D000E0221161704700000000FA050CED00E019
:1004E00000E400E080E100E080FFFF1F10B504465B
:1004F000CC48844208D10121042000F02DFB0021CA
:10050000042000F029FB46E0C748844208D10121BD
:10051000082000F021FB0021082000F01DFB3AE03C
:10052000C248844208D10121102000F015FB0021AF
:10053000102000F011FB2EE0BD48844208D10121BB
:10054000202000F009FB0021202000F005FB22E024
:10055000B848844208D10121402000F0FDFA002172
:10056000402000F0F9FA16E0B348844208D1012196
:10057000802000F0F1FA0021802000F0EDFA0AE07E
:10058000AE48844207D10121801500F0E5FA002130
:10059000A01500F0E1FA10BD10B50121084600F0E9
:1005A000DBFA0021012000F0D7FA10BD2DE9F0415F
:1005B000024600250026002000230024002791F891
:1005C00003C00CF00F0591F803C00CF0100CBCF147
:1005D000000F03D091F802C04CEA050591F800C065
:1005E000BCF1000F31D0146800202BE04FF0010C5B
:1005F0000CFA00F3B1F800C00CEA03069E4220D1C9
:1006000083004FF00F0C0CFA03F7BC4305FA03FC10
:100610004CEA040491F803C0BCF1280F06D14FF056
:10062000010C0CFA00FCC2F814C00AE091F803C0F7
:10063000BCF1480F05D14FF0010C0CFA00FCC2F8D8
:1006400010C0401C0828D1D31460B1F800C0BCF120
:10065000FF0F34DD546800202EE000F1080C4FF04D
:10066000010808FA0CF3B1F800C00CEA03069E4238
:1006700021D183004FF00F0C0CFA03F7BC4305FAAD
:1006800003FC4CEA040491F803C0BCF1280F05D127
:1006900000F1080C08FA0CF8C2F8148091F803C0B5
:1006A000BCF1480F07D100F1080C4FF0010808FA1F
:1006B0000CF8C2F81080401C0828CED35460BDE866
:1006C000F0814FF6FF710180022181700421C17019
:1006D00070470246002093680B400BB1012000E0F8
:1006E000002070470146886880B2704702460020AB
:1006F000D3680B400BB1012000E000207047014699
:10070000C86880B2704701617047416170470AB1A3
:10071000016100E041617047C16070474FF4803271
:100720000A438261816182618269826970470246FF
:100730000020434B18684FF68073184040EA0210BF
:1007400008433F4B186070473E49C8617047F0B599
:100750000A46002300240021002500F00046B6F1DF
:10076000004F02D1364EF16901E0354E7168C0F399
:10077000034583B200F44016B6F5401F08D121F0BE
:1007800070612F4E766826F070662D4F7E6012E005
:1007900000F48016B6F5801F06D1032606FA05F48C
:1007A000A14341F0706106E0460D360103FA06F6FA
:1007B000B14341F0706122B1460D360103FA06F6ED
:1007C000314300F00046B6F1004F02D11C4EF161FA
:1007D00001E01B4E7160F0BD30B500228B071C0F8D
:1007E0000F2303FA04F2164B08338C1053F824300D
:1007F0009343134C08348D1044F8253023468C1055
:1008000053F824308C07240F00FA04F423430C4CD3
:1008100008348D1044F8253030BD0A49DC310860B9
:100820007047000000080140000C0140001001402A
:100830000014014000180140001C0140002001404C
:100840000000014000002042DF48006840F0010045
:10085000DD49086008464068DC490840DA494860DC
:1008600008460068DA490840D74908600846006829
:1008700020F4802008600846406820F4FE004860AC
:100880004FF41F0088607047CF49096821F4803118
:10089000CD4A11601146096821F480211160B0F53C
:1008A000803F03D0B0F5802F0ED106E0C64909681D
:1008B00041F48031C44A116007E0C349096841F43A
:1008C000A021C14A116000E000BF00BF704710B511
:1008D00001460022002300204A11012A02D1BA4C0D
:1008E000236806E0022A02D1B74C236A01E0B64C25
:1008F000636A01F01F02012494401C400CB10120E6
:1009000000E0002010BD38B5002000900024002534
:1009100000BF3120FFF7DBFF05460098401C009028
:100920000098B0F5A06F01D0002DF2D03120FFF774
:10093000CEFF08B1012400E00024204638BD014666
:100940000020A14A106820F0F80040EAC1001060C1
:100950007047A04908607047024600209A4B5868CB
:1009600020F47C1042EA01031843974B586070470B
:1009700098490866704701460020934A506820F065
:1009800003000843506070478F48406800F00C0037
:100990007047014600208C4A506820F0F000084360
:1009A0005060704701460020874A506820F4E0609C
:1009B00008435060704701460020834A506820F485
:1009C000605040EAC1005060704729B17E4A527AB7
:1009D00002437D4B5A7204E07B4A527A82437A4B3F
:1009E0005A7270477B49D831086070470146002031
:1009F000754A506820F44040084350607047002119
:100A0000714A20321170704A82F82010012802D0F9
:100A100004280AD104E001216B4A2032117005E05C
:100A20000521694A2032117000E000BF00BF704705
:100A30006949086070476449096A0143624A116262
:100A40007047654944390860704730B5002100227D
:100A5000002400235C4D6D6805F00C0121B10429D0
:100A600005D0082923D105E05C4D056022E05B4DEF
:100A700005601FE0544D6D6805F47012524D6D68AD
:100A800005F48034022505EB92421CB9544D5543C0
:100A900005600BE04C4D6D6805F400351DB1504DFF
:100AA0005543056002E04D4D5543056002E04B4D56
:100AB000056000BF00BF444D6D6805F0F0010909F5
:100AC000484D6B5C0568DD4045603F4D6D6805F441
:100AD000E061090A434D6B5C4568DD4085603A4D35
:100AE0006D6805F46051C90A3E4D6B5C4568DD4098
:100AF000C560354D6D6805F44041890B3A4D6B5C1E
:100B0000C568B5FBF3F5056130BD29B12E4A5269C0
:100B100002432D4B5A6104E02B4A526982432A4B0F
:100B20005A61704729B1284A92690243264B9A615B
:100B300004E0254A92698243234B9A61704729B1A8
:100B4000214AD2690243204BDA6104E01E4AD2698D
:100B500082431D4BDA61704729B11B4AD2680243B8
:100B6000194BDA6004E0184AD2688243164BDA6007
:100B7000704729B1144A12690243134B1A6104E009
:100B8000114A12698243104B1A6170471249403969
:100B9000086070470F49C86470470B49C8717047B7
:100BA0000948406A40F08070074948627047014632
:100BB0000020054A92680A400AB1012000E00020A6
:100BC0007047014988727047001002400000FFF82A
:100BD000FFFFF6FE000042428004424200127A000B
:100BE00000093D00140000202400002010B5044638
:100BF000FB48844209D101218803FFF7ADFF0021A2
:100C00004FF48040FFF7A8FF32E0F648844209D154
:100C100001214804FFF7ADFF00214FF40030FFF73A
:100C2000A8FF25E0F048844209D101218804FFF79C
:100C3000A0FF00214FF48020FFF79BFF18E0EB4856
:100C4000844209D10121C804FFF793FF00214FF42A
:100C50000020FFF78EFF0BE0E548844208D1012118
:100C60000805FFF786FF00214FF48010FFF781FF92
:100C700010BD2DE9F04786B005460E460024A24679
:100C800000BFA1460027B08900B100BF2F462C8AC3
:100C90004CF6FF700440F08804432C82AC894EF679
:100CA000F3100440B0883189084371890843044334
:100CB000AC81AC8A4FF6FF400440B0890443AC825B
:100CC00001A8FFF7C2FEC648874202D1DDF810A096
:100CD00001E0DDF80CA0A88900F4004040B10AEB67
:100CE000CA0000EB0A1031684900B0FBF1F807E0D8
:100CF0000AEBCA0000EB0A1031688900B0FBF1F87A
:100D00006420B8FBF0F004012009642101FB108984
:100D1000A88900F4004040B1322000EBC900B0FBCC
:100D2000F1F000F00700044308E0322000EB091066
:100D30006421B0FBF1F000F00F0004432C8106B0F9
:100D4000BDE8F0874FF41651016000218180C18019
:100D500001810C21418100218181704710B502463B
:100D60000020108A4FF2FF0318400B884C88234361
:100D70008C882343CC8823431843108210BD002164
:100D8000018041808180C180704721B1828942F415
:100D90000052828104E082894DF6FF731A408281FD
:100DA0007047F0B50346002400260025002040F6D9
:100DB0006A17B94200D100BF1846C1F3421401F0CE
:100DC0001F06012707FA06F5012C01D10C3004E0BB
:100DD000022C01D1103000E014301AB107682F4303
:100DE000076002E00768AF430760F0BD1AB1838A6D
:100DF0000B43838202E0838A8B4383827047028A9B
:100E00004FF6F0731A400282028A0A430282704748
:100E100082894FF2FF731A40828182890A4382815C
:100E2000704721B1828942F00202828104E0828906
:100E30004FF6FD731A4082817047028A4FF6DF73C6
:100E40001A400282028A0A430282704721B1028A52
:100E500042F48042028204E0028A4BF6FF731A4099
:100E600002827047C1F30802828070470146888879
:100E7000C0F308007047818941F00101818170470A
:100E8000028BD2B20283028B42EA012202837047B4
:100E9000028B02F47F420283028B0A430283704773
:100EA00021B1828A42F02002828204E0828A4FF6D7
:100EB000DF731A408282704721B1828A42F01002A9
:100EC000828204E0828A4FF6EF731A408282704772
:100ED00021B1828A42F00802828204E0828A4FF6BF
:100EE000F7731A408282704721B1828942F400422E
:100EF000828103E08289C2F30E028281704721B1B0
:100F0000828A42F40062828204E0828A4FF2FF7396
:100F10001A4082827047828A4FF6FB731A4082829F
:100F2000828A0A438282704721B1828A42F0020299
:100F3000828204E0828A4FF6FD731A4082827047F3
:100F400002460020B1F5007F00D100BF13880B409E
:100F50000BB1012000E00020704701F40072B2F5EF
:100F6000007F00D100BFCA430280704770B50246BF
:100F7000002400230025002040F66A16B14200D16B
:100F800000BFC1F3421501F01F03012606FA03F367
:100F9000012D02D19689334006E0022D02D1168A36
:100FA000334001E0968A33400C12012606FA04F41D
:100FB0001688344013B10CB1012000E0002070BD50
:100FC00010B50022002340F66A14A14200D100BFF0
:100FD0000A1201249440A3B2DC43048010BD000037
:100FE000003801400044004000480040004C0040F0
:100FF000005000404FF0E021096921F004014FF05A
:10100000E0221161C21700EB5272C2F3C7022B4BF0
:101010001A701946097801EB4102C2EBC1114FF673
:10102000FF7202EAC101264A118070470146234A35
:1010300012784A434FF0E0235A6100229A611A461F
:10104000126942F001021A6100BF4FF0E0221069FC
:1010500000F001021AB100F48032002AF5D04FF0FE
:10106000E022126922F001024FF0E0231A6100220F
:101070009A6170470146124A12884A434FF0E023B2
:101080005A6100229A611A46126942F001021A61FD
:1010900000BF4FF0E022106900F001021AB100F425
:1010A0008032002AF5D04FF0E022126922F00102CE
:1010B0004FF0E0231A6100229A6170472800002057
:1010C0002A000020B94A11880A131303C1F303222E
:1010D00003EB0223C1F3031203EB021201F00F032F
:1010E0001A4491B24D2202704322427055228270FE
:1010F0004322C27061220271702242713A228271CF
:101100004FF47A7291FBF2F232B14FF47A7291FBA2
:10111000F2F23032C27101E02022C2714FF47A72D1
:1011200091FBF2F302FB1312642392FBF3F23032D1
:101130000272642291FBF2F302FB13120A2392FB68
:10114000F3F2303242720A2291FBF2F302FB1312E5
:10115000303282724B22C27262220273704770B5C3
:101160000446934805682A4692A1204600F070FE86
:1011700070BD934A0A4002438D4B08331A60704792
:1011800010B504462046FFF743F910BDF8B50446F4
:101190000D4617461E463046FFF7F2FF8DF80070E9
:1011A0008DF801408DF8025001208DF8030068464B
:1011B000FFF733F9F8BD00B5002082490861C86027
:1011C0001420486100208861C8610846006840F02A
:1011D00001000860084640687B490840794948603A
:1011E0000846006879490840764908600846006862
:1011F00020F4802008600846406820F4FE00486023
:101200000020886000214FF00060FFF7B2FF00BDB2
:1012100010B567481030006840F004006449103190
:1012200008606848C06940F080506649C8616848F5
:10123000406840F48070664948600846006840F0A5
:10124000040008600846006840F002000860FEF7ED
:10125000C1FF10BD5F4856490C31086070475949BD
:10126000896941F00101574A91615B49496821F060
:10127000E061594A51601146496841EA0061516094
:10128000704730B504460025FFF795FF4D480068CC
:1012900040F480304B49086000BF4A480068400C69
:1012A0000028FAD04FF4806046494860A01EC4B2BE
:1012B0000846406840EA844048600846406840F478
:1012C000803048604548006840F03200434908607B
:1012D0003C48006840F080703A49086000BF3948D7
:1012E0000068400E0028FAD03648406840F00200FE
:1012F0003449486005E033484068C0F3870505F08D
:101300000305022DF7D130BD01460A2091FBF0F212
:1013100000FB12100A2291FBF2F240EA0210C0B266
:101320007047014601F00F000A1102EB820200EB48
:101330004200C0B2704701464FF47A7091FBF0F062
:1013400000034FF47A7291FBF2F302FB1312642351
:1013500092FBF3F240EA02201A4691FBF2F302FB01
:1013600013120A2392FBF3F240EA02101A4691FB91
:10137000F2F302FB1312104380B2704701460813C8
:101380004FF47A725043C1F3032202EBC20303EB22
:10139000021200EB8200C1F3031202EB820200EBA7
:1013A000420001F00F02104480B27047E0F7FF1FC7
:1013B00000ED00E04350552049443A2530385800AC
:1013C00080FFFF1F001002400000FFF8FFFFF6FE45
:1013D000007000400400FA050000014000200240B7
:1013E000014600BF704700BF5C4A128802F040020D
:1013F000002AF9D0C2B2594B1B1D1A80704710B594
:1014000086B0044655480C30008840F4807053493B
:101410000C3108800846008840F0200008804FF416
:10142000A063252203210846FFF7B0FE012144F204
:101430000400FFF777FB4948FFF7D8FB4FF4007033
:10144000ADF8140003208DF8160018208DF8170051
:1014500005A94348FFF7AAF84FF48060ADF81400DF
:1014600004208DF8170005A93D48FFF79FF8019467
:101470000020ADF80800ADF80A00ADF80C00ADF89A
:1014800010000C20ADF80E0001A93448FFF7F1FB65
:10149000012240F225513148FFF783FC01212F48FA
:1014A000FFF773FC06B010BD10B540F225512B4874
:1014B000FFF75CFD002850D02848FFF7D7FCC4B2E6
:1014C0002848008800F40040002846D125480088BC
:1014D00000F4804038B30A2C1ED00D202149098821
:1014E000C1F30D01204A50541E480088401C1D497C
:1014F000088008460088C0F30D0011460C541948B6
:101500000088401C17490880084600884BF6FF7188
:1015100008401449088020E01248008840F4004048
:101520001049088019E00D2C06D10E48008840F4BF
:1015300080400C49088010E00A480088C0F30D0084
:1015400009490C5407480088401C06490880084691
:1015500000883E2801DD0020088010BD00380140D1
:1015600000080140300000204000002088B04FF407
:10157000A060FFF705FE4820FFF73CFD4FF47A70AE
:10158000FFF778FD00F027F90420C821CDE9061007
:1015900000210D48CDE90410C82002900A480A46EF
:1015A0000A4BCDE900100846094900F0A7FB0AE004
:1015B00000200849086001200749C1F8A8014FF43C
:1015C0004870FFF757FDF3E70000F03F80841E41AD
:1015D000006AF840A88121420080214208B501211B
:1015E0001C20FFF79FFA0120ADF8000010208DF8B5
:1015F000030003208DF802006946FE48FEF7D6FF7F
:10160000FC20ADF8000010208DF8030003208DF8B9
:1016100002006946F848FEF7C9FF40F20340ADF802
:10162000000010208DF8030003208DF802006946A9
:10163000F248FEF7BBFF4FF48070ADF80000482081
:101640008DF803006946EC48FEF7B0FF0020EC4936
:101650000860EC49C1F88C01E94908390860091DA6
:101660000860E9490860E9490860E54910390860FF
:10167000E349091D0860E54924390860E449C1F8D7
:1016800080010A20FFF7F6FC08BD10B50120DC49F7
:1016900008600A20FFF7EEFC0020DA49C1F8980143
:1016A000D7490C390860091D08600120091F08602E
:1016B00010BD10B50120D249091D08600A20FFF7AE
:1016C000B5FC0020CF49C1F89C0110BD70B504469F
:1016D00000251DE00020CA49083908600A20FFF7EC
:1016E000A5FC04F0800020B10120C549091F086055
:1016F00003E00020C249091F08600120C0490839E1
:1017000008600A20FFF792FC6006040E681CC5B250
:10171000082DDFDB70BD70B50024002516E0002029
:10172000B749083908600220FFF780FCB548D0F8B7
:1017300020012043C4B20120B149083908600220C9
:10174000FFF774FC6006040E681CC5B2082DE6DBCA
:10175000204670BD2DE9F04107460D46164600248F
:101760003846FFF7B3FF00BF04E0285DFFF7AEFF88
:10177000601CC4B2B442F8DBBDE8F0812DE9F04151
:1017800007460D460026002401209D490C390860BB
:101790003846FFF79BFF00BF05E02402FFF7BBFFC1
:1017A0000444701CC6B2AE42F7DB012094490C39E8
:1017B00008602046BDE8F0812DE9F04104460D4661
:1017C00094480CC82046294600F026FD064600F045
:1017D000F5FCBDE8F0811CB5002001900090FFF7FA
:1017E000FDFEFFF752FF4FF49670FFF743FC002019
:1017F00083490C39086002208DF8040000208DF820
:1018000005008DF806008DF80700042201A9FFF7F6
:10181000A1FF00208DF800008DF80100A7208DF8B1
:101820000200032269460120FFF794FF0120754959
:10183000C1F88C011CBDF8B505460E46002000908D
:10184000002428463146FFF7B7FF0446200E8DF8E6
:101850000000200C8DF80100200A8DF80200E0B293
:101860008DF80300002066490C390860042269469F
:101870001046FFF76FFF01206249C1F88C01FFF7A6
:1018800018FFF8BD38B50446002000905C490C39BB
:10189000086020128DF80000E0B28DF801000222ED
:1018A00069461046FFF756FF01205649C1F88C01E2
:1018B000FFF7FFFE38BD38B50446002000905049C0
:1018C0000C39086020128DF80000E0B28DF801009C
:1018D000022269460520FFF73DFF01204949C1F872
:1018E0008C01FFF7E6FE38BD2DE9FF5F04460D468B
:1018F00016461F46DDF848B0DDE90E894FF0000AB4
:10190000002003900290009001903D490C3908603E
:101910008DF800008DF801008DF802008DF80300AD
:101920008DF80400052269460720FFF713FF002009
:101930008DF800008DF8010001208DF802000420D0
:101940008DF8030000208DF8040005226946082068
:10195000FFF700FF00208DF800008DF80100022045
:101960008DF8020008208DF8030000208DF8040097
:10197000052269460920FFF7EDFE00208DF80000E2
:101980008DF8010003208DF802000C208DF8030073
:1019900000208DF80400052269460A20FFF7DAFED0
:1019A00001201849C1F88C01FFF783FE002014497B
:1019B0000C390860091F0860144908602046294650
:1019C000FFF7FAFE82464FEA1A608DF80C004FEAE4
:1019D0001A408DF80D004FEA1A208DF80E000AF01B
:1019E000FF008DF80F00042203A90B20FFF7B2FEC1
:1019F000002011E00010014000080140000C0140EF
:101A0000980121420000214280012242A881214206
:101A10000080214238000020FE4910390860012072
:101A2000FD49086030463946FFF7C6FE82464FEA58
:101A30001A608DF80C004FEA1A408DF80D004FEA3D
:101A40001A208DF80E000AF0FF008DF80F00042216
:101A500003A90B20FFF77EFE0120EE491039086034
:101A60000020ED49086040464946FFF7A5FE824642
:101A70004FEA1A608DF80C004FEA1A408DF80D00FD
:101A80004FEA1A208DF80E000AF0FF008DF80F00C3
:101A9000042203A90B20FFF75DFE0120DD49103968
:101AA0000860DD490860DDE91001FFF785FE824628
:101AB0004FEA1A608DF80C004FEA1A408DF80D00BD
:101AC0004FEA1A208DF80E000AF0FF008DF80F0083
:101AD000042203A90B20FFF73DFE0120CD490C395C
:101AE0000860FFF7E6FD0020CA490C390860822033
:101AF0008DF8080000208DF809008DF80A008DF897
:101B00000B00042202A9FFF725FE0120C349C1F8FA
:101B10008C01FFF7CEFD5846FFF7B4FEBDE8FF9FEE
:101B20002DE9FF4704460D4616469946DDE90D8A24
:101B30000C9F00200390029000900190B5490C3951
:101B400008608DF800008DF801008DF802008DF816
:101B500003008DF80400052269460720FFF7FAFD0F
:101B600000208DF800008DF8010001208DF80200A2
:101B700004208DF8030000208DF80400052269463A
:101B80000820FFF7E7FD00208DF800008DF8010028
:101B900002208DF8020008208DF8030000208DF847
:101BA0000400052269460920FFF7D4FD00208DF8C6
:101BB00000008DF8010003208DF802000C208DF844
:101BC000030000208DF80400052269460A20FFF773
:101BD000C1FD01209149C1F88C01FFF76AFD4FF664
:101BE000FF7000EA840400EA850500EA860600EA40
:101BF0008909002087490C390860091F0860864957
:101C0000086020128DF80C00E0B28DF80D00002065
:101C10008DF80E008DF80F00042203A90B20FFF7AA
:101C200099FD00207B491039086001207A4908603D
:101C300028128DF80C00E8B28DF80D0000208DF808
:101C40000E008DF80F00042203A90B20FFF782FD80
:101C5000012070491039086000206F490860301277
:101C60008DF80C00F0B28DF80D0000208DF80E00FC
:101C70008DF80F00042203A90B20FFF76BFD012054
:101C8000644910390860644908604FEA29208DF8DA
:101C90000C0009F0FF008DF80D0000208DF80E00FB
:101CA0008DF80F00042203A90B20FFF753FD01203C
:101CB00058490C390860FFF7FCFC002055490C39E5
:101CC0000860C2208DF8080000208DF809008DF80A
:101CD0000A008DF80B00042202A9FFF73BFD01204A
:101CE0004E49C1F88C01FFF7E4FC5046FFF7CAFDEE
:101CF00038464146FFF79FFDBDE8FF872DE9FE4FBF
:101D000004460D4616461F46DDF84CB0DDE90C8949
:101D1000002001900290009082463E4910390860F0
:101D20003F49C1F8A8013B490C3908608DF8000013
:101D300020208DF8010000208DF802008DF803B0FE
:101D400004226946FFF706FD20462946FFF734FDC9
:101D500082464FEA1A608DF804004FEA1A408DF867
:101D600005004FEA1A208DF806000AF0FF008DF8F2
:101D70000700042201A91046FFF7ECFC3046394663
:101D8000FFF71AFD82464FEA1A608DF804004FEA09
:101D90001A408DF805004FEA1A208DF806000AF067
:101DA000FF008DF80700042201A90620FFF7D2FCEE
:101DB000DDE91001FFF700FD824612988DF804005E
:101DC0004FEA1A608DF805004FEA1A408DF80600B8
:101DD0004FEA1A208DF807000AF0FF008DF808007E
:101DE000052201A90720FFF7B5FC40464946FFF749
:101DF000E3FC82460E988DF804004FEA1A608DF8D5
:101E000005004FEA1A408DF806004FEA1A208DF8B7
:101E1000070007E098012142A881214200002142E9
:101E2000008021420AF0FF008DF80800052201A978
:101E30000820FFF78FFC01200349C1F88C01FFF750
:101E400038FCBDE8FE8F0000000021427047000012
:101E50000FB41CB5074B06AA7B4469460090059851
:101E600000F05DF90020694600F06CF91CBC5DF8DB
:101E700014FB0000E902000070B5044685690068A3
:101E8000C10601D5302600E02026C00707D070BD6E
:101E9000D4E9012130469047206A401C20626D1E23
:101EA000F6D570BD70B5044685690078C00707D1C6
:101EB00070BDD4E9012120209047206A401C206297
:101EC0006D1EF6D570BD000070B504460D46214666
:101ED0001068AFF300802188090502D50F4A7A44C3
:101EE00002E00E4A7A440E32002104F1240305E098
:101EF00000F00F060009965D5E54491C0028F7D1DA
:101F000020780023000704D5702D02D009B10223E8
:101F100011322046BDE8704000F0A2B83205000042
:101F20002DE9F05F894604464FF0000ADFF824B13E
:101F3000FB44C0F820A02046E168884700287DD0F7
:101F4000252806D0D4E901219047206A401C206250
:101F5000F1E700255F462046E168884720280646CD
:101F600007DB312E05D2B81910F8200C08B1054353
:101F7000F1E7A80701D525F00405C4F81CA0002747
:101F8000C4F818A02A2E09D0304600F00FF938B353
:101F900004EB8708303EC8F8186019E059F8041BB4
:101FA000204604EB87029161E1688847012F0646CD
:101FB00018D1E069002820DA25F020051DE0D8F8C6
:101FC000180000EB800006EB40003038C8F818001D
:101FD0002046E1688847064600F0E8F80028EED180
:101FE000012F0AD02E2E08D12046E16888477F1C99
:101FF0000646022F45F02005C4DBA069002803DA5D
:10200000404245F00105A061E80701D025F0100528
:10201000A6B1A6F14100192802D8203645F4006582
:102020004A463146204625604D46FEF7BBF860B172
:10203000012807D0ED1D25F0070000E007E000F1C2
:10204000080978E705F1040975E730467AE7206A60
:10205000BDE8F09F08050000704770477047704763
:102060002DE9F0470D4699469246044600F12408B2
:102070000168880604D5E06921F01001216000E0C4
:102080000120A84201DD471B00E00027A1697A1961
:1020900002EB0900081AA0612078C00602D420468D
:1020A000FFF7EAFE002608E0D4E901211AF806004D
:1020B0009047206A401C761C20624E45F4DB207855
:1020C000C0060AD52046FFF7D7FE06E0D4E9012175
:1020D00030209047206A401C2062381EA7F101077B
:1020E000F4DC07E0D4E9012118F805009047206AE4
:1020F000401C2062281EA5F10105F3DC2046FFF7F5
:10210000D1FE2078000602D50220BDE8F08701202C
:10211000FBE7000001694A1C02610878704700B5BE
:102120008FB0CDE901310021059105497944CDE910
:10213000031011466846FFF7F3FE0FB000BD000024
:10214000E5FFFFFF0A6802F8010B0A607047754659
:1021500000F028F8AE4605006946534620F0070017
:10216000854618B020B5FEF741F9BDE820404FF094
:1021700000064FF000074FF000084FF0000B21F071
:102180000701AC46ACE8C009ACE8C009ACE8C0093E
:10219000ACE8C0098D4670470446AFF30080204686
:1021A000FEF712F8004870478000002030380A28F7
:1021B00001D2012070470020704700004FEA115300
:1021C000A3F58063D3F11E03A8BFD3F1200C08DB75
:1021D0004FF0004242EAC12252EA505232FA03F072
:1021E000704709420BD4102BC4BF0020704703F581
:1021F000787CBCF1FF3F05D04FF0FF3070474FF0C7
:102200000000704770B500F0B1F800BF499224801B
:1022100000207047F0E70000DFF848C170B51CEA05
:10222000111E1EBF1CEA13159EEA0C0F95EA0C0F37
:1022300000F06F8081EA030423EA4C134EEAD47E57
:1022400021EA4C1141F4801143F48013AE44A1FB08
:10225000024CA0FB0365AEF17F7E361955EB0C05F1
:10226000A1FB034C4CF10003A0FB021C16EB0C0677
:10227000654153F10003094218BF46F0010613F40B
:10228000007F0BD14FEA03314FEA0530340341EAB6
:10229000155140EA16506FF003020AE04FEAC321DD
:1022A0004FEAC520F40241EA555140EA56506FF01A
:1022B000020202EB2E4201EB025585EACE710AD0F2
:1022C0005FEA440C18BF24F0004450F1000041F1D3
:1022D000000120EAD47040F2FE7C624500D270BD5D
:1022E000A84214BF4FF080444FF04044002E08BF76
:1022F0000024BEF1806FA8BFA1F1C041BDE87040CD
:1023000080F282804FF0000001F1C04101F00041F5
:1023100070479EEA0C0F0CEA131518BF95EA0C0FD4
:1023200006D04FF0000081EA030E0EF0004170BDB0
:1023300000F01CF88900013E00F007B800F009B871
:102340004FEA430C5FEA5C5C08D081EA030100F0CD
:102350005BB84FEA410C5FEA5C5CF6D14FF00000DD
:10236000014970470000FF070000F87F0EF1020EE0
:102370002EF0030E5EF8046B364205D4012A43EBBF
:10238000030515F5001F12D8012841EB010C1CF5BF
:10239000001F0CD80ED14FEAD17C15F5001F0CEBB5
:1023A0004C0C0CF1020C08BF4CEBD37C04E04FF05A
:1023B000080C01E04FEAD37C0CEB4C0526FA05F63D
:1023C00006F00706B6F1040C06D20EEB860CBDE84B
:1023D00070404CF0010C6047DFE80CF0090B020282
:1023E0004FF000414FF00000A1F5002170BD1946EB
:1023F0001046012851EB010418BFD4F5001484BF26
:10240000002001F0004170BD0808A0F500114FEA5E
:102410003101704730313233343536373839414243
:102420004344454640305800303132333435363736
:1024300038396162636465664030780004000008E2
:102440000000000000000002000100001000000079
:102450007024000800000020400000006C0100080B
:10246000B024000840000020A006000088010008F9
:1024700000A24A0400000000000000000102030462
:10248000060708090000000001020304010203041A
:10249000060708090204060800000000000000000A
:1024A00000000000000000003A8C30E28E792540E8
:0400000508000131BD
:00000001FF
