:020000040800F2
:1000000078560024710300082F710008D76A000891
:100010002D710008D5150008958400080000000027
:10002000000000000000000000000000B102000815
:100030001D1C0008000000000D03000829750008C1
:100040008B0300088B0300088B0300088B03000858
:100050008B0300088B0300088B0300088B03000848
:100060008B0300088B0300088B030008CD170008E2
:10007000D91700088B0300088B0300088B030008C6
:100080008B0300088B0300088B0300088B03000818
:100090008B0300088B0300088B0300088B03000808
:1000A0008B030008C97600088B0300088B03000847
:1000B0008B0300088B0300088B0300088B030008E8
:1000C0008B0300088B0300088B0300088B030008D8
:1000D0008B0300087D8400088B0300088B03000855
:1000E0008B0300088B030008000000008B0300084E
:1000F0008B0300088B0300088B0300088B030008A8
:100100008B0300088B0300088B0300088B03000897
:100110008B0300088B0300088B0300088B03000887
:100120008B0300088B0300088B0300088B03000877
:100130008B0300088B0300088B0300088B03000867
:1001400000000000000000000000000000000000AF
:100150008B0300088B0300088B03000889840008C8
:100160008B0300088B0300088B0300088B03000837
:100170008B0300088B0300088B0300088B03000827
:100180008B0300088B0300088B0300088B03000817
:100190008B0300088B0300088B0300088B03000807
:1001A0008B0300088B0300088B0300088B030008F7
:1001B0008B0300088B0300088B0300088B030008E7
:1001C0008B0300088B0300088B0300088B030008D7
:1001D0008B0300088B0300088B0300088B030008C7
:1001E0008B0300088B0300088B0300088B030008B7
:1001F0008B0300088B0300088B0300088B030008A7
:100200008B0300088B0300088B0300088B03000896
:100210008B0300088B0300088B0300088B03000886
:100220008B0300088B0300088B030008000000000C
:100230008B0300088B030008000000008B030008FC
:100240008B0300088B0300088B0300088B03000856
:100250008B0300088B0300088B0300088B03000846
:100260008B0300088B0300088B0300088B03000836
:100270008B0300088B0300088B03000800000000BC
:100280008B0300088B0300088B03000800000000AC
:10029000000000008B030008DFF810D000F0DCFB4A
:1002A00000480047999B0008AFF30080785600246F
:1002B0002C4B19680868B0E8F04F80F30988BFF349
:1002C0006F8F4FF0000080F311887047000000002E
:1002D00008480068006880F308884FF0000080F349
:1002E000148862B661B6BFF34F8FBFF36F8F00DF24
:1002F00000BF00BF08ED00E0DFF80C00016841F42A
:1003000070010160704700BF88ED00E0EFF30980E5
:10031000BFF36F8F134B1A681EF0100F08BF20ED4C
:10032000108A20E9F04F106009B44FF0500080F3BC
:100330001188BFF34F8FBFF36F8F0BF01FF94FF092
:10034000000080F3118809BC19680868B0E8F04F14
:100350001EF0100F08BFB0EC108A80F30988BFF3BD
:100360006F8F704728000024EFF30580704700006E
:100370000648804706480047FEE7FEE7FEE7FEE73F
:10038000FEE7FEE7FEE7FEE7FEE7FEE7ED750008A5
:10039000990200082DE9F05F0546002092469B4631
:1003A00088460646814640241BE02846414647468B
:1003B000224600F020F853465A46C01A914110D305
:1003C00011461846224600F0EEF82D1A67EB010898
:1003D0004F4622460120002100F0E5F817EB000906
:1003E0004E41201EA4F10104DFDC484631462A4676
:1003F0004346BDE8F09F202A04DB203A21FA02F0B0
:100400000021704721FA02F3D040C2F1200291404E
:1004100008431946704740EA01039B0703D009E0EF
:1004200008C9121F08C0042AFAD203E011F8013BE0
:1004300000F8013B521EF9D27047D2B201E000F839
:10044000012B491EFBD270470022F6E710B5134678
:100450000A4604461946FFF7F0FF204610BD10B5C6
:10046000044604E00B7800F8013B03B1491C521E1E
:10047000F8D2204610BD10B5002200E0521C835C6B
:100480008C5CA34201D1002BF8D1D8B2E1B2401A62
:1004900010BD000070B50F4D00B92868002412E0AF
:1004A0000A4602E09E4203D0521C1378002BF9D179
:1004B000DAB2224305D02BB124B1002100F8011B90
:1004C00004E00446401C0678002EE9D1286020464E
:1004D00070BD0000380100242DE9F05F93460F46FF
:1004E00080460446002607F0F9FFD0F800908246C7
:1004F00014F8015B2DB100F065F80068405DC0079D
:10050000F6D12B2D02D02D2D1AD0641E0021CAF851
:1005100000105A463946204600F061F8014627B1DE
:100520003868A04201D1C7F80080DAF8000002283C
:1005300009D0CAF80090700505D54842BDE8F09F83
:1005400046F48066E2E70846F8E7C1F30A52C1F3D1
:10055000130140F2FF3341F480119A4202DA002085
:100560000146704740F233439A42A2F2334202DC22
:100570005242FFF740BF00F016B830B50B460146B7
:1005800000202022012409E021FA02F59D4205D332
:1005900003FA02F5491B04FA02F52844151EA2F1DC
:1005A0000102F1DC30BD202A04DB203A00FA02F11E
:1005B000002070479140C2F1200320FA03F3194351
:1005C0009040704700487047E0C1000810B50446ED
:1005D000FFF7F8FF0068005D00F0010010BD2DE995
:1005E000F05F82460078002715468B460AF1010429
:1005F000B946302801D09DB113E014F8010B012752
:10060000782803D0582801D045B10AE00DB1102D4B
:1006100007D10027102514F8010B02E0082500E09F
:100620000A250026B0460EE005FB080005FB06F192
:10063000012701EB10461FFA80F8B6F5803F00D382
:10064000B94614F8010B294600F02AFA0028EBDA23
:10065000BBF1000F05D00FB1641E00E05446CBF88B
:100660000040B9F1000F06D007F038FF0221016009
:10067000C81EBDE8F09F48EA0640FAE70FB4002321
:1006800000B589B00CA900910B996FF00042CB60C6
:100690001E4B06931E4B07930423CDE901321D4ADE
:1006A000089202466B46002000F09CFA09B05DF803
:1006B00014FB70B586B006464FF0FF300091CDE9CF
:1006C0000101002015460C4604903246694604A8F4
:1006D000FFF7D4FF02460498211825B108B1084657
:1006E00000E020462860049800280DD0002A02DD92
:1006F0000098884208D0081B0094CDE901043246D6
:10070000694604A8FFF7BAFF06B070BD1D0E0008C9
:100710003B0E0008CD0500082DE9FE4F804681EA1A
:100720000300C00F0C46009021F0004123F000456B
:10073000B8EB0200A94105D24046214690461C462E
:100740000B46024623F00040104347D0270DC7F365
:100750000A00C3F30A510290401A019040286BDA54
:10076000C3F3130040F4801B0098924620B100238D
:10077000D2EB030A63EB0B0B01985946C0F1400220
:100780005046FFF710FF06460D4650465946019A5F
:1007900000F074F910EB08006141002487EA11525F
:1007A00084EAE7731A4340D0009A62B3019A012A9F
:1007B0004FEA075215DC001B61EB02014FF00042CB
:1007C00002EA0752CDE90042001C41F58011324691
:1007D0002B4600F052FB03B0BDE8F08F40462146A7
:1007E000F9E7001B61EB0201001C41F580130018C2
:1007F0005B412018A2F5001747EB030140EAD570D2
:10080000B6196D4111E06D084FEA360645EAC0752C
:100810004FEA0752001B61EB0201001C41F58011F9
:1008200049084FEA30000019514132462B4603B0C7
:10083000BDE8F04F00F012BB0098012240000023F9
:10084000D0EB020263EBE073009821464FEAE074BC
:10085000B8EB000061EB0401E9E783F000435BE7DC
:1008600081F0004158E72DE9FE4F81EA030404F0CE
:10087000004421F0004100944FF0000B23F00043AE
:1008800050EA01045ED052EA03045BD0C3F30A5479
:10089000C1F30A552C44A4F2F3340194A0FB025492
:1008A000C1F3130141F48011C3F3130343F4801324
:1008B00001FB024400FB034E840A970A44EA815478
:1008C00047EA8357A4FB076802958D0A05FB078555
:1008D0004FEA932C04FB0C542705029D4FEA06585F
:1008E00047EA1637B5EB08056EEB070C870E920E3C
:1008F00047EA811742EA8312A7FB0201B6EB0B011C
:1009000064EB00042B0D43EA0C335E1844EB1C50DF
:10091000DA465146E7FB0201C5F313044FEA0B33F5
:1009200043EA14534FEA0432019C43EA0603A4F15C
:100930000C040294009CCDE900B400F09EFA03B0D0
:10094000BDE8F08F00200146F9E72DE9F04D81EA7E
:10095000030404F0004B21F0004514464FF0000A58
:1009600023F0004150EA050220D054EA01021DD0D4
:10097000C5F30A570246C5F31303C1F31300C1F3CD
:100980000A5640F4801543F48013A7EB0608101BA9
:10099000D64608F2FD3873EB050002D308F10108D2
:1009A00001E092185B41B8F1000F03DA0020014624
:1009B000BDE8F08D00204FF48011064684460EE01D
:1009C000171B73EB050705D3121B63EB05030643E7
:1009D0004CEA010C49084FEA300092185B4150EA9A
:1009E0000107EDD152EA030012D082EA040083EA43
:1009F0000501084305D0101BAB4106D2012200239C
:100A000006E000224FF0004302E06FF001025310B5
:100A10001AEB06004CEB085110EB0A0041EB0B01FE
:100A2000BDE8F04D00F01ABA30B5041E71F10004B3
:100A300004DB4FF00044404264EB0101141E73F1EB
:100A4000000405DB1C464FF00043524263EB0403F5
:100A5000994208BF904230BD064C074D06E0E06861
:100A600040F0010394E8070098471034AC42F6D3F5
:100A7000FFF716FC18C8000838C80008202A06DB53
:100A8000CB17203A41FA02F043EAE07306E041FA5C
:100A900002F3D040C2F1200291400843194670474A
:100AA0003A2800D2303820F02002412A01D3A2F1A6
:100AB0003700884201D34FF0FF3070472DE9FF4FD8
:100AC000087883B09946FF2805D0491C2D2804D00A
:100AD0000024002008E000200BE00124F9E700EBEF
:100AE000800003EB4000491C0B78FF2BF7D104B1C9
:100AF000404200230293147819461D462D2C01D044
:100B00002B2C04D1521C2D2C13D000240294AA4665
:100B10001478FF2C0FD00A25A3FB057801FB058173
:100B20004FF0000C03FB0C11521CE3194AEB0101BE
:100B3000EEE70124EAE7814453EA010002D019F507
:100B4000C87F06DA03980021C0E9001107B0BDE8AC
:100B5000F08F0025AE4E2F46DFF8B882184600F021
:100B6000DAF9CDE90001B9F1000002DAC9F10004B7
:100B700000E004460023A74A1AEB030B42EB045A99
:100B800012E0E00707D02A46334638464146FFF7D1
:100B90006AFE074688462A46334610461946FFF73E
:100BA00062FE05460E466410002CEAD1DDE9000124
:100BB000B9F1000F5A46534606DAFFF7C6FE3A4629
:100BC0004346FFF7C2FE05E0FFF74DFE3A464346B7
:100BD000FFF749FE029A0AB181F00041039AC2E987
:100BE0000001B3E72DE9FF4F1F468DB0D7E901465D
:100BF0004FF0FF382E2045464FF000090B90B969A1
:100C00006D1C0E988847396A824688470028F6D1BD
:100C1000BAF1FF3F0AD024F4D064002E11DDBAF1FE
:100C20002B0F08D0BAF12D0F0BD102E0404611B0C6
:100C30008DE744F48064B9696D1C0E98884782463C
:100C4000761E6946600501D52D2000E02B208DF829
:100C5000000001F1010B0DF1200809E0B9696D1CDC
:100C60000E98884782460F9844F40074761E0560FB
:100C7000002E02DDBAF1300FF0D00B998A453ED13B
:100C800044F0800406E00F99681CA9F1010944F4BE
:100C900000740860B9696D1C761E0E9888478246FC
:100CA0003028F0D02BE00B998A4505D1200603D4DB
:100CB00044F08004761E18E0504607F00FFD08B39C
:100CC0000DF11301761E44F400748B4508D2AAF18D
:100CD00030000BF8010B200607D5A9F1010003E055
:100CE000200602D409F101008146A00502D50F9922
:100CF000681C0860B9696D1C0E9888478246002EF2
:100D0000D1DC53E0002E51DDBAF1650F02D0BAF10B
:100D1000450F4BD1A00549D5B9696D1C24F4407429
:100D2000761E0E9888478246002E0CDD2B2804D0B4
:100D3000BAF12D0F07D144F48074B9696D1C0E9877
:100D400088478246761EE00501D52D2100E02B2143
:100D500008F8011BCDF82C8021E00DF12901761E49
:100D600044F4007488450CD2AAF1300010F0FF0062
:100D700088F8000002D10B99884509D908F10108CB
:100D800006E0E00501D5244801E042F20F708146FB
:100D9000B9696D1C0E98884782460F980560002E31
:100DA00004DD504607F09AFC0028D6D1F9690E9868
:100DB0008847FF208BF8000088F80000002006908C
:100DC00007904B466A4608A906A8FFF777FEA005DC
:100DD00002D46FF001002AE714F0240F0AD0E007D4
:100DE00014D1DDE906123868031D3B600068C0E9D4
:100DF00000120BE0DDE9060100F099F80146E0077A
:100E000004D13868021D3A600068016028460EE788
:100E1000000014400000F03FF1D8FFFF426842B1EB
:100E2000016811F8013B23B1521EC0E900121846B7
:100E300070470121C160881E704742685AB1C3687B
:100E4000016843B983688B4205D0491E521CC0E932
:100E50000012002070474FF0FF30704710B5141E8D
:100E600073F1000408DA401C41F1000192185B4163
:100E70001A4301D120F0010010BD2DE9F04D92463A
:100E80009B4611B1B1FA81F202E0B0FA80F2203251
:100E90009046FFF788FB04460F4640EA0A0041EA05
:100EA0000B0153465A46084313D0114653EA01003A
:100EB00019D0C8F140025046FFF79DFA05460E468C
:100EC000504659464246FFF76EFB084305D00120C5
:100ED00004E020463946BDE8F08D0020054346EA8F
:100EE000E0762C4337430A986305E40AA0EB080038
:100EF0000022FD0A44EA47540A3002D50020014688
:100F0000E9E7010510196941DDE908450019694162
:100F1000BDE8F04DA2E70EB540F233420292002246
:100F2000CDE900221346FFF7A8FF03B000BD01F092
:100F3000004330B421F0004150EA010206D00A0D0E
:100F4000A2F56072C1F31301002A02DC30BC00205C
:100F50007047440F44EAC104C100E01830BC00EB04
:100F6000C250AFF300800029A8BF7047401C490061
:100F700008BF20F00100704710B4B0FA80FC00FAFE
:100F80000CF050EA010404BF10BC704749B1CCF129
:100F9000200421FA04F411FA0CF118BF01212143B5
:100FA0000843A3EB0C01CB1D4FEA00614FEA102070
:100FB00042BF002010BC704700EBC3501044002912
:100FC000A4BF10BC7047401C490008BF20F00100BE
:100FD00010BC704770B58C1810F8015B15F0070352
:100FE00001D110F8013B2A1106D110F8012B03E0C2
:100FF00010F8016B01F8016B5B1EF9D12B0705D4CA
:101000000023521E0DD401F8013BFAE710F8013B12
:10101000CB1A921C03E013F8015B01F8015B521E2E
:10102000F9D5A142D8D3002070BD00002DE9F047CA
:10103000184E4FF40079002204464946304602F02B
:101040007CFE44F4885500244FF480684FF4006718
:1010500030460022394602F070FE280401D50122F4
:1010600000E000224146304602F067FE6D0039463E
:101070000122304602F061FE00F00EF8641CE4B27A
:10108000102CE5D349463046BDE8F047012202F076
:1010900054BE00000000025808B500200090401C1B
:1010A0000A280090FBDB08BD10B586B01421684605
:1010B000FFF7CAF91648016841F0020101600068B3
:1010C0000121002200F00200059002234FF4F050AD
:1010D0008DE80F000F48694602F014FD0E4C012206
:1010E0001103204602F029FE002220464FF4006141
:1010F00002F023FE002220464FF4806102F01DFE24
:1011000001222046510202F018FE06B010BD000078
:10111000E044025800040258000002589FED222BC0
:101120002DE9F04180EE021B9FED210B42F4404877
:101130000C4605464FF4807021EE000BBDEEC00B4F
:1011400010EE102AC2F30D06C2F38D3700F034F80A
:101150004FF4045000F030F815B1012D05D010E027
:1011600046F4804047F4804503E046F4004047F4ED
:10117000004500F021F8284600F01EF8404600F037
:101180001BF844B1022C09D0012C0AD16003BDE840
:10119000F04100F011B842F20200F8E742F22800F4
:1011A000F5E7BDE8F08100000000000080842E41DA
:1011B00000000040E17A64412DE9F04701221D4E14
:1011C0000546D7023046394602F0B7FD4FF4805845
:1011D000304601224446414602F0AFFD002221463E
:1011E000304602F0AAFD00244FF48069280401D59E
:1011F000012200E000224946304602F09EFDFFF742
:101200004BFF00223946304602F097FDFFF744FFBE
:1012100001223946304602F090FD641C6D00E4B2B4
:10122000102CE3D341463046BDE8F047012202F0DE
:1012300084BD00000000025870B51E4C002202213F
:10124000204602F07AFD1C4800224FF4004102F0D3
:1012500074FD1A4D00224FF40061284602F06DFD26
:1012600000222046012102F068FD002220460421D0
:1012700002F063FD00222046102102F05EFD0022F4
:101280002046202102F059FD00222046402102F094
:1012900054FD002228464FF4805102F04EFD0022FA
:1012A0002046082102F049FDBDE870400A2007F001
:1012B0004BBE0000000C0258000002580008025803
:1012C0007CB5002400940194FFF7B6FF00F02EF8DF
:1012D0004FF4967007F038FE134E4FF4004500228D
:1012E0002946304602F029FD02208DF800008DF8D5
:1012F000014004228DF80240002069468DF8034029
:1013000000F0D4F88DF80440A7208DF805400322A2
:1013100001A98DF80600012000F0C8F80122294635
:10132000304602F00AFD7CBD0000025870B5114C39
:1013300001220221204602F000FD0A2007F004FEEF
:1013400000222046022102F0F8FC0B4D4FF400442D
:1013500000222146284602F0F0FC08480022211114
:1013600002F0EBFC21462846BDE87040012202F065
:10137000E4BC0000000C02580000025800080258AB
:101380002DE9F041DFF84C800024134F4FF4006644
:10139000054631460022384602F0CFFC012007F016
:1013A000E1FD280601D5012200E00022404601218E
:1013B00002F0C3FC01223146384602F0BEFC012097
:1013C00007F0D0FD6806641C050EE4B2082CE0D3DB
:1013D000BDE8F081000C025800080258F8B50E4E26
:1013E000044600204FF4004502462946009030464E
:1013F00002F0A3FC200A8DF8000002226946104684
:101400008DF8014000F052F801222946304602F0E2
:1014100094FC07F01FF8F8BD0000025838B5002012
:10142000009000F0FFFB010E8DF80010020C8DF80B
:1014300001200D4D030A4FF400448DF802300022C4
:1014400021468DF80300284602F077FC0422694605
:10145000104600F02BF801222146284602F06DFCD0
:1014600006F0F8FF38BD000000000258F8B50E4E37
:10147000044600204FF400450246294600903046BD
:1014800002F05BFC200A8DF800000222694605206C
:101490008DF8014000F00AF801222946304602F09A
:1014A0004CFC06F0D7FFF8BD0000025870B50024D0
:1014B00015460E46FFF764FF04E0305DFFF760FF5E
:1014C000641CE4B2AC42F8D370BD000070B53A4978
:1014D00005460068884202D0384A904202D1D1F8CD
:1014E000080302E03648D0F8080310F4403F11D05A
:1014F00003F0FEFF04466868B0F5803F06D0B0F503
:10150000003F03D0B0F5403F27D101E0000C18E0C8
:10151000A40822E000214FF4002003F053F8044611
:1015200068688103890B18D181140C2915D2DFE872
:1015300001F0140606060606060B0D0F1113800CAB
:101540004000B4FBF0F408E0240906E0640904E07C
:10155000A40902E0E40900E0240A02F0F3FB41F2EE
:101560000301884208D8174884422868816813D844
:1015700021F48071816070BD13496008884204D8ED
:101580002868816821F44071F4E71049884206D840
:101590002868816821F4407141F48071EAE70C49C0
:1015A00088422868816804D821F4407141F40071B0
:1015B000E0E741F44071DDE70020024000210240F5
:1015C00000600258002D3101105E5F0020BCBE009B
:1015D00040787D01FEE710B5846B204600F0E6FF01
:1015E0000120207110BD10B5846B204600F034FF3F
:1015F0000120207110BD10B5846B206940F00400FB
:101600002061204600F0DEFF0120207110BD10B5E2
:10161000846B206940F004002061204600F01EFF2A
:101620000120207110BD10B5806B00F0C5FF10BD0A
:1016300010B5806B00F011FF10BD000000F1A80193
:1016400010B540220C4600F02DF804F01F00803049
:10165000BFF34F8F05490C60203820340028FADC96
:10166000BFF34F8FBFF36F8F10BD000068EF00E036
:1016700000F1280110B540220C4600F013F804F0E8
:101680001F008030BFF34F8F05490C602038203495
:101690000028FADCBFF34F8FBFF36F8F10BD00003F
:1016A00068EF00E02DE9F0410446006916460F4658
:1016B00018B1606908B100251EE000204FF40061F8
:1016C00003E000BF27F81010401CB042FAD3BDE879
:1016D000F08100BF94E80B00E268C01851416269D4
:1016E000C2F14002C4E90001FEF785FE216931F82C
:1016F000100027F815006D1CB542EBD3E7E72DE984
:10170000F041984617460E460446069D4FF49471E4
:10171000FEF79AFE183484E8E001BDE8F08100008D
:10172000B7EEC01A9FED0B3BB0EE002B10B590ED5D
:10173000060A044621EE031B21EE021BB8EE402BE5
:1017400081EE020B51EC100BFEF7FFFEC4E9020123
:1017500010BD0000000000000000E04301614FF0F8
:1017600000011AB100E0491C5208FCD141617047E8
:10177000F8B500F12801054640220E46FFF792FF1A
:101780004022284605F1A801FFF78CFF06F01F0054
:10179000344600F58070BFF34F8F0B490C60203842
:1017A00020340028FADCBFF34F8FBFF36F8F002087
:1017B000009080233246D5E9070100F06FFF686A88
:1017C000BDE8F84004F000BC68EF00E0014801F01B
:1017D000F5BA0000BC040024014801F0EFBA000093
:1017E00034050024294A016891423AD0274A183228
:1017F000914236D0254A3032914232D0234A483283
:1018000091422ED0214A603291422AD01F4A78322A
:10181000914226D01D4A9032914222D01B4AA832D2
:1018200091421ED01A4A91421BD0194A1832914255
:1018300017D0174A3032914213D0154A483291429C
:101840000FD0134A603291420BD0114A7832914244
:1018500007D00F4A9032914203D00D4AA8329142EC
:1018600011D1CAB21823103AB2FBF3F26FF3090197
:10187000032A02F00703074AD25CC26500D9091D9A
:1018800081650846704721F0FF01F9E7100002402A
:101890001004024088C0000830B5224A01230168C4
:1018A0009142CAB21BD01F4C1434A14217D01D4C18
:1018B0002834A14213D01B4C3C34A1420FD0194C08
:1018C0005034A1420BD0174C6434A14207D0154CC0
:1018D0007834A14203D0134C8C34A1420CD1142192
:1018E000114C083AB2FBF1F10F4A803201F01F05AA
:1018F00004EB8101AB4010E00C4D1824103A0D446C
:10190000B2FBF4F1A82D00D80831094A01F01F04F8
:1019100002EB8101064AA3408032603080E80E006D
:1019200030BD00000854025800580258F0FBFDBFBB
:101930000008024010B50279531E072B2DD8174C12
:101940000168A1421BD0154C1434A14217D0134C8E
:101950002834A14213D0114C3C34A1420FD00F4C7B
:101960005034A1420BD00D4C6434A14207D00B4C33
:101970007834A14203D0094C8C34A14203D10849E8
:10198000074C443102E00749064C443104EB820223
:10199000C0E91B2101219940416710BD085402583C
:1019A000FC580258FC08024010B583694FF0C0741F
:1019B000826A0146002053B1B3F5005F15D072B1C1
:1019C000012A0CD0022A0AD0032A09D104E01AB154
:1019D000012A06D0022A03D1C96AC90100D5012013
:1019E00010BDC96AA142FAD010BD002AF7D0012A61
:1019F000F2D0022AF3D0032AF3D010BD2DE9F04F24
:101A0000804E804FDFF8FC911836DFF8F8A1483798
:101A10000468856D0AF1300ADFF8ECB14C45DFF857
:101A2000ECC1DFF8ECE16DD0B4426BD0544569D025
:101A3000BC4267D0DFF8D081A8F11808444561D0D6
:101A40005C455FD064455DD074455BD0DFF8C481F0
:101A5000444557D0DFF8BC8108F11808444551D0FF
:101A6000DFF8B08108F1300844454BD0DFF8A4819D
:101A700008F14808444545D0DFF8988108F160082E
:101A800044453FD0DFF88C8108F17808444539D0CF
:101A9000DFF8808108F19008444533D0DFF8748185
:101AA00008F1A80844452DD0DFF86C81444529D0C1
:101AB000DFF8648108F11408444523D0DFF8588129
:101AC00008F1280844451DD0DFF84C8108F13C0896
:101AD000444517D0DFF8408108F15008444511D043
:101AE000DFF8348108F1640844450BD0DFF8288121
:101AF00008F17808444505D0DFF81C8108F18C080E
:101B0000444509D1D0E91948C4F80480C46E1CB119
:101B1000D0E91C48C4F8048004684C452ED0B44277
:101B20002CD054452AD0BC4228D0374E183EB4425F
:101B300024D05C4522D0644520D074451ED0354E5B
:101B4000B4421BD0334E1836B44217D0314E303623
:101B5000B44213D02F4E4836B4420FD02D4E6036CB
:101B6000B4420BD02B4E7836B44207D0294E903673
:101B7000B44203D0274EA836B44215D190F85C6029
:101B80003F2406F01F06B440AC600468256825F4C5
:101B9000802525602EE09A600068C160BDE8F08F66
:101BA00099600068C260F9E71B4EB4421BD01A4E20
:101BB0001436B44217D0184E2836B44213D0164EFD
:101BC0003C36B4420FD0144E5036B4420BD0124EB5
:101BD0006436B44207D0104E7836B44203D00E4E6D
:101BE0008C36B442DAD190F85C60012406F01F060E
:101BF000B4406C60046863608368402B0368CFD195
:101C0000C9E700001000024088000240A000024026
:101C1000B80002401004024008540258704772B6DF
:101C2000FEE70000044890ED001B21EE000BBCEE27
:101C3000C00B10EE100A7047A80000242DE9F047F1
:101C40000F4690F850109AB0044601294FF0000951
:101C500015D00026DFF8F880012084F85000159692
:101C60001696216841450ED13A4D0095284604F05C
:101C70003BFF8246206804F037FF60B10EE002208F
:101C80001AB0BDE8F087606D84F8506040F0200025
:101C900060650120F4E7BAF1000F09D0616D4FF0E3
:101CA000010941F020006065484684F85060E7E78C
:101CB00020684146884201D0A84201D1264800E070
:101CC000264840F61F72D7F800C0254BBCF1000F24
:101CD00023D0D0F808C0D7F804802CF4404C4CEA4C
:101CE000080CC0F808C0D4F800C08C4501D0AC4541
:101CF00007D18968AB6801F0010103F001031943C2
:101D000002E0996801F001010029CDD1BD68396870
:101D1000836829439343194317E0876827F44047B2
:101D2000876027688F4201D0AF4207D18968AB68CE
:101D300001F0010103F00103194302E0996801F089
:101D400001010029B0D1816891438160ACE70000B6
:101D5000002002400021024000230240006302589C
:101D6000006002582DE9F84F4FF0000B0D46E54F8B
:101D70000446CDF800B0D94690F85010DFF888A39B
:101D8000012907D0012684F85060206804F0A8FEDD
:101D900018B168E10220BDE8F88F286800280DDB43
:101DA00021680303CA6927D090FAA0F0B0FA80F046
:101DB00000F01F0006FA00F00243CA61D5E90012E4
:101DC0004FF00C0C20681F23C1F384610CEA921CB5
:101DD00002F01F02604493409140026B9A430A4311
:101DE0000263206804F07CFE8046206804F074FEE4
:101DF00058EA000003D07FE0C0F38460D8E7206891
:101E0000AA68296804F074FEC0480068B6EB107F29
:101E100006D121686869C968C1F38201490008E0F8
:101E20002068C168C906C1686869F5D501F010016C
:101E300049088840296904292ED023682A6803EBC1
:101E4000810102F0F8420B6E024303F000401043A0
:101E50000866697E22682869012917D05FF00001B1
:101E600002EB8000026E22F000420A430266297EE5
:101E700020682A6901290CD00021036902F01F02A1
:101E8000914023F4F0420A43026135E04FF00041F3
:101E9000E6E74FF40061F0E720682978026E02F06F
:101EA000F842B2EB816F03D1016E21F0004101666F
:101EB00020682978426E02F0F842B2EB816F03D1BC
:101EC000416E21F00041416620682978826E02F05F
:101ED000F842B2EB816F03D1816E21F0004181663F
:101EE00020682978C26E02F0F842B2EB816F03D10C
:101EF000C16E21F00041C1662068816811F0010FB8
:101F000076D150F8C02F95F80CC0814B29680CF0A1
:101F1000180823FA08F3C1F3130C0B4022EA0C0251
:101F20001A4302607B48E968814277D1286801033F
:101F30001BD090FAA0F1B1FA81F1491C01F01F0108
:101F400009294FEA003131D8002911D090FAA0F1C7
:101F5000B1FA81F101F1010101F01F0106FA01F668
:101F600009D100BFC0F3846109E0C0F38461E4E7F4
:101F7000C0F38461EEE790FAA0F1B1FA81F101F1CA
:101F8000010101F01F0146EA816102D1C0F38460C2
:101F900003E090FAA0F0B0FA80F000F1010000F048
:101FA0001F0000EB400041EA005133E000290ED051
:101FB00090FAA0F1B1FA81F101F1010101F01F01E4
:101FC00006FA01F606D100BFC0F3846106E0C0F353
:101FD0008461F1E790FAA0F1B1FA81F101F1010118
:101FE00001F01F0146EA816103D1C0F3846004E07F
:101FF0003FE090FAA0F0B0FA80F0474A00F101000B
:1020000000F01F0000EB400002EB005041EA00012D
:1020100041F00071AA68206804F06AFD2E68002E65
:1020200027DA3E4A20683E49DFF8F8C0904201D0E6
:10203000B84201D10B4600E063469B68904203F032
:10204000E07301D0B84209D19568D7F8088005F04F
:10205000010508F0010845EA080503E0DAF8085030
:1020600005F001054DB1616D4FF0010941F020000F
:102070006065484684F850B08DE62B4DAE421CD1C9
:102080001D021AD45045F4D1904202D0B84200D07B
:1020900061468A6843F4000022F0E07202438A60DD
:1020A000234922480968B1FBF0F04000801C00E0A1
:1020B000401E00900028FBD1DBE71E4DAE420CD144
:1020C000DD010AD45045D4D1904202D0B84200D0AC
:1020D00061468A6843F080700EE0174DAE42C8D169
:1020E0005D02C6D45045C4D1904202D0B84200D05F
:1020F00061468A6843F4800022F0E07202438A60FD
:10210000B7E7000000210240006002580010005CA8
:10211000FFFF0F000000FF47000020FE00200240EC
:102120000023024000630258000084CB400D0300EE
:1021300020000024000052C70000B8CFF8B54FF0CF
:10214000000604003546009602D0606D10B107E02D
:102150000120F8BD204600F005F9A66584F850601E
:1021600020688168C1F3407119B18168704A1140DB
:10217000816020688168C1F3007181B981686D4A0E
:10218000114041F0805181606C496B480968B1FB96
:10219000F0F0401C00E0401E00900028FBD12068B9
:1021A0008168C1F3007141B9616D012541F01001F1
:1021B0006165A16D41F00101A16504F091FC616DC3
:1021C000C90600D420B1606D012540F0100093E0F5
:1021D000606D20F4807040F00200606520688168C6
:1021E00011F0010F1FD1564A564B904201D0984230
:1021F00007D191689E6801F0010106F001063143A4
:1022000003E05149896801F0010161B9904201D0B0
:10221000984201D14D4800E04D488268616822F43F
:102220007C120A43826001F08DFD41F20301884275
:1022300002D9A06810280CD0617D227FA368206B92
:10224000490341EA024118430843217F01290CD088
:1022500010E0607D227F216B400340EA024241F0A2
:102260001000104340F00C00EFE7218C394A02EBDC
:1022700041410843616A29B1A26A01F478710143BE
:1022800042EA01002168344BCA681A400243CA601E
:10229000206804F025FC0646206804F01DFC30434D
:1022A0001DD1216844F20303267DE26AC86842EA30
:1022B000863298431043C86094F8380001281ED035
:1022C0002068016921F0010101612068626B0169E8
:1022D00021F07041114301612046FFF7F7F8E068F3
:1022E000012820681CD0016B21F00F010163606D93
:1022F00020F0020040F0010060652846F8BD20682B
:10230000A28F164FD4E9101C154E07EB0247A36CA1
:10231000026941EA0C013B43324019431143D3E7C0
:10232000A269016B521E21F00F011143DEE700008C
:10233000C0FFFF5FC0FFFF7F400D030020000024AF
:1023400000200240002102400060025800230240A9
:10235000006302580000FEFF03C0F0FF0100FFFF12
:102360001EF800FCF0B587B0064614216846FEF75B
:102370006BF8304A002530494FF0030437682F4B83
:1023800010688F422E4900F1010034D101281060FD
:1023900007D1186840F020001860186800F020008D
:1023A0000590086840F0040008600868694600F07D
:1023B0000400059010208DE83100224801F0A2FBB6
:1023C000214C092121484FF4807C021584E8230028
:1023D0001701C4E9035283142046C4E907C56562A6
:1023E000C4E9053701F05EF808B1FFF718FCF464A2
:1023F000A66307B0F0BD164EB742FAD101281060AF
:1024000007D1186840F020001860186800F020001C
:102410000590086840F0010008600868694600F00F
:102420000100059040208DE831000A4801F06AFB68
:10243000DFE700001000002400200240D8440258CA
:10244000E044025800080258BC0400241000024076
:10245000002102400000025870477047704700009A
:102460002DE9F05F040017460D464FF0000B0FD02A
:1024700075B1607901280ED04FF0010A84F805A0EB
:1024800002212171286807F01006042805D04BE0CE
:102490000120BDE8F09F0220FBE701F059FC8046D7
:1024A0004FF003095FB125E001F052FCA0EB0800FA
:1024B000012805D92068406B384201D012E03A4F1C
:1024C0002068406B3842EFD12168A869086418E0A1
:1024D00001F03EFCA0EB080001280BD92068406BFE
:1024E000002807DA216941F00801216184F804908D
:1024F0000320CEE72068406B0028E9DB2168A8694B
:10250000486440F2FF332168EA69B340886CB24006
:102510009843104388642068FF222B6AB240C16C44
:10252000B34091431943C1642869012808D1226846
:102530001F236969906BB340B14098430143916395
:1025400023680721E868DA6BB140012822EA01021A
:1025500003D0022826D0A86820B30021AF682868DD
:10256000384308434FF48041B0401043D86320689B
:10257000B14002688A4302602268116840F6FE7327
:102580006868B3409943B04008431060C021B1402F
:10259000206802688A43026084F804A00020607109
:1025A000584676E70121D9E7008000200148FFF76F
:1025B00045B80000D04E00240148FFF759B800008C
:1025C000D04E0024704770B5040003D02079002558
:1025D00010B105E0012070BD2046657100F008F8DB
:1025E00002212171012025612071002070BD0000B1
:1025F0002DE9F04186B0804614216846FDF724FF9E
:102600002149D8F8000088423AD12048016841F0B9
:1026100000510160006800F0005005901B48083828
:10262000016841F00101016000680025032100F00C
:102630000100059030208DE823001548694601F01F
:1026400061FA144C40221448432104F1040ED701CE
:10265000206003158EE82600C614D00204F1100194
:10266000C4E908054FF4807C204681E8C81000F0DA
:1026700019FF08B1FFF7D3FAC8F80840C4F838804A
:1026800006B0BDE8F081000000740040E844025844
:102690000000025834050024280002402DE9F041D2
:1026A000040017460D4606981BD0617901291BD0FE
:1026B0000126667102212171C5B1E168294ACA6308
:1026C000E26829491164E2682849D16421680A68EE
:1026D00042F080520A6040B32268042828D01C329D
:1026E00027E00120BDE8F0810220FBE7A168204A35
:1026F000CA63A2681F491164A2681F49D164216896
:102700000A6842F480520A6020B12268042804D08A
:10271000103203E02268083200E00C3220680168C1
:1027200041F400510160A06809E02268143200E021
:1027300018322068016841F000510160E0683946B4
:1027400001F092F80021617120B1216941F004018A
:102750002161C7E7216805F010030A689E403243F3
:102760000A60BFE7E7150008311600080F160008D9
:10277000D715000827160008F715000870B50400E3
:102780001FD022680125002901F010004FF480536A
:10279000116803FA00F321EA0301116005FA00F35E
:1027A0002068016821EA030101600CD0E06800F0B4
:1027B00013F82068016821F00051016025710020A4
:1027C00070BD012070BDA06800F006F820680168A7
:1027D00021F40051F1E700002DE9F84F044601F023
:1027E000B7FA00903CB194F83500022806D0802159
:1027F00061650020E4E00120BDE8F88FC74DC74EB9
:10280000C649183520683036DFF81483DFF8149392
:102810008842DFF814A3DFF814B32ED0A8422CD0DE
:10282000B0422AD0404528D0484526D0504524D033
:10283000584522D0BD4A183290421ED0BC4A904220
:102840001BD0BB4A1832904217D0B94A303290425E
:1028500013D0B74A483290420FD0B54A6032904206
:102860000BD0B34A7832904207D0B14A90329042AE
:1028700003D0AF4AA832904209D1026822F01E026A
:1028800002602068426922F08002426103E002682F
:1028900022F00E02026027688F4238464DD0A842CF
:1028A0004BD0B04249D0404547D0484545D050452F
:1028B00043D0584541D09D4A183290423DD09C4A61
:1028C00090423AD09A4A1832904236D0984A3032E2
:1028D000904232D0964A483290422ED0944A60328A
:1028E00090422AD0924A7832904226D0904A903232
:1028F000904222D08E4AA83290421ED08D4A9042F9
:102900001BD08C4A1432904217D08A4A2832904207
:1029100013D0884A3C3290420FD0864A50329042BF
:102920000BD0844A6432904207D0824A7832904277
:1029300003D0804A8C32974204D1206E026822F480
:102940008072026075492068884228D0A84226D04B
:10295000B04224D0404522D0484520D050451ED01A
:1029600058451CD071491831884218D070498842A6
:1029700015D06F491831884211D06D4930318842E5
:102980000DD06B494831884209D06949603188428D
:1029900005D067497831884201D065499031016896
:1029A00021F0010101600EE001F0D2F90099401A16
:1029B000052808D9202262650321002084F83510FB
:1029C00084F8340017E73868C007EDD1534A012175
:1029D000206890422ED0A8422CD0B0422AD0404548
:1029E00028D0484526D0504524D0584522D04F4BBA
:1029F000183398421ED04E4B98421BD04C4B183384
:102A0000984217D04A4B3033984213D0484B483342
:102A100098420FD0464B603398420BD0444B7833EA
:102A2000984207D0424B9033984203D0404BA83392
:102A3000984208D194F85C703F23A06D07F01F07FF
:102A4000BB40836007E094F85C30A06D03F01F0387
:102A500001FA03F34360206890424DD0A8424BD066
:102A6000B04249D0404547D0484545D0504543D075
:102A7000584541D02D4A183290423DD02C4A9042C0
:102A80003AD02B4A1832904236D0294A30329042FE
:102A900032D0274A483290422ED0254A60329042A6
:102AA0002AD0234A7832904226D0214A903290424E
:102AB00022D01F4AA83290421ED01E4A90421BD0FC
:102AC0001C4A1432904217D01A4A2832904213D02E
:102AD000184A3C3290420FD0164A503290420BD0E6
:102AE000144A6432904207D0124A7832904203D09E
:102AF000104A8C3290420BD1D4E919024260E06E48
:102B000030B1026822F480720260D4E91C02426093
:102B1000002084F8351084F834006DE6100002407F
:102B2000580002407000024088000240A0000240AD
:102B300010040240085402582DE9F05F28B190F8C3
:102B40003510022904D0802141650120BDE8F09FA5
:102B5000904C904B0168183C18338E4ADFF83C9239
:102B6000A1428D4CDFF838E28E4FDFF83CB2DFF83F
:102B70003CA28F4D8F4E31D091422FD099422DD013
:102B8000A1422BD0494529D0714527D0B94225D043
:102B9000DFF810C20CF1180C61451FD0DFF808C235
:102BA000ACF1600C614519D0DFF8FCC1ACF1480C08
:102BB000614513D0DFF8F0C1ACF1300C61450DD0A8
:102BC000DFF8E4C1ACF1180C614507D0594505D0D8
:102BD000514503D0A94201D0B1422CD1DFF8B4C194
:102BE0004FF0040880F83580ACF1180C61451DD019
:102BF00091421BD0994219D0A14217D0494515D016
:102C0000714513D0B94211D06648183081420DD0B9
:102C100065486038814209D063484838814205D010
:102C200061483038814201D05F481838086820F088
:102C300001000860ABE0D1F800C02CF00E08DFF80E
:102C400054C1C1F80080ACF1180C0168614527D06F
:102C5000914225D0994223D0A14221D049451FD08D
:102C600071451DD0B9421BD0DFF838C10CF1180CEA
:102C7000614515D0DFF830C1ACF1600C61450FD073
:102C8000DFF824C1ACF1480C614509D0DFF818C168
:102C9000ACF1300C614503D0DFF80CC1ACF1180C7D
:102CA000D1F800C02CF0010CC1F800C0DFF8E480BE
:102CB0004FF0010C0168A8F11808414546D0914237
:102CC00044D0994242D0A14240D049453ED07145BE
:102CD0003CD0B9423AD0334A1832914236D0324AC7
:102CE000603A914232D0304A483A91422ED02E4A30
:102CF000303A91422AD02C4A183A914226D059456E
:102D000024D0514522D0A94220D0B1421ED02A4A17
:102D100091421BD0284A1432914217D0264A2832B9
:102D2000914213D0244A3C3291420FD0224A503271
:102D300091420BD0204A6432914207D01E4A783229
:102D4000914203D01C4A8C32914218D1016E0A681C
:102D500022F480720A6090F85C20816D02F01F02FC
:102D60000CFA02F24A60D0E919124A60C16E31B120
:102D70000A6822F480720A60D0E91C124A600022BC
:102D8000016D80F835C080F8342001B188470020FB
:102D9000DCE60000280002405800024070000240BB
:102DA00088000240A00002407004024088040240F3
:102DB000A0040240B8040240085402582DE9FC5F08
:102DC0000446F74E0020DFF8D88300904FF41652E7
:102DD000F44808F11808A56DDFF8C493DFF8C0A324
:102DE000016809F1300920680AF1480AB1FBF2F1E3
:102DF000B04201912F68D5F800C0DFF8ACB335D0F0
:102E00004146884232D0484530D050452ED05845B2
:102E10002CD0E5491831884228D0E3493031884226
:102E200024D0E1494831884220D0E04988421DD071
:102E3000DE491831884219D0DC493031884215D03A
:102E4000DA494831884211D0DFF860E30EF1600EB4
:102E500070450BD0D54A7832904207D0D34B90338F
:102E6000984203D0D149A83188427DD194F85C20A2
:102E7000082102F01F0201FA02F23A424AD0B0429F
:102E800032D0404530D048452ED050452CD0584502
:102E90002AD0C54A1832904226D0C34A30329042D6
:102EA00022D0C14A483290421ED0C04A90421BD024
:102EB000BE4A1832904217D0BC4A3032904213D0EA
:102EC000BA4A483290420FD0B84A603290420BD092
:102ED000B64A7832904207D0B44A9032904203D03A
:102EE000B24AA832904203D1026802F0040202E022
:102EF000026802F008026AB1026822F0040202606D
:102F000094F85C0000F01F008140A960606D40F003
:102F10000100606594F85C00012100F01F00814011
:102F2000394240D02068B04234D0404532D0484584
:102F300030D050452ED058452CD09B4A1832904264
:102F400028D0994A3032904224D0974A4832904251
:102F500020D0964A90421DD0944A1832904219D0FF
:102F6000924A3032904200E0AFE113D08F4A4832AB
:102F700090420FD08D4A603290420BD08B4A78320B
:102F8000904207D0894A9032904203D0874AA832B3
:102F900090427DD1406910F0800F04D0A960606D2F
:102FA00040F00200606594F85C00042100F01F000E
:102FB000814039423ED02068B04232D0404530D0C6
:102FC00048452ED050452CD058452AD0764A183244
:102FD000904226D0744A3032904222D0724A48320F
:102FE00090421ED0714A90421BD0704A18329042D3
:102FF00017D06E4A3032904213D06C4A4832904219
:103000000FD06A4A603290420BD0684A78329042C0
:1030100007D0664A9032904203D0644AA832904268
:103020004ED1006810F0020F04D0A960606D40F02E
:103030000400606594F85C00102100F01F008140DE
:10304000394258D02068B04234D0404532D048454B
:1030500030D050452ED058452CD0534A183290428B
:1030600028D0514A3032904224D04F4A48329042C0
:1030700020D04E4A90421DD04C4A1832904219D06E
:103080004A4A3032904215D0484A4832904200E0D5
:1030900014E00FD0454A603290420BD0434A783258
:1030A000904207D0414A9032904203D03F4AA83222
:1030B000904207D1006800F0080006E0006872E75F
:1030C0000068B7E7006800F00400A0B1A9602068BC
:1030D0000168490304D50068000308D5A16C07E026
:1030E0000168C90503D4016821F008010160216C61
:1030F00009B12046884794F85C00202100F01F00A9
:103100008140394279D02068B04232D0404530D039
:1031100048452ED050452CD058452AD0224A183246
:10312000904226D0204A3032904222D01E4A483265
:1031300090421ED01D4A90421BD01C4A1832904229
:1031400017D01A4A3032904213D0184A483290426F
:103150000FD0164A603290420BD0144A7832904217
:1031600007D0124A9032904203D0104AA8329042BF
:1031700003D1006800F0100002E0006800F00200D7
:10318000B0B3A96094F835000428206801680FD016
:1031900049037ED5006800032BD4616C2AE000004F
:1031A0001000024020000024700002401004024081
:1031B00021F0160101602068416921F08001416120
:1031C000206C08B9A06C20B12068016821F00801CA
:1031D000016094F85C303F21012003F01F030022BE
:1031E0009940A96084F8350084F83420216D65E0A9
:1031F00003E0E16B09B120468847606D00287DD06F
:10320000606DC00759D02068042184F83510B042A1
:103210002BD0404529D0484527D0504525D058458A
:1032200023D09D49884220D09B49183188421CD028
:1032300099493031884218D09849884215D0974929
:103240001831884211D09549303188420DD09349C8
:103250004831884209D091496031884205D08F4970
:103260007831884201D08D499031016821F0010107
:10327000016020680099019A491C0091914202D88E
:103280000168C907F6D10068C00710D003200FE01D
:10329000FFE70168C905ACD403680121002223F0CF
:1032A0001003036084F8351084F83420A1E701206E
:1032B00084F83500002084F83400E16C00291DD02A
:1032C00002B02046BDE8F05F0847754988421DD02E
:1032D00073491431884219D071492831884215D078
:1032E0006F493C31884211D06D49503188420DD030
:1032F0006B496431884209D0694900E084E0783143
:10330000884203D066498C3188427DD194F85C8034
:103310000427016808F01F0807FA08F717EA0C0FDE
:10332000009746D04F0744D500980F04686003D536
:10333000C8033CD4A16CC1E7880638D42068B042E9
:103340002DD055496039884229D0484527D050456D
:1033500025D0584523D05049884220D04E491831B5
:1033600088421CD04C493031884218D04B498842A1
:1033700015D04A491831884211D048493031884225
:103380000DD046494831884209D0704507D0904257
:1033900005D0984203D04149A831884203D1016841
:1033A00021F0080102E0016821F004010160216CB4
:1033B00084E7022707FA08F717EA0C0F00974ED0A8
:1033C0008F074CD500980F04686003D5C80344D418
:1033D000616C73E7880640D42068B0422FD02E4934
:1033E000603988422BD0484529D0504527D05845D0
:1033F00025D02949884222D02749183188421ED039
:1034000025493031884200E044E018D02349884201
:1034100015D022491831884211D0204930318842D4
:103420000DD01E494831884209D0704507D09042DE
:1034300005D0984203D01949A831884203D10168C8
:1034400021F0140102E0016821F00A01016001216C
:1034500084F83510002084F83400E16B2EE7082250
:1034600002FA08F212EA0C0F14D0090712D501680B
:1034700021F00E01016094F85C100120002201F09F
:103480001F0100FA01F16960606584F8350084F875
:10349000342012E7BDE8FC9F88000240100402407F
:1034A000085402582DE9F05F044600F051FC002C4E
:1034B00007467DD0E34E022120684FF00308DFF875
:1034C00088934FF00005DFF884A3B042DFF880B3A3
:1034D00034D0DC4A1832904230D048452ED0504586
:1034E0002CD058452AD0DA4A1832904226D0D84AF1
:1034F0003032904222D0D64A483290421ED0D54A2D
:1035000090421BD0D34A1832904217D0D14A303261
:10351000904213D0CF4A483290420FD0CD4A603209
:1035200090420BD0CB4A7832904207D0C94A9032B1
:10353000904203D0C74AA83290427DD184F835101A
:10354000B04284F834502ED0BE49183188422AD077
:10355000484528D0504526D0584524D0BC4918317C
:10356000884220D0BA49303188421CD0B84948310D
:10357000884218D0B749884215D0B64918318842D8
:1035800011D0B449303188420DD0B2494831884217
:1035900009D0B0496031884205D0AE4978318842BF
:1035A00001D0AC499031016821F00101016008E0CF
:1035B00027E100BF00F0CCFBC01B052801D920216A
:1035C0001CE120680068C007F4D104F108002168FC
:1035D000D4E9053C8E4685C809681043D4E907281C
:1035E0001F43636A38439C4F40EA0C001043394044
:1035F00040EA0800042B40EA010003D1D4E90B1291
:1036000011430843954909686FF30F01B1F1005F59
:103610000FD36168A1F12902052A08D9163A032AB5
:1036200005D9083A012A02D94F39032901D840F4B3
:103630008010CEF8000000E023E02068676A40694F
:10364000042F20F0070047EA00070DD1D4E90A0152
:10365000074349B12046FEF7A7F928B1402060652D
:10366000012184F83510CCE0206847612046FEF740
:10367000B9F894F85C203F2102F01F02914081606C
:1036800054E0774A90421BD0754B1433984217D0C0
:10369000734B2833984213D0714B3C3398420FD070
:1036A0006F4B503398420BD06D4B6433984207D028
:1036B0006B4B7833984203D0694B8C3398427DD161
:1036C00084F8351084F83450664B0168A26801EA2A
:1036D000030E402A73D0802A72D00022D4E90378E6
:1036E000D4E9053142EAD70242EAD8085C4AD4E973
:1036F000077C48EAD30848EAD10141EAD70152429F
:1037000041EA1C11142341EA0E01016020681044B3
:10371000B0FBF3F08000E0652046FEF763F894F814
:103720005C20012102F01F02914041602068B042FC
:1037300057D044491831884253D0484551D050455C
:103740004FD058454DD042491831884249D0404960
:103750003031884245D03E494831884241D03D49C8
:1037600088423ED03B49183188423AD039493031FD
:10377000884236D037494831884232D035496031A5
:1037800088422ED03349783188422AD0314990314D
:10379000884226D02F49A831884222D03049884219
:1037A0001FD02F49143188421BD02D49283188421F
:1037B00017D02B493C31884213D002E01DE017E0BE
:1037C00018E02749503188420BD02549643188429E
:1037D00007D023497831884203D021498C3188426F
:1037E00029D12046FEF758F8A06880280CD00CE0BC
:1037F000102273E74FF4804270E74021616584F83E
:1038000035800120BDE8F09F6560216E2079086059
:10381000D4E9190141606068401E072808D8204695
:10382000FEF788F8E06E0560D4E91C01416002E013
:10383000E566256765670120656584F83500002029
:10384000E0E7000010000240400002405800024043
:1038500070000240100402403F8010FE0010005C27
:10386000085402580F00FEFF2DE9F84F04008C4663
:103870004FF00000009014D094F83400012812D0CA
:1038800094F835500120002184F83400012D0CD02B
:10389000C00260650120009084F834100098BDE8F3
:1038A000F88F0120FBE70220F9E78C4D0226206803
:1038B00084F83560A8428A4D61658A4E8A4FDFF8E8
:1038C0002C82DFF82C92DFF82CA2DFF82CB226D065
:1038D000A84224D0B04222D0B84220D040451ED0C9
:1038E00048451CD050451AD0584518D083498842C5
:1038F00015D082491831884211D080493031884230
:103900000DD07E494831884209D07C4960318842D7
:1039100005D07A497831884201D0784990310168E0
:1039200021F00101016061462046FEF767F86B490E
:10393000206888422CD0A8422AD0B04228D0B84271
:1039400026D0404524D0484522D0504520D0584567
:103950001ED06A4A90421BD0684A1832904217D053
:10396000664A3032904213D0644A483290420FD0B7
:10397000624A603290420BD0604A7832904207D05F
:103980005E4A9032904203D05C4AA83290420CD1F9
:10399000026822F01E0242F016020260206C88B11A
:1039A0002068026842F008020BE0026822F00E0272
:1039B00042F00A020260206C20B12068026842F0E6
:1039C00004020260206888424BD0A84249D0B0422D
:1039D00047D0B84245D0404543D0484541D05045F6
:1039E0003FD058453DD0454A90423AD0434A1832DC
:1039F000904236D0414A3032904232D03F4A48322B
:103A000090422ED03D4A603290422AD03B4A7832D2
:103A1000904226D0394A9032904222D0374AA8327A
:103A200090421ED0364A90421BD0354A1432904202
:103A300017D0334A2832904213D0314A3C32904258
:103A40000FD02F4A503290420BD02D4A6432904210
:103A500007D02B4A7832904203D0294A8C329042C8
:103A60000DD1206E0268D20303D5026842F4807241
:103A70000260E06E18B1026842F480720260206851
:103A8000884226D0A84224D0B04222D0B84220D0CA
:103A900040451ED048451CD050451AD0584518D036
:103AA0001649884215D015491831884211D013495A
:103AB000303188420DD011494831884209D00F4930
:103AC0006031884205D00D497831884201D00B49D8
:103AD0009031016841F001010160DFE61000024011
:103AE000280002404000024058000240700002409E
:103AF00088000240A0000240B800024010040240CA
:103B0000085402582DE9F84F03247D4D00234FF04F
:103B100001094FF0B04B4FF00F0AE9E009FA03F743
:103B20003A4076D00E7906F00306012E01D0022E1F
:103B300018D1D0F808C04FEA430ECE6804FA0EF848
:103B40002CEA080C06FA0EF646EA0C068660D0F857
:103B500004C00E792CEA070CC6F300169E4046EA14
:103B60000C0646600E79F643B6070BD0C6684FEADE
:103B700043088F6804FA08FC26EA0C0607FA08F7DF
:103B80003743C7600E7906F00306022E12D1DE0815
:103B90000F694FEA437C00EB8606B646366A4FEA69
:103BA000DC6C0AFA0CF807FA0CF726EA0806374329
:103BB000CEF820700F7906684FEA430807F0030734
:103BC00004FA08FC07FA08F726EA0C0637430760F0
:103BD0004E6816F4403F1CD04A4E376847F0020743
:103BE000376036689F0706F00206009623F003064A
:103BF00006F1B046B6463F0FD6F80864DFF80881F4
:103C00000AFA07FC404526EA0C0603D14FF0000CE7
:103C100041E06CE0DFF8F4C0604502D14FF0010CE8
:103C200039E0DFF8ECC0604502D14FF0020C32E021
:103C3000DFF8E0C0604502D14FF0030C2BE0DFF865
:103C4000D8C0604502D14FF0040C24E0DFF8CCC0AE
:103C5000604502D14FF0050C1DE0DFF8C4C060459F
:103C600002D14FF0060C16E0DFF8B8C0604502D173
:103C70004FF0070C0FE0DFF8B0C0604502D14FF005
:103C8000080C08E0DFF8A4C0604502D14FF0090C31
:103C900001E04FF00A0C0CFA07FC4CEA060CCEF8D7
:103CA00008C44F68DBF80060FF0226EA020600D570
:103CB00016435F46CBF80060D1F804C0DBF804601F
:103CC0005FEA8C2C26EA020600D516437E606E68F9
:103CD0004F6826EA0206BF0300D516436E602E68C1
:103CE0004F6826EA0206FF0300D516432E605B1CD0
:103CF0000A6832FA03F67FF411AFBDE8F88F0000CE
:103D000080000058F4440258000002580004025891
:103D100000080258000C0258001002580014025803
:103D200000180258001C02580020025800240258B3
:103D30000069084000D0012070470AB181617047D6
:103D40000904FBE701480068000C70470010005CA4
:103D500001488068704700001400002430B590F8D6
:103D60004120202A24D190F84020012A20D001238C
:103D700080F84030242280F841202023002402686B
:103D8000156825F0010515600268156825F4805551
:103D90001560026815680D43156001680A6842F0F5
:103DA00001020A6080F8413080F84040002030BDB8
:103DB000022030BD30B590F84120202A22D190F861
:103DC0004020012A1ED0012380F84030242280F8B0
:103DD0004120202400250268136823F001031360AA
:103DE0000268136823F4706343EA012111600168DB
:103DF0000A6842F001020A6080F8414080F84050B1
:103E0000002030BD022030BD70B5040004D094F80D
:103E10004100002510B106E0012070BD204684F865
:103E2000405000F051F8242084F8410020680168D7
:103E300021F001010160D4E9001020F070600861F8
:103E40002068816821F400418160E06821680128D0
:103E5000A06830D040F404408860E0680228206800
:103E600041682BD021F40061416020682021154A6F
:103E70004368134343602068C26822F40042C26072
:103E800054F8106B0DCC104340EA0320F06054F856
:103E90001C3CD4E900021043186054F81C0D026861
:103EA00042F001020260656484F84110256384F8E1
:103EB0004250002070BD40F40040CDE741F4006165
:103EC000D2E700000080000210B5B6B0044614210D
:103ED00030A8FCF7B9FAC0216846FCF7B5FA1849D2
:103EE000206888422AD10020219008210446CDE98B
:103EF0000010684600F0CAFC08B1FDF790FE1148BA
:103F0000016841F002010160006830AB122100F04D
:103F100002003590C020042283E813000A4830A92B
:103F2000CDE93342FFF7EEFD06480830016841F461
:103F300000110160006800F40010359036B010BD2B
:103F400000540040E04402580004025802488168CE
:103F5000027811448160704714000024032010B5DA
:103F600000F0FAF801F00AFB0F4A104914681368D0
:103F7000C4F3032203F00F038A5CC95C02F01F0242
:103F800001F01F01D0400A4A20FA01F111600949ED
:103F900008600F2000F010F808B1012010BD00F0FB
:103FA0009BF8002010BD000018440258B8C000085B
:103FB000240000242000002410B5102804468AB0F4
:103FC0002AD200220146192000F0A6F8192000F09C
:103FD00095F8154804601548016841F00101016039
:103FE000006808A900F001000990684601F052FA43
:103FF00001F0B2FA0E49400000220E4CB0FBF1F184
:104000000D4840F2E7330460C0E90332491EC0E9BD
:10401000011201F087FF10B101200AB010BD06485F
:1040200002F012F8F9E7000018000024F0440258EA
:1040300040420F0000000140AC050024154BF0B5D4
:10404000083B427813491A600B680A1F23F00103EA
:104050000B6043681360057BC67A827A437B2D0729
:10406000847B45EA0665C77B90F809C0067A90F81C
:1040700000E045EAC24040EA834040EA444040EA6A
:10408000074040EA0C2040EA460040EA0E00086083
:10409000F0BD0000A0ED00E0BFF35F8F04480021F9
:1040A0000368034A23F48033036070321160704761
:1040B00024ED00E0074A40F001000649703210602C
:1040C000086840F480300860BFF34F8FBFF36F8FF4
:1040D0007047000024ED00E0074882B0016841F01D
:1040E00002010160006800220F2100F00200009030
:1040F000901E02B000F010B8F4440258002809DB0A
:10410000410900F01F028900012001F1E0219040E7
:10411000C1F80001704700000E4BF0B41B680D465B
:10412000C3F30223C3F10706042E00D90426191D88
:10413000072901D2002300E0DB1E012404FA06F166
:104140009C40491E2940641E994014402143F0BC04
:1041500004F0B2B90CED00E0064900F0070210B51A
:104160004FF6FF040868044B204040EA0220184341
:10417000086010BD0CED00E00000FA05134970B5B1
:104180000A68D243520705D5096801F00701814248
:1041900013D118E00A6822F0070202430A60FFF711
:1041A000D7FD0A4D4FF47A760446083D07E000BF7C
:1041B000FFF7CEFD001BB04201D9012070BD286879
:1041C000C0438004F4D4002070BD00000C480258A5
:1041D00010B501F08DF905490968054AC1F30211CE
:1041E000515C01F01F01C84010BD0000204402587E
:1041F000B8C000084A4930B5494C0B1D0A680C3458
:1042000009681D68246802F0030305F00102C1F388
:104210000511C4F3CC04002914FB02F200EE102AAD
:10422000F8EE400A76D0414A9FED3E1ADFED3E1A85
:10423000B7EE000A23B1012B5AD0022B18D15CE053
:10424000374C283C23689B0612D5394B246801EE75
:10425000901A1168C4F3C104F8EE612AE34001EE3C
:10426000903AC1F30801F8EE611A81EEA22A07E044
:1042700002EE101A1168F8EE422A81EEA22A45E0F9
:1042800001EE901A1168F8EE611A40EE811A71EE93
:10429000800A62EE200AC1F3462101EE101AB8EE40
:1042A000411A31EE001AC0EE811ABCEEE11A80ED1F
:1042B000001A1168C1F3064101EE101AB8EE411A56
:1042C00031EE001AC0EE811ABCEEE11A80ED011A3F
:1042D0001168C1F3066101EE101AB8EE411A31EE11
:1042E000000A80EE801ABCEEC10A80ED020A30BDE1
:1042F00001EE901ADFED0F2A03E001EE901ADFEDD8
:104300000E2A1168F8EE611A82EEA12AC1F30801A3
:10431000B6E7FFE7002101604160816030BD000029
:1043200028440258000000390024744C30440258DC
:104330000090D0030024744A20BCBE4B494930B5DC
:10434000484C0B1D0A68143409681D68246802F083
:104350000303C5F30012C1F30531C4F3CC040029F3
:1043600014FB02F200EE102AF8EE400A75D03F4A24
:104370009FED3D1AB7EE000A6BB1DFED3D1A012B40
:1043800001D0022B64D002EE101A1168F8EE422A16
:1043900081EEA22A21E0334C283C23689B0612D5EB
:1043A000344B246801EE901A1168C4F3C104F8EE8E
:1043B000612AE34001EE903AC1F30801F8EE611A78
:1043C00081EEA22A0BE001EE901ADFED2B2A00BF4E
:1043D000F8EE611A116882EEA12AC1F3080101EE1C
:1043E000901A1168F8EE611A40EE811A71EE800A97
:1043F00062EE200AC1F3462101EE101AB8EE411A0E
:1044000031EE001AC0EE811ABCEEE11A80ED001AFE
:104410001168C1F3064101EE101AB8EE411A31EEEF
:10442000001AC0EE811ABCEEE11A80ED011A116883
:10443000C1F3066101EE101AB8EE411A31EE000A1E
:1044400080EE801ABCEEC10A80ED020A30BD04E0A5
:1044500001EE901ADFED092ABAE700210160416000
:104460008160F3E7284402580000003938440258BC
:104470000024744A0090D0030024744C20BCBE4B2E
:10448000494930B5484C0B1D0A681C3409681D6841
:10449000246802F00303C5F30022C1F30551C4F3FD
:1044A000CC04002914FB02F200EE102AF8EE400AB8
:1044B00075D03F4A9FED3D1AB7EE000A6BB1DFEDB4
:1044C0003D1A012B01D0022B64D002EE101A1168A4
:1044D000F8EE422A81EEA22A21E0334C283C2368E0
:1044E0009B0612D5344B246801EE901A1168C4F370
:1044F000C104F8EE612AE34001EE903AC1F30801ED
:10450000F8EE611A81EEA22A0BE001EE901ADFEDBF
:104510002B2A00BFF8EE611A116882EEA12AC1F3BE
:10452000080101EE901A1168F8EE611A40EE811A46
:1045300071EE800A62EE200AC1F3462101EE101AE4
:10454000B8EE411A31EE001AC0EE811ABCEEE11A43
:1045500080ED001A1168C1F3064101EE101AB8EEA1
:10456000411A31EE001AC0EE811ABCEEE11A80ED5C
:10457000011A1168C1F3066101EE101AB8EE411A72
:1045800031EE000A80EE801ABCEEC10A80ED020A0C
:1045900030BD04E001EE901ADFED092ABAE70021F0
:1045A000016041608160F3E728440258000000394F
:1045B000404402580024744A0090D0030024744CF4
:1045C00020BCBE4B2DE9F04FAC4A0546DFF8A8A24F
:1045D00080F48070DFF8AC9289B01311AA4C0843C4
:1045E000A748AAF104064FF0805C4FF000582CD089
:1045F00085F400770F4357D0DFF87CB285F48067ED
:104600000F430BF1080B61D085F400670F4374D0A2
:1046100085F480570F436ED085F400570F434FF455
:1046200080394FF4003E67D085F400270F4371D0E6
:1046300085F480370F436ED085F480460E436BD0EF
:1046400085F400420A4368D02AE0DAF8001001F04D
:104650000701052924D2DFE801F075BC7D25B100F2
:1046600006A8FFF7C7FD079809B0BDE8F08F6846B8
:10467000FFF764FE0098F7E703A8FFF701FF039830
:10468000F2E72068C0F3C10022FA00F0ECE72268EC
:10469000D20571D561456FD11846E5E74145E3D0B4
:1046A0000020E1E74846DFE7DAF8001001F4E071A6
:1046B00080294FD004DC002944D04029F0D188E083
:1046C000C029EFD0B1F5807FEAD177E0DBF80010A8
:1046D00001F46001B1F5800F3CD004DC91B3B1F579
:1046E000001FDDD175E0B1F5C00FDBD0B1F5000FD3
:1046F000D6D163E001E018E030E0DBF8001001F013
:10470000E061B1F1007F25D008DCD9B1B1F1807F43
:10471000C6D15EE049E06CE079E09CE0B1F1407F19
:10472000C0D0B1F1806FBBD148E0DAF8001001F4DD
:10473000E041B1F5005F0DD005DC19B1B1F5805F46
:10474000AED146E094E0B1F5405FABD0B1F5804F1B
:10475000A6D133E020688000A2D58DE7DAF80010FA
:1047600001F4E021B1F5403F6CD006DC61B1494570
:104770007AD0714594D157E037E0B1F5802F65D0FC
:10478000B1F5A02F8CD10CE000F0D4FE6CE76846A8
:10479000FFF7D4FD019867E703A8FFF771FE0498BF
:1047A00062E721688903F1D47AE7DBF8001011F49D
:1047B00040310ED0494510D07145F5D1316825689A
:1047C00001F040516D077FF562AF00297FF45FAFC4
:1047D00057E720680001E7D549E720688000E3D566
:1047E00003A8FFF74DFE05983EE722689203DBD54C
:1047F00054E7306810F480303AD04845D4D120686E
:104800000001D1D56846FFF799FD02982CE7DBF847
:10481000001001F0E041B1F1405F13D008DC71B14C
:10482000614521D04145BFD120688000B4D437E72D
:10483000B1F1804F0AD0B1F1A04FB2D030E7FFF70D
:10484000C7FC11E720684007AED51AE72068C0050D
:10485000AAD521E708E0DAF8001011F04051A0D005
:10486000614505D041459FD1206800018FD417E7ED
:104870002068800198D5F3E6504402580090D00398
:1048800040787D010080BB00004402582DE9FE4FB6
:104890000546DFF8E48350F8081B0024F64FC943AF
:1048A000019005F12800264608F12408009008012F
:1048B0001DD4A86E50B1B0F5801F0CD0B0F5001F0C
:1048C0000ED0B0F5401F1ED001240FE0386840F430
:1048D0000030386017E00198022102F04BFC03E041
:1048E0000098022102F0D6FC04000CD0264628884D
:1048F000C043C00523D4A86D05281ED2DFE800F010
:104900000C11161B1B00AA6ED8F8001021F44011E0
:104910001143C8F80010EAE7386840F40030386006
:1049200009E00198002102F025FC03E00098002135
:1049300002F0B0FC044674B100E001242646288849
:10494000C043800528D4E86D80281ED00CDC90B1CF
:1049500040280ED114E0AA6DD8F8001021F007010C
:104960001143C8F80010EAE7C02813D0B0F5807FE3
:1049700010D001240FE0386840F40030386009E0BE
:104980000198002102F0F6FB03E00098002102F0FC
:1049900081FC04469CB126462888DFF8DC92C0439F
:1049A00009F12C0940052CD4D5F8A800B0F5800FEA
:1049B00020D00DDCA0B1B0F5001F0FD115E0EA6DDD
:1049C000D8F8001021F4E0711143C8F80010E3E7B3
:1049D000B0F5C00F13D0B0F5000F10D001240FE0D8
:1049E000386840F40030386009E00198002102F096
:1049F000C1FB03E00098002102F04CFC04467CB1AE
:104A000026462888C04300052DD4D5F8AC00B0F167
:104A1000007F21D00EDCA8B1B0F1807F10D116E06C
:104A2000D5F8A820D9F8001021F460011143C9F885
:104A30000010E6E7B0F1407F13D0B0F1806F10D0E6
:104A400001240FE0386840F40030386009E0019834
:104A5000002102F08FFB03E00098002102F01AFC15
:104A6000044674B126462868C04380011FD4E86C10
:104A7000D8B110280FD0202812D0302815D001240A
:104A800014E0D5F8AC20D9F8001021F0E061114312
:104A9000C9F80010E7E7386840F40030386004E0F7
:104AA0000198022102F066FB044674B1264628886C
:104AB000C043C0042BD4286EB0F5005F20D00DDCBD
:104AC000A0B1B0F5805F0FD115E06B48EA6C2030E3
:104AD000016821F0300111430160E8E7B0F5405F63
:104AE00013D0B0F5804F10D001240FE0386840F4A7
:104AF0000030386009E00198002102F03BFB03E040
:104B00000098002102F0C6FB04468CB12646288896
:104B1000C043800429D4686EB0F5403F23D010DC38
:104B200008B3B0F5803F14D0B0F5003F0FD115E0C9
:104B30002A6ED8F8001021F4E0411143C8F80010A3
:104B4000E5E7B0F5802F0ED0B0F5A02F0BD00124F3
:104B50000AE00198012102F00DFB03E00098012119
:104B600002F098FB044694B126462888C0434004CE
:104B70002AD4D5F8B000B0F1405F23D010DC08B3E0
:104B8000B0F1805F14D0B0F1005F0FD115E06A6E14
:104B9000D8F8001021F4E0211143C8F80010E4E730
:104BA000B0F1804F0ED0B0F1A04F0BD001240AE03D
:104BB0000198012102F0DEFA03E00098012102F0E1
:104BC00069FB044674B126462888C04300041FD4FC
:104BD000286FD8B1B0F1805F0ED0B0F1005F10D077
:104BE000012414E0D5F8B020D9F8001021F0E041FC
:104BF0001143C9F80010E7E7386840F40030386026
:104C000004E00198012102F0B5FA044674B1264689
:104C10002868C043C0011ED4A86CD0B101280ED0B2
:104C2000022811D0032814D0012413E02A6FD8F8E9
:104C3000001021F040511143C8F80010E8E738682F
:104C400040F40030386004E00198022102F092FA4A
:104C50000446ACB126462868DFF81CB0C043ABF16F
:104C60001C0B400252D40548016841F48071016078
:104C7000FFF76EF8824611E02C44025800480258B3
:104C8000FA48AA6C016821F0030111430160E2E7D0
:104C9000FFF75EF8A0EB0A00642835D8F4480068F6
:104CA000C005F5D58CBBDFF8C4A3B5F8B4100AF184
:104CB000240ADAF8000001F4407100F440708842E0
:104CC00011D0DAF80010DAF8002021F4407142F433
:104CD0008032CAF80020DAF8002022F48032CAF8C4
:104CE0000020CAF80010D5F8B400B0F5807F1AD1C2
:104CF000FFF72EF8029012E0FFF72AF80299411A06
:104D000041F2883081420AD9032426462878DFF808
:104D10005CA3C0430AF1080AC00721D03CE0DAF8DE
:104D200000008007E8D5D5F8B410C1F301200328AE
:104D300058460DD0016821F47C510160B5F8B420CB
:104D4000DAF80010C2F30B021143CAF80010DDE7D5
:104D5000C84A036802EA111223F47C511143ECE7BC
:104D6000E86F182816D005DCA0B1082808D0102854
:104D700004D10AE020280DD028280BD001240AE015
:104D80000198012102F0F6F903E00098012102F0F8
:104D900081FA044664B126462878C04380071ED4B1
:104DA000A86F062819D2DFE800F0160C11161616A7
:104DB000EA6FDAF8001021F038011143CAF8001048
:104DC000EAE70198012102F0D5F903E000980121FA
:104DD00002F060FA04467CB100E0012426462878FF
:104DE000C04340071FD4D5F89400062819D2DFE845
:104DF00000F0160C11161616AA6FDAF8001021F042
:104E000007011143CAF80010E9E70198012102F0F7
:104E1000B1F903E00098012102F03CFA0446A4B184
:104E200000E0012426462878C04380062BD4D5F81C
:104E30009000B0F1405F24D011DC10B3B0F1805F7E
:104E400015D0B0F1005F10D116E0D5F89420D9F854
:104E5000001021F007011143C9F80010E3E7B0F199
:104E6000804F0ED0B0F1A04F0BD001240AE0019882
:104E7000002102F07FF903E00098022102F00AFA13
:104E8000044694B126462878C04340062BD4D5F872
:104E90009C00B0F5406F24D011DC10B3B0F5806FEA
:104EA00015D0B0F5006F10D116E0D5F89020DAF8E3
:104EB000001021F0E0411143CAF80010E3E7B0F51B
:104EC000805F0ED0B0F5A05F0BD001240AE00198FE
:104ED000002102F04FF903E00098022102F0DAF914
:104EE000044694B126462878C04300062BD4D5F852
:104EF000A000B0F5C04F24D011DC10B3B0F5005FB6
:104F000015D0B0F5804F10D116E0D5F89C20D9F817
:104F1000001021F4E0511143C9F80010E3E7B0F5A7
:104F2000004F0ED0B0F5204F0BD001240AE00198BD
:104F3000002102F01FF903E00098022102F0AAF913
:104F4000044654B126462878C04300071ED4D5F83D
:104F50008400B0F5805F0AD00FE0D5F8A020D9F822
:104F6000001021F460411143C9F80010EBE70098EC
:104F7000022102F08FF900B10126D5F88420DAF879
:104F8000001021F440511143CAF800102878C043A2
:104F9000C00613D4D5F89800B0F5807F05D10098ED
:104FA000022102F077F900B10126D5F89820D9F84E
:104FB000001021F440711143C9F800102868C04363
:104FC000000316D4D5F8A40038B1B0F5803F09D05D
:104FD000B0F5003F0BD001240AE00198002102F057
:104FE000C9F803E00098022102F054F904468CB19C
:104FF00026462868C043400322D4D5F88800B0F57F
:10500000801F11D0B0F5001F13D0B0F5401F15D090
:10501000012414E0D5F8A420D9F8001021F440317F
:105020001143C9F80010E4E7386840F400303860F4
:1050300004E00098012102F02DF904465CB12646F7
:105040002868C043C00323D4286DA8B1B0F5803FC1
:1050500017D001241BE0D5F88820DAF8001021F4DD
:1050600040111143CAF80010EAE700004C4402580E
:1050700000480258CFFFFF00386840F40030386025
:1050800004E00198022102F075F80446E4B12646D6
:105090002868C043800005D40098022102F0FAF885
:1050A00000B101262868C04380031BD4D5F88000D6
:1050B000B0B1B0F5807F0FD0B0F5007F10D0B0F563
:1050C000407F0DD001240CE05A482A6D016821F47C
:1050D000803111430160DBE7386840F4003038600C
:1050E000ECB326462868C043C00207D46A6FD8F8DC
:1050F000001021F000411143C8F800102868C04397
:10510000C00008D4D5F8B820DBF8001021F48041A5
:105110001143CBF800102868C043800207D4EA6E20
:10512000D8F8001021F080711143C8F800102868E9
:10513000C04340000CD4DBF8001021F40041CBF850
:105140000010DBF80010D5F8BC201143CBF800109C
:105150002868C04308D437486A6D016800E018E049
:1051600021F04051114301602868C043000208D477
:10517000D5F88C20DAF8001021F440011143CAF868
:10518000001028790024C04300F0010020430AD019
:105190000FE0D5F88020DAF8001021F440711143B7
:1051A000CAF800109EE70198002101F0E3FF00B16A
:1051B00006462879C04300F00200204305D101983B
:1051C000012101F0D7FF00B106462879C04300F065
:1051D0000400204305D10198022101F0CBFF00B16A
:1051E00006462879C04300F00800204305D1009806
:1051F000002102F04FF800B106462879C04300F0C4
:105200001000204305D10098012102F043F800B1BD
:1052100006462879C04300F02000044304D10098DA
:10522000022102F037F800B916B10120BDE8FE8F67
:105230000020FBE74C4402582DE9F05F04000F46C4
:105240007ED0DFF83882D8F8000000F00F00B842B6
:105250000CD2D8F8001021F00F013943C8F8001023
:10526000D8F8000000F00F00B84269D12078844DD2
:1052700040070AD52069296801F07001884204D9E5
:10528000296821F070010143296020787C4E361D89
:1052900000070AD56069316801F07001884204D9BD
:1052A000316821F07001014331602078C0060AD5D1
:1052B000A069316801F4E061884204D9316821F4C1
:1052C000E061014331602078DFF8B4B180060BF172
:1052D000080B0CD5E1695846DBF8002002F070029B
:1052E000914204D9026822F070020A4302602078D9
:1052F00080070AD5E068296801F00F01884204D9C7
:10530000296821F00F01014329602078C0073ED0B1
:105310005B49A2682868183920F47060104328603F
:105320006068022818D0032819D00968012819D00C
:10533000490700294ADADFF848A1AAF1080A00E083
:1053400044E0DAF8002022F007020243CAF8002005
:10535000FEF7FEFC814612E009688903E9E7096867
:105360008901E6E7C905E4E7FEF7F2FCA0EB0901D5
:1053700041F28830814202D90320BDE8F09F616884
:10538000DAF8000000F03800B0EBC10FECD1207863
:1053900080070AD5E068296801F00F01884204D22D
:1053A000296821F00F0101432960D8F80010404618
:1053B00001F00F01B9420BD9016821F00F01394307
:1053C0000160006800F00F00B84201D00120D4E76E
:1053D000207840070AD52069296801F070018842C9
:1053E00004D2296821F07001014329602078000768
:1053F0000AD56069316801F07001884204D23168D1
:1054000021F07001014331602078C0060AD5A069FF
:10541000316801F4E061884204D2316821F4E0612E
:1054200001433160207880060CD5E1695846DBF8ED
:10543000002002F07002914204D2026822F0700251
:105440000A43026000F09AF80E492A682B68C2F3FA
:10545000032203F00F038A5CC95C02F01F0201F013
:105460001F01D040084A20FA01F111600749086085
:1054700007480068BDE8F05FFEF79EBD00200052BF
:1054800018440258B8C0000824000024200000245A
:105490001800002470B5144C3F220260124A2468A0
:1054A0000832131D114D04F00704446016681C1DDA
:1054B00006F470668660166806F00F06C66012680D
:1054C00002F0700202611A6802F0700242611A680A
:1054D00002F4E0628261226802F07002C261286810
:1054E00000F00F00086070BD104402580020005208
:1054F00030B500F043F80B4A0B490C4B15681468A3
:10550000C5F3032204F00F048A5C095D02F01F0258
:1055100001F01F01D040064A20FA01F11960106025
:10552000084630BD18440258B8C0000824000024C2
:105530002000002400B5FFF7DBFF05490968054A94
:10554000C1F30211515C01F01F01C84000BD000011
:105550001C440258B8C0000800B5FFF7C9FF054950
:105560000968054AC1F30221515C01F01F01C840DE
:1055700000BD00001C440258B8C00008454970B581
:1055800045480968434B103B11F0380208D001111F
:10559000082A03D0102A0BD0182A0BD0084670BD59
:1055A00019688906FBD51968C1F3C101C84070BDEF
:1055B0003A4870BD3749374D18310C1D24350A68FB
:1055C000096826682D6802F0030406F00102C1F3A1
:1055D0000511C5F3CC0515FB02F200EE102AB8EE5A
:1055E000400AE9B32F4ADFED2E0AB7EE001A6CB17C
:1055F000DFED2D1A012C01D0022C43D002EE101A3F
:105600001068F8EE422A81EEA22A1EE01C68A40669
:1056100011D51B6801EE901A1168C3F3C103F8EEAF
:10562000612AD84001EE900AC1F30800F8EE611A31
:1056300081EEA22A0BE001EE901ADFED1C2A00BFDA
:10564000F8EE611A106882EEA12AC0F3080001EE9C
:10565000900AF8EE611A40EE201A31EE810A00E05D
:1056600015E022EE000A1068C0F34620401C00EE50
:10567000900AF8EE600A80EE201ABCEEC10A10EE25
:10568000100A70BD01EE901ADFED092AD8E700205C
:1056900070BD0000104402580090D00340787D0196
:1056A00000000039304402580024744A0024744C2D
:1056B00020BCBE4B2DE9F05F04007DD0FF4F207869
:1056C000FE4D1837DFF8F493103DC00748D0D9F8E5
:1056D0000000396800F03800102815D0182803D1D0
:1056E00001F0030002280FD06068B0F5803F12D0AF
:1056F00010B1B0F5A02F18D0286820F480302860B1
:10570000286820F4802009E02868800328D5606894
:105710000028D2D024E0286840F4803028606068F7
:1057200088B1FEF715FB064609E0286840F48020A2
:105730002860F0E7FEF70CFB801B64286FD8286810
:105740008003F7D50CE0FEF703FB064605E000BF3B
:10575000FEF7FEFA801B6428F0D828688003F7D48F
:10576000207841F20308D54E0C3E800769D5D9F860
:105770000000396810F038000ED0182801D18807D1
:105780000AD0E06890B3296821F01901014329602B
:10579000FEF7DEFA824631E02868400702D5E0686D
:1057A00000288AD0E168286820F0190008432860A2
:1057B000FEF7CEFA824607E0DFE000BFFEF7C8FA48
:1057C000A0EB0A000228B9D828684007F6D500BF28
:1057D000FEF7B8FA40451BD82069402812D031683E
:1057E00021F47C3141EA003030602AE018E000BF4B
:1057F000FEF7AEFAA0EB0A0002289FD828684007FF
:10580000F6D5E5E7306820F47C3040F40030EBE773
:10581000207C316821F0FE4141EA0060E4E70DE1BF
:10582000286820F001002860FEF792FA824605E021
:10583000FEF78EFAA0EB0A0002288DD828684007F0
:10584000F6D42078C0065DD5D9F80000DFF86CB238
:10585000396800F03800ABF1040B082810D0182884
:1058600003D101F0030001280AD0E069002828686C
:1058700038D040F080002860FEF76AFA824623E0C4
:105880002868C00523D5E069802876D11FE0206A0A
:10589000202821D0316821F0F84141EA8060306051
:1058A00030E000BF94F82010DBF8002022F07C529A
:1058B00042EA0161CBF8001024E000BFFEF748FA8D
:1058C000A0EB0A00022898D82868C005F6D5FEF794
:1058D00039FA4045E6D8DAE7306820F0F84040F081
:1058E0008040DCE720F080002860FEF731FA0646B1
:1058F00005E000BFFEF72CFA801B02289DD828681F
:10590000C005F7D42078000729D56C486169643058
:1059100000298046016811D041F001010160FEF7C5
:1059200017FA064605E000BFFEF712FA801B0228B0
:10593000C9D8D8F800008007F6D510E021F00101A1
:105940000160FEF705FA064605E000BFFEF700FA23
:10595000801B022872D8D8F800008007F6D420787F
:10596000800623D5A0690028286810D040F4805014
:105970002860FEF7EDF9064605E036E1FEF7E8F9A6
:10598000801B02285AD828688004F7D50EE020F43E
:1059900080502860FEF7DCF9064604E0FEF7D8F9EF
:1059A000801B02284AD828688004F7D42078400752
:1059B0004FD5DFF80C81D8F8001041F48071C8F899
:1059C0000010FEF7C5F9064605E000BFFEF7C0F976
:1059D000801B642832D8D8F80000C005F6D5374EB1
:1059E000A068603601280AD008B1052813D03068B5
:1059F00020F001003060306820F0040002E03068E0
:105A000040F001003060A06841F2883A90B1FEF7A2
:105A10009FF980460AE0306840F004003060EEE70D
:105A2000FEF796F9A0EB0801514507D830688007CA
:105A3000F6D50EE0FEF78CF9804607E084E000BF63
:105A4000FEF786F9A0EB080151457DD83068800744
:105A5000F6D4606AB0B3DFF86480D9F8001008F1BA
:105A600020084FF6F87B08F10409C1F3C2010329AD
:105A7000A8F1040A69D00228286820F08070286004
:105A800003D0FEF765F9044684E0FEF761F90646A7
:105A900005E000BFFEF75CF9801B022877D8286874
:105AA0008001F7D4E26A40F2F331386854F8283FB5
:105AB000884340EA02101843386004E0104402585A
:105AC00000480258B5E0217B434622894FF4FE0C82
:105AD000208A4FF0FE474902267D521E401EA1F546
