:020000040800F2
:10000000F8B101247103000863640008F95F000877
:10001000616400080D15000801720008000000006E
:10002000000000000000000000000000B102000815
:10003000C5190008000000000D030008C968000889
:100040008B0300088B0300088B0300088B03000858
:100050008B0300088B0300088B0300088B03000848
:100060008B0300088B0300088B030008751500083C
:10007000811500088B0300088B0300088B03000820
:100080008B0300088B0300088B0300088B03000818
:100090008B0300088B0300088B0300088B03000808
:1000A0008B030008696A00088B0300088B030008B3
:1000B0008B0300088B0300088B0300088B030008E8
:1000C0008B0300088B0300088B0300088B030008D8
:1000D0008B0300088B0300088B0300088B030008C8
:1000E0008B0300088B030008000000008B0300084E
:1000F0008B0300088B0300088B0300088B030008A8
:100100008B0300088B0300088B0300088B03000897
:100110008B0300088B0300088B0300088B03000887
:100120008B0300088B0300088B0300088B03000877
:100130008B0300088B0300088B0300088B03000867
:1001400000000000000000000000000000000000AF
:100150008B0300088B0300088B0300088B03000847
:100160008B0300088B0300088B0300088B03000837
:100170008B0300088B0300088B0300088B03000827
:100180008B0300088B0300088B0300088B03000817
:100190008B0300088B0300088B0300088B03000807
:1001A0008B0300088B0300088B0300088B030008F7
:1001B0008B0300088B0300088B0300088B030008E7
:1001C0008B0300088B0300088B0300088B030008D7
:1001D0008B0300088B0300088B0300088B030008C7
:1001E0008B0300088B0300088B0300088B030008B7
:1001F0008B0300088B0300088B0300088B030008A7
:100200008B0300088B0300088B0300088B03000896
:100210008B0300088B0300088B0300088B03000886
:100220008B0300088B0300088B030008000000000C
:100230008B0300088B030008000000008B030008FC
:100240008B0300088B0300088B0300088B03000856
:100250008B0300088B0300088B0300088B03000846
:100260008B0300088B0300088B0300088B03000836
:100270008B0300088B0300088B03000800000000BC
:100280008B0300088B0300088B03000800000000AC
:10029000000000008B030008DFF810D000F0BCFA6B
:1002A000004800476D7E0008AFF30080F8B10124DC
:1002B0002C4B19680868B0E8F04F80F30988BFF349
:1002C0006F8F4FF0000080F311887047000000002E
:1002D00008480068006880F308884FF0000080F349
:1002E000148862B661B6BFF34F8FBFF36F8F00DF24
:1002F00000BF00BF08ED00E0DFF80C00016841F42A
:1003000070010160704700BF88ED00E0EFF30980E5
:10031000BFF36F8F134B1A681EF0100F08BF20ED4C
:10032000108A20E9F04F106009B44FF0500080F3BC
:100330001188BFF34F8FBFF36F8F08F09DFD4FF013
:10034000000080F3118809BC19680868B0E8F04F14
:100350001EF0100F08BFB0EC108A80F30988BFF3BD
:100360006F8F704724000024EFF305807047000072
:100370000648804706480047FEE7FEE7FEE7FEE73F
:10038000FEE7FEE7FEE7FEE7FEE7FEE78D69000811
:10039000990200082DE9F05F0546002092469B4631
:1003A00088460646814640241BE02846414647468B
:1003B000224600F069F853465A46C01A914110D3BC
:1003C00011461846224600F050F82D1A67EB010836
:1003D0004F4622460120002100F047F817EB0009A4
:1003E0004E41201EA4F10104DFDC484631462A4676
:1003F0004346BDE8F09F40EA01039B0703D009E0B4
:1004000008C9121F08C0042AFAD203E011F8013B00
:1004100000F8013B521EF9D27047D2B201E000F859
:10042000012B491EFBD270470022F6E710B5134698
:100430000A4604461946FFF7F0FF204610BD30B5C6
:100440000B46014600202022012409E021FA02F592
:100450009D4205D303FA02F5491B04FA02F528442C
:10046000151EA2F10102F1DC30BD202A04DB203A86
:1004700000FA02F1002070479140C2F1200320FAF7
:1004800003F3194390407047202A04DB203A21FAF5
:1004900002F00021704721FA02F3D040C2F120029D
:1004A00091400843194670472DE9FE4F804681EA86
:1004B0000300C00F0C46009021F0004123F00045DE
:1004C000B8EB0200A94105D24046214690461C46A1
:1004D0000B46024623F00040104347D0270DC7F3D8
:1004E0000A00C3F30A510290401A019040286BDAC7
:1004F000C3F3130040F4801B0098924620B1002300
:10050000D2EB030A63EB0B0B01985946C0F1400292
:100510005046FFF7AAFF06460D4650465946019A37
:1005200000F08CF910EB08006141002487EA1152B9
:1005300084EAE7731A4340D0009A62B3019A012A11
:100540004FEA075215DC001B61EB02014FF000423D
:1005500002EA0752CDE90042001C41F58011324603
:100560002B4600F08CF903B0BDE8F08F40462146E1
:10057000F9E7001B61EB0201001C41F58013001834
:100580005B412018A2F5001747EB030140EAD57044
:10059000B6196D4111E06D084FEA360645EAC0759F
:1005A0004FEA0752001B61EB0201001C41F580116C
:1005B00049084FEA30000019514132462B4603B03A
:1005C000BDE8F04F00F04CB9009801224000002334
:1005D000D0EB020263EBE073009821464FEAE0742F
:1005E000B8EB000061EB0401E9E783F000435BE74F
:1005F00081F0004158E72DE9FE4F81EA030404F041
:10060000004421F0004100944FF0000B23F0004320
:1006100050EA01045ED052EA03045BD0C3F30A54EB
:10062000C1F30A552C44A4F2F3340194A0FB025404
:10063000C1F3130141F48011C3F3130343F4801396
:1006400001FB024400FB034E840A970A44EA8154EA
:1006500047EA8357A4FB076802958D0A05FB0785C7
:100660004FEA932C04FB0C542705029D4FEA0658D1
:1006700047EA1637B5EB08056EEB070C870E920EAE
:1006800047EA811742EA8312A7FB0201B6EB0B018E
:1006900064EB00042B0D43EA0C335E1844EB1C5052
:1006A000DA465146E7FB0201C5F313044FEA0B3368
:1006B00043EA14534FEA0432019C43EA0603A4F1CF
:1006C0000C040294009CCDE900B400F0D8F803B00B
:1006D000BDE8F08F00200146F9E72DE9F04D81EAF1
:1006E000030404F0004B21F0004514464FF0000ACB
:1006F00023F0004150EA050220D054EA01021DD047
:10070000C5F30A570246C5F31303C1F31300C1F33F
:100710000A5640F4801543F48013A7EB0608101B1B
:10072000D64608F2FD3873EB050002D308F1010844
:1007300001E092185B41B8F1000F03DA0020014696
:10074000BDE8F08D00204FF48011064684460EE08F
:10075000171B73EB050705D3121B63EB0503064359
:100760004CEA010C49084FEA300092185B4150EA0C
:100770000107EDD152EA030012D082EA040083EAB5
:100780000501084305D0101BAB4106D2012200230E
:1007900006E000224FF0004302E06FF00102531028
:1007A0001AEB06004CEB085110EB0A0041EB0B0171
:1007B000BDE8F04D00F054B8C1F30A52C1F3130183
:1007C00040F2FF3341F480119A4202DA00200146E0
:1007D000704740F233439A42A2F2334202DC524263
:1007E000FFF752BEFFF741BE30B5041E71F10004A1
:1007F00004DB4FF00044404264EB0101141E73F12E
:10080000000405DB1C464FF00043524263EB040337
:10081000994208BF904230BD064C074D06E0E068A3
:1008200040F0010394E8070098471034AC42F6D337
:10083000FFF736FDC4250108E4250108202A06DB60
:10084000CB17203A41FA02F043EAE07306E041FA9E
:1008500002F3D040C2F1200291400843194670478C
:1008600010B5141E73F1000408DA401C41F10001B8
:1008700092185B411A4301D120F0010010BD2DE90F
:10088000F04D92469B4611B1B1FA81F202E0B0FA06
:1008900080F220329046FFF7E8FD04460F4640EA1A
:1008A0000A0041EA0B0153465A46084313D0114649
:1008B00053EA010019D0C8F140025046FFF7E4FDA9
:1008C00005460E46504659464246FFF7CEFD0843C0
:1008D00005D0012004E020463946BDE8F08D002017
:1008E000054346EAE0762C4337430A986305E40A59
:1008F000A0EB08000022FD0A44EA47540A3002D562
:1009000000200146E9E7010510196941DDE90845C4
:1009100000196941BDE8F04DA2E700002DE9F04F54
:1009200081B001266FF001044FEA510E06EB51072A
:1009300004EB510800974FEA42090024002500BF4C
:10094000ADB26600AC422BD250F82670EA0050F8E7
:100950003510043240F8261046F0010140F8357099
:1009600050F821A0875840F8217040F802A0009A62
:10097000A118AF1850F831A04FEAC10B50F837203A
:100980004FEAC70C40F8312040F837A00BF10401C2
:100990000CF1040750F801A0C259425040F807A0DA
:1009A00005EB0E0100EB860250F831709668CD0021
:1009B000D2F80CC097602F1D40F83160A11CC559BA
:1009C0008CB2D5601D8844454B4440F807C0B7D968
:1009D00001B0BDE8F08F70B50446807825880E46DA
:1009E000A3890128626806D194ED040A304629469D
:1009F00000F08CFA03E03046294600F0F3F8E07886
:100A0000012807D121883046E289A368BDE87040FB
:100A1000FFF784BF70BD00004AF2C45C0180C0F6DD
:100A2000000CC0F804C0FF29827049F6C452C3709C
:100A3000C0F600024FF0FF030DDDB1F5807F13D04B
:100A4000B1F5805F15D0B1F5806F22D106329FEDF0
:100A5000160A042117E010290FD0402919D17E323F
:100A60009FED0F0A40210EE01E329FED0E0A10216D
:100A700009E09FED090A012105E002F5FF729FEDF3
:100A8000070A4FF4807100238181C181826080ED6B
:100A9000040A58B2704700BF000080390000803D52
:100AA0000000803C0000803B0000803A2DE9F043CC
:100AB00081B02DED028B0023B3EB920F90460C46D4
:100AC000054669D04FEA9800474200BF95ED010AFC
:100AD00020EE008A95ED000A00EE008AB0EE480A8A
:100AE00006F01EFDB4EEC00AF1EE10FA03D7B0EE28
:100AF000480A06F015FD84ED000A95ED030A20EE84
:100B0000008A95ED020A00EE008AB0EE480A06F06F
:100B100007FDB4EEC00AF1EE10FA03D7B0EE480AB2
:100B200006F0FEFC84ED010A95ED050A20EE008A30
:100B300095ED040A00EE008AB0EE480A06F0F0FCDB
:100B4000B4EEC00AF1EE10FA03D7B0EE480A06F090
:100B5000E7FC84ED020A05F1200995ED070A20EE75
:100B6000008A04F1100695ED060A00EE008AB0EE48
:100B7000480A06F0D5FCB4EEC00AF1EE10FA03D72D
:100B8000B0EE480A06F0CCFC013784ED030A4D466E
:100B900034469BD134464D4618F003001DD04642E2
:100BA00095ED010A20EE008A271D95ED000A00EE62
:100BB000008AB0EE480A06F0B3FCB4EEC00AF1EECB
:100BC00010FA03D7B0EE480A06F0AAFC013684ED0D
:100BD000000A05F108053C46E2D1BDEC028B01B0EC
:100BE000BDE8F0832DE9F04F88B08C08059204EB46
:100BF0004407019026010094151D079600220494D5
:100C0000FF000393A2EB910603EB430204304FEA8B
:100C1000C40E4FEA031A4FEAC30B4FEAC2093A4621
:100C20002C462F46079B00EB0E0800EB030C8318A5
:100C300010ED010A90ED001A18ED012A98ED003A26
:100C40001CED014A9CED005A13ED016A93ED007A08
:100C500070EE040A013672EE061A71EE052A73EE82
:100C6000073A32EE462A31EE451A33EE473A30EE75
:100C7000A15A32EEA37A30EE440A72EEE32A71EE04
:100C8000423A17ED014A97ED006A00ED015A70EE05
:100C9000E10A80ED007A70EE031A14ED015A23EE9A
:100CA000857A00F1080031EE021A574494ED002ACB
:100CB00030EE430A5C4423EE823A01EEC27A22EE21
:100CC000862A01EE853A15ED015AD5ED001A64EE3B
:100CD000222A4D4400EE842A21EE214A21EE051AF3
:100CE00040EEC62A08ED012A00EE054A00EE611A20
:100CF000C8ED002A0CED013A8CED007A03ED014AB3
:100D000083ED001A8ED11429C0F0B480049D00BF79
:100D10000398AA0880000292039080B2EE00079028
:100D20004FF0FF3000EB9500069002EB4200C70049
:100D3000D000041D4FEA021C019A4FF00009002365
:100D40009046059A02EBC3004FEAC30E90ED000AED
:100D50000EF10400104490ED001A02EB03104FEA6C
:100D6000031E90ED002A0EF10400104490ED003AAD
:100D700003EB430002EBC00EC000043010449EEDB4
:100D8000004A424690ED005A4046C84600EB0C0A25
:100D900090ED006A9AED007A00EB040B76EE470ABC
:100DA00000EB070E36EE076A1BED017ADEED001A46
:100DB00077EE612AA84437EE217A8845D0ED011AF2
:100DC000DBED003ADAED014ADEED015A71EEE46A3C
:100DD00073EEE57A71EEA41A73EEA53A70EEA74AA7
:100DE00070EEE70A71EEE37A76EEE25A76EEA22A28
:100DF00076EE476A36EE076A31EEA37A63EE271A7B
:100E000062EE273A80ED006A60EE247A80ED017A86
:100E100024EE206A304424EE227A41EE257A60EEF8
:100E2000255A42EE261A43EE663A41EE645A05EE22
:100E3000226A4BED011A05EE607ACBED003ACAED5D
:100E4000007ACAED015A8EED006A8EED017A9DD3CB
:100E5000079809F1010903440698814502F1080247
:100E60007FF66EAF04981328029D4FEA900004901D
:100E70003FF64EAF00984042019900BF91ED000A45
:100E800091ED011A91ED022A91ED033A91ED044A98
:100E900091ED055A91ED066A91ED077A70EE040A1C
:100EA000013030EE440A31EE054A31EE451A32EE99
:100EB000065A73EE071A32EE462A33EE473A30EE00
:100EC000856A34EE217A30EEC55A34EE614A81EDFE
:100ED000006A30EE036A81ED017A31EE427A81EDEB
:100EE000025A30EE430A81ED034A31EE021A81EDD7
:100EF000046A81ED057A81ED060A81ED071A01F198
:100F00002001BBD108B0BDE8F08F00002DE9F04F03
:100F100081B02DED048B88B08C08059204EB44075A
:100F2000019026010094151D079600220494FF00ED
:100F30000393A2EB910603EB430204304FEAC40E85
:100F40004FEA031A4FEAC30B4FEAC2093A462C464E
:100F50002F4600BF079B00EB0E08034400EB020C7A
:100F600010ED011A90ED002A13ED013A93ED004ABD
:100F700018ED015A98ED006A1CED017ADCED000ACB
:100F800071EE031A013675EE072A72EE043A76EE18
:100F9000204A31EE431A32EE442A36EE604A31EEF0
:100FA000A26A73EEA40A35EE475A71EEE21A71EEA8
:100FB000442A17ED013A97ED007A00ED016A73EECD
:100FC000E43AC0ED000A72EE054A94ED006A62EE62
:100FD000860A00F1080031EE041A574414ED014A64
:100FE00032EE452A5C4422EE845A44EE840A21EE15
:100FF000834A04EEC65A15ED016AD5ED002A61EE6A
:10100000871A4D4403EEC74A21EE067A21EE221AD2
:1010100043EE231A08ED014A02EE627A02EE061A46
:10102000C8ED001A03ED015AC3ED000A0CED017A78
:101030008CED001A8ED11429C0F0B480049D00BF3D
:101040000398AA0880000292039080B2EE000790F5
:101050004FF0FF3000EB9500069002EB4200C70016
:10106000D000041D4FEA021C019A4FF00009002332
:101070009046059A02EBC3004FEAC30E90ED001AAA
:101080000EF10400104490ED002A02EB03104FEA29
:10109000031E90ED003A0EF10400104490ED004A5A
:1010A00003EB430002EBC00EC000043010449EED81
:1010B000005A424690ED006A4046C84600EB0C0AD2
:1010C00090ED007ADAED000A00EB040B77EE601A7F
:1010D00000EB070E37EE207A5BED010ADEED002A09
:1010E00070EEE23AA84470EEA20A8845D0ED012ADB
:1010F000DBED004ADAED015ADEED016A72EEE57AC7
:1011000034EEE68A72EEA52A74EEA64A71EEC85A4B
:1011100071EE881A32EEE48A77EEA36A77EEE33A4C
:1011200077EE607A37EE207A23EE089A63EE270A8C
:1011300072EEA42A80ED007A04EE279A61EE254A29
:1011400062EE255AC0ED012A65EE217A304426EE82
:10115000217A44EE480A42EE664A41EE265A46EEAD
:10116000637A4BED010A05EE237A8BED009ACAED06
:10117000004ACAED015ACEED007A8EED017A9DD378
:10118000079809F1010903440698814502F1080214
:101190007FF66EAF04981328029D4FEA90000490EA
:1011A0003FF64EAF00984042019900BF91ED001A02
:1011B00091ED012A91ED023A91ED034A91ED045A25
:1011C00091ED056A91ED067AD1ED070A71EE051AE7
:1011D000013031EE451A32EE065A32EE462A33EE2F
:1011E000076A74EE202A33EE473A34EE604A31EE55
:1011F000867A75EE220A31EEC66A35EE625A71EED3
:10120000441A72EE032A31EE041A32EE432A27EE14
:10121000003A20EE804A26EE006A25EE005A81ED63
:10122000003A21EE803A81ED014A22EE804A81EDBA
:10123000026A21EE001A81ED035A22EE002A81EDA6
:10124000043A81ED054A81ED061A81ED072A01F184
:101250002001ABD108B0BDEC048B01B0BDE8F08F2C
:1012600070B53A4905460068884202D0384A904233
:1012700002D1D1F8080302E03648D0F8080310F490
:10128000403F11D003F044FE04466868B0F5803F4B
:1012900006D0B0F5003F03D0B0F5403F27D101E0C4
:1012A000000C18E0A40822E000214FF4002002F016
:1012B00099FE044668688103890B18D181140C29B2
:1012C00015D2DFE801F0140606060606060B0D0F20
:1012D0001113800C4000B4FBF0F408E0240906E090
:1012E000640904E0A40902E0E40900E0240A02F031
:1012F00039FA41F20301884208D817488442286825
:10130000816813D821F48071816070BD1349600831
:10131000884204D82868816821F44071F4E71049B4
:10132000884206D82868816821F4407141F48071B0
:10133000EAE70C4988422868816804D821F44071A2
:1013400041F40071E0E741F44071DDE70020024024
:101350000021024000600258002D3101105E5F0044
:1013600020BCBE0040787D0110B5846B616D11F02A
:10137000500F06D0616DC90625D5204600F093FEBA
:1013800010BD606D40F40070606520680168090759
:1013900007D504F03EFE90B12068C068800403D5F4
:1013A0000DE0C06880070AD1606D20F48070606530
:1013B000606DC00403D4606D40F00100606520469C
:1013C00000F05EFE10BDE16CC96CBDE8104008473E
:1013D00010B5806B416D41F040014165816D41F078
:1013E0000401816500F05FFE10BD10B5806B00F058
:1013F00059FE10BD70B50446006881688268C1F36B
:10140000400112F0010F28D039BB816801F00D01B5
:10141000012914D18168124A1140891C8160216818
:101420000320086002F0A4F9054612E002F0A0F9DA
:10143000401B02280DD920688068C00709D0606D64
:1014400040F010006065A06D40F00100A065012033
:1014500070BD20688068C007E8D1002070BD000022
:10146000C0FFFF7F70B504460068816811F0010F6E
:1014700040D18168204A11422DD18168D54329404D
:10148000491C816002F074F91C49064620681C4B17
:10149000884201D0984201D11A4A00E01A4A926863
:1014A000984202F01F0200D0014681421DD0E2B1F5
:1014B00020E0816811F0010F03D181682940491CA7
:1014C000816002F055F9801B02280ED9206800685F
:1014D000C043C00709D0606D40F010006065A06D8A
:1014E00040F00100A065012070BD20680168C9437B
:1014F000C907DED1002070BD3F00008000200240FF
:10150000002102400023024000630258FEE710B5AC
:10151000846B204601F084F80120207110BD10B5C5
:10152000846B204600F0D2FF0120207110BD10B561
:10153000846B206940F004002061204601F072F8BD
:101540000120207110BD10B5846B206940F00400AB
:101550002061204600F0BCFF0120207110BD10B5B5
:10156000806B01F05EF810BD10B5806B00F0AFFF2E
:1015700010BD0000014801F029B9000098030024C3
:10158000014801F023B9000010040024294A016831
:1015900091423AD0274A1832914236D0254A303209
:1015A000914232D0234A483291422ED0214A6032B1
:1015B00091422AD01F4A7832914226D01D4A903259
:1015C000914222D01B4AA83291421ED01A4A91421F
:1015D0001BD0194A1832914217D0174A3032914223
:1015E00013D0154A483291420FD0134A60329142CB
:1015F0000BD0114A7832914207D00F4A9032914273
:1016000003D00D4AA832914211D1CAB21823103A20
:10161000B2FBF3F26FF30901032A02F00703074A52
:10162000D25CC26500D9091D81650846704721F06A
:10163000FF01F9E710000240100402405099000831
:1016400030B5224A012301689142CAB21BD01F4C17
:101650001434A14217D01D4C2834A14213D01B4C86
:101660003C34A1420FD0194C5034A1420BD0174C3E
:101670006434A14207D0154C7834A14203D0134CF6
:101680008C34A1420CD11421114C083AB2FBF1F177
:101690000F4A803201F01F0504EB8101AB4010E0DE
:1016A0000C4D1824103A0D44B2FBF4F1A82D00D8CB
:1016B0000831094A01F01F0402EB8101064AA340E8
:1016C0008032603080E80E0030BD000008540258BF
:1016D00000580258F0FBFDBF0008024010B5027927
:1016E000531E072B2DD8174C0168A1421BD0154C57
:1016F0001434A14217D0134C2834A14213D0114CFA
:101700003C34A1420FD00F4C5034A1420BD00D4CB1
:101710006434A14207D00B4C7834A14203D0094C69
:101720008C34A14203D10849074C443102E00749F7
:10173000064C443104EB8202C0E91B21012199408F
:10174000416710BD08540258FC580258FC0802407A
:1017500010B583694FF0C074826A0146002053B10E
:10176000B3F5005F15D072B1012A0CD0022A0AD05D
:10177000032A09D104E01AB1012A06D0022A03D1B2
:10178000C96AC90100D5012010BDC96AA142FAD0B9
:1017900010BD002AF7D0012AF2D0022AF3D0032A82
:1017A000F3D010BD2DE9F04F804E804FDFF8FC9153
:1017B0001836DFF8F8A148370468856D0AF1300A59
:1017C000DFF8ECB14C45DFF8ECC1DFF8ECE16DD0AF
:1017D000B4426BD0544569D0BC4267D0DFF8D081A9
:1017E000A8F11808444561D05C455FD064455DD0E0
:1017F00074455BD0DFF8C481444557D0DFF8BC8125
:1018000008F11808444551D0DFF8B08108F13008DC
:1018100044454BD0DFF8A48108F14808444545D041
:10182000DFF8988108F1600844453FD0DFF88C81EB
:1018300008F17808444539D0DFF8808108F1900834
:10184000444533D0DFF8748108F1A80844452DD011
:10185000DFF86C81444529D0DFF8648108F1140871
:10186000444523D0DFF8588108F1280844451DD0AD
:10187000DFF84C8108F13C08444517D0DFF840817F
:1018800008F15008444511D0DFF8348108F16408AC
:1018900044450BD0DFF8288108F17808444505D08D
:1018A000DFF81C8108F18C08444509D1D0E91948BA
:1018B000C4F80480C46E1CB1D0E91C48C4F804808C
:1018C00004684C452ED0B4422CD054452AD0BC429A
:1018D00028D0374E183EB44224D05C4522D064450F
:1018E00020D074451ED0354EB4421BD0334E18362E
:1018F000B44217D0314E3036B44213D02F4E483652
:10190000B4420FD02D4E6036B4420BD02B4E7836F9
:10191000B44207D0294E9036B44203D0274EA836A1
:10192000B44215D190F85C603F2406F01F06B44025
:10193000AC600468256825F4802525602EE09A6057
:101940000068C160BDE8F08F99600068C260F9E787
:101950001B4EB4421BD01A4E1436B44217D0184E48
:101960002836B44213D0164E3C36B4420FD0144E33
:101970005036B4420BD0124E6436B44207D0104EEB
:101980007836B44203D00E4E8C36B442DAD190F899
:101990005C60012406F01F06B4406C60046863605C
:1019A0008368402B0368CFD1C9E7000010000240D4
:1019B00088000240A0000240B8000240100402402B
:1019C00008540258704772B6FEE70000F8B50027C9
:1019D000044615460E46009790F8500001280BD09B
:1019E000012084F850002046FFF704FD0100606DDF
:1019F00004D040F010002DE00220F8BD20F4885003
:101A000040F002006065206806F4803205F08043F3
:101A1000134D1A4383682B401A4342F00042826000
:101A2000104A20680EE0009B5B1C0093934209D390
:101A3000606D84F8507020F0020040F01000606586
:101A40000120F8BD8368DB0FEDD1606D20F002004E
:101A500040F001006065084684F85070F8BD000051
:101A6000C0FFFE3F00F8C3252DE9F0470F4690F870
:101A700050109AB0044601294FF0000915D00026F5
:101A8000DFF8F880012084F850001596169621683A
:101A900041450ED13A4D0095284604F0B6FA8246EB
:101AA000206804F0B2FA60B10EE002201AB0BDE87E
:101AB000F087606D84F8506040F020006065012080
:101AC000F4E7BAF1000F09D0616D4FF0010941F060
:101AD00020006065484684F85060E7E7206841468A
:101AE000884201D0A84201D1264800E0264840F6AD
:101AF0001F72D7F800C0254BBCF1000F23D0D0F8DF
:101B000008C0D7F804802CF4404C4CEA080CC0F80C
:101B100008C0D4F800C08C4501D0AC4507D1896815
:101B2000AB6801F0010103F00103194302E0996879
:101B300001F001010029CDD1BD68396883682943CE
:101B40009343194317E0876827F440478760276865
:101B50008F4201D0AF4207D18968AB6801F0010123
:101B600003F00103194302E0996801F00101002923
:101B7000B0D1816891438160ACE700000020024051
:101B80000021024000230240006302580060025816
:101B90002DE9F04399B0904689460446006804F068
:101BA00034FA68B994F85000012809D0364E012162
:101BB0002068364FB04284F8501005D1394604E011
:101BC000022019B0BDE8F08301464FF000058142C4
:101BD00001D0204614E0159516952068B84205D12D
:101BE00020460096FFF73EFC48B10CE0009584F8D3
:101BF0005050606D40F0200060650120E1E76846CC
:101C0000FFF730FC10B184F85050DAE7606D1C210A
:101C100040F60162904340F480706065A565E26C17
:101C20001B48D063E26C1B481064E26C1A48D06415
:101C30002068016084F850502068416841F010012C
:101C400041602168B14201D1384600E0084688422F
:101C500006D0E06C403143464A4601F00DFBB0E748
:101C6000B94201D0B14201D10C4900E00C494346D0
:101C7000E06C4A460C3101F0FFFA2168094B8A6892
:101C80001A40121D8A609CE7002102400020024099
:101C900069130008EB130008D11300080023024069
:101CA00000630258C0FFFF7F2DE9F84F4FF0000B93
:101CB0000D46E54F0446CDF800B0D94690F85010D7
:101CC000DFF888A3012907D0012684F85060206836
:101CD00004F097F918B168E10220BDE8F88F286890
:101CE00000280DDB21680303CA6927D090FAA0F011
:101CF000B0FA80F000F01F0006FA00F00243CA615B
:101D0000D5E900124FF00C0C20681F23C1F3846149
:101D10000CEA921C02F01F02604493409140026B57
:101D20009A430A430263206804F06BF980462068F6
:101D300004F063F958EA000003D07FE0C0F3846048
:101D4000D8E72068AA68296804F06BF9C0480068E1
:101D5000B6EB107F06D121686869C968C1F38201BA
:101D6000490008E02068C168C906C1686869F5D5FE
:101D700001F0100149088840296904292ED0236800
:101D80002A6803EB810102F0F8420B6E024303F074
:101D9000004010430866697E22682869012917D02F
:101DA0005FF0000102EB8000026E22F000420A4365
:101DB0000266297E20682A6901290CD00021036966
:101DC00002F01F02914023F4F0420A43026135E021
:101DD0004FF00041E6E74FF40061F0E72068297812
:101DE000026E02F0F842B2EB816F03D1016E21F076
:101DF0000041016620682978426E02F0F842B2EB99
:101E0000816F03D1416E21F000414166206829783D
:101E1000826E02F0F842B2EB816F03D1816E21F045
:101E20000041816620682978C26E02F0F842B2EB68
:101E3000816F03D1C16E21F00041C16620688168C5
:101E400011F0010F76D150F8C02F95F80CC0814BDE
:101E500029680CF0180823FA08F3C1F3130C0B409F
:101E600022EA0C021A4302607B48E968814277D17A
:101E7000286801031BD090FAA0F1B1FA81F1491C46
:101E800001F01F0109294FEA003131D8002911D092
:101E900090FAA0F1B1FA81F101F1010101F01F0105
:101EA00006FA01F609D100BFC0F3846109E0C0F36E
:101EB0008461E4E7C0F38461EEE790FAA0F1B1FA3F
:101EC00081F101F1010101F01F0146EA816102D1B6
:101ED000C0F3846003E090FAA0F0B0FA80F000F163
:101EE000010000F01F0000EB400041EA005133E028
:101EF00000290ED090FAA0F1B1FA81F101F10101AF
:101F000001F01F0106FA01F606D100BFC0F384619B
:101F100006E0C0F38461F1E790FAA0F1B1FA81F133
:101F200001F1010101F01F0146EA816103D1C0F313
:101F3000846004E03FE090FAA0F0B0FA80F0474AF5
:101F400000F1010000F01F0000EB400002EB005028
:101F500041EA000141F00071AA68206804F061F8CC
:101F60002E68002E27DA3E4A20683E49DFF8F8C086
:101F7000904201D0B84201D10B4600E063469B6815
:101F8000904203F0E07301D0B84209D19568D7F8C8
:101F9000088005F0010508F0010845EA080503E09E
:101FA000DAF8085005F001054DB1616D4FF00109F7
:101FB00041F020006065484684F850B08DE62B4D16
:101FC000AE421CD11D021AD45045F4D1904202D029
:101FD000B84200D061468A6843F4000022F0E07203
:101FE00002438A60234922480968B1FBF0F04000AF
:101FF000801C00E0401E00900028FBD1DBE71E4D56
:10200000AE420CD1DD010AD45045D4D1904202D069
:10201000B84200D061468A6843F080700EE0174DE8
:10202000AE42C8D15D02C6D45045C4D1904202D060
:10203000B84200D061468A6843F4800022F0E07222
:1020400002438A60B7E700000021024000600258A6
:102050000010005CFFFF0F000000FF47000020FEA3
:10206000002002400023024000630258000084CB9D
:10207000400D03001C000024000052C70000B8CF30
:1020800010B500680449884205D1044803F032FDC8
:1020900003490120088010BD002002406C0200248A
:1020A000A800002470477047F8B54FF00006040000
:1020B0003546009602D0606D10B107E00120F8BDF2
:1020C000204600F005F9A66584F850602068816814
:1020D000C1F3407119B18168704A11408160206874
:1020E0008168C1F3007181B981686D4A114041F086
:1020F000805181606C496B480968B1FBF0F0401C6D
:1021000000E0401E00900028FBD120688168C1F3E8
:10211000007141B9616D012541F010016165A16D4A
:1021200041F00101A16503F06CFF616DC90600D4A7
:1021300020B1606D012540F0100093E0606D20F447
:10214000807040F0020060652068816811F0010F26
:102150001FD1564A564B904201D0984207D1916800
:102160009E6801F0010106F00106314303E0514988
:10217000896801F0010161B9904201D0984201D112
:102180004D4800E04D488268616822F47C120A43A1
:10219000826001F0E7FA41F20301884202D9A068A7
:1021A00010280CD0617D227FA368206B490341EA8F
:1021B000024118430843217F01290CD010E0607DC3
:1021C000227F216B400340EA024241F0100010439D
:1021D00040F00C00EFE7218C394A02EB4141084303
:1021E000616A29B1A26A01F47871014342EA0100EF
:1021F0002168344BCA681A400243CA60206803F061
:1022000000FF0646206803F0F8FE30431DD1216828
:1022100044F20303267DE26AC86842EA86329843A4
:102220001043C86094F8380001281ED02068016966
:1022300021F0010101612068626B016921F07041A8
:10224000114301612046FFF70BF8E0680128206880
:102250001CD0016B21F00F010163606D20F00200C2
:1022600040F0010060652846F8BD2068A28F164F37
:10227000D4E9101C154E07EB0247A36C026941EA32
:102280000C013B43324019431143D3E7A269016B70
:10229000521E21F00F011143DEE70000C0FFFF5F77
:1022A000C0FFFF7F400D03001C00002400200240FF
:1022B00000210240006002580023024000630258DF
:1022C0000000FEFF03C0F0FF0100FFFF1EF800FC4E
:1022D000F0B587B0064614216846FEF7A5F8304AE7
:1022E000002530494FF0030437682F4B10688F42A8
:1022F0002E4900F1010034D10128106007D118687F
:1023000040F020001860186800F020000590086870
:1023100040F0040008600868694600F00400059079
:1023200010208DE83100224801F0F4F8214C0921F9
:1023300021484FF4807C021584E82300D700C4E9CB
:102340000352C3142046C4E907C56562C4E90537D2
:1023500000F0B0FD08B1FFF736FBF464A66307B0E8
:10236000F0BD164EB742FAD10128106007D11868A7
:1023700040F020001860186800F020000590086800
:1023800040F0010008600868694600F0010005900F
:1023900040208DE831000A4801F0BCF8DFE700007A
:1023A0000C00002400200240D8440258E0440258A7
:1023B0000008025898030024100002400021024047
:1023C000000002582DE9F0413B4D044600683B4FA8
:1023D000A84201D0B84201D1394900E039498968A1
:1023E00001F01F0603F00DFE18B102210846BDE8FA
:1023F000F08194F8500001280CD0012084F850009E
:102400002046FFF72FF801004FF0000204D084F8B7
:102410005020EBE70220EAE7636D40F6016C20688C
:1024200023EA0C03B84243F48073636501D12B4661
:1024300000E00346834200D01EB9636D23F480138D
:102440006365636DDB0404D5A36D23F00603A36508
:1024500000E0A2651C23036084F850202068B84285
:1024600001D12A4600E00246824215D0A6B1052ECF
:1024700012D0092E10D0626DB84242F4801262650B
:1024800000D00546E8688001B0D5606D20F40050AA
:1024900040F480506065A9E7C268920105D5626D7D
:1024A00022F4005242F4805262658268064B1A4060
:1024B000121D82609AE700000020024000210240C5
:1024C0000023024000630258C0FFFF7F704770473F
:1024D000704700002DE9F05F040017460D464FF0ED
:1024E000000B0FD075B1607901280ED04FF0010AB2
:1024F00084F805A002212171286807F0100604283D
:1025000005D04BE00120BDE8F09F0220FBE701F081
:102510002FF980464FF003095FB125E001F028F95B
:10252000A0EB0800012805D92068406B384201D093
:1025300012E03A4F2068406B3842EFD12168A86919
:10254000086418E001F014F9A0EB080001280BD989
:102550002068406B002807DA216941F008012161F9
:1025600084F804900320CEE72068406B0028E9DB64
:102570002168A869486440F2FF332168EA69B340E2
:10258000886CB2409843104388642068FF222B6A0D
:10259000B240C16CB34091431943C164286901281A
:1025A00008D122681F236969906BB340B1409843FA
:1025B0000143916323680721E868DA6BB140012881
:1025C00022EA010203D0022826D0A86820B3002105
:1025D000AF682868384308434FF48041B040104347
:1025E000D8632068B14002688A430260226811689B
:1025F00040F6FE736868B3409943B04008431060EA
:10260000C021B140206802688A43026084F804A0B7
:1026100000206071584676E70121D9E7008000204C
:1026200070477047704770B5040003D020790025CB
:1026300010B105E0012070BD2046657100F008F87A
:1026400002212171012025612071002070BD000050
:10265000F0B587B0054614216846FDF7E5FE1E4932
:102660002868884236D11D48016841F00051016058
:10267000006800F00050059018480838016841F0E3
:102680000101016000680026032100F001000590AF
:1026900030208DE843001248694600F03BFF114CA2
:1026A0004321114840224FF4807E4FF4005C84E8BF
:1026B000470004F110010315C7142046C4E907E6DA
:1026C000666281E8881000F0F5FB08B1FFF77BF93E
:1026D000AC60A56307B0F0BD00740040E844025848
:1026E0000000025810040024280002402DE9F041A7
:1026F000040017460D4606981BD0617901291BD0AE
:102700000126667102212171C5B1E168294ACA63B7
:10271000E26829491164E2682849D16421680A689D
:1027200042F080520A6040B32268042828D01C324C
:1027300027E00120BDE8F0810220FBE7A168204AE4
:10274000CA63A2681F491164A2681F49D164216845
:102750000A6842F480520A6020B12268042804D03A
:10276000103203E02268083200E00C322068016871
:1027700041F400510160A06809E02268143200E0D1
:1027800018322068016841F000510160E068394664
:1027900000F072FD0021617120B1216941F0040156
:1027A0002161C7E7216805F010030A689E403243A3
:1027B0000A60BFE71F1500086915000847150008E3
:1027C0000F1500085F1500082F1500082DE9FC5FA4
:1027D0000446F74E0020DFF8D88300904FF41652DD
:1027E000F44808F11808A56DDFF8C493DFF8C0A31A
:1027F000016809F1300920680AF1480AB1FBF2F1D9
:10280000B04201912F68D5F800C0DFF8ACB335D0E5
:102810004146884232D0484530D050452ED05845A8
:102820002CD0E5491831884228D0E349303188421C
:1028300024D0E1494831884220D0E04988421DD067
:10284000DE491831884219D0DC493031884215D030
:10285000DA494831884211D0DFF860E30EF1600EAA
:1028600070450BD0D54A7832904207D0D34B903385
:10287000984203D0D149A83188427DD194F85C2098
:10288000082102F01F0201FA02F23A424AD0B04295
:1028900032D0404530D048452ED050452CD05845F8
:1028A0002AD0C54A1832904226D0C34A30329042CC
:1028B00022D0C14A483290421ED0C04A90421BD01A
:1028C000BE4A1832904217D0BC4A3032904213D0E0
:1028D000BA4A483290420FD0B84A603290420BD088
:1028E000B64A7832904207D0B44A9032904203D030
:1028F000B24AA832904203D1026802F0040202E018
:10290000026802F008026AB1026822F00402026062
:1029100094F85C0000F01F008140A960606D40F0F9
:102920000100606594F85C00012100F01F00814007
:10293000394240D02068B04234D0404532D048457A
:1029400030D050452ED058452CD09B4A183290425A
:1029500028D0994A3032904224D0974A4832904247
:1029600020D0964A90421DD0944A1832904219D0F5
:10297000924A3032904200E0AFE113D08F4A4832A1
:1029800090420FD08D4A603290420BD08B4A783201
:10299000904207D0894A9032904203D0874AA832A9
:1029A00090427DD1406910F0800F04D0A960606D25
:1029B00040F00200606594F85C00042100F01F0004
:1029C000814039423ED02068B04232D0404530D0BC
:1029D00048452ED050452CD058452AD0764A18323A
:1029E000904226D0744A3032904222D0724A483205
:1029F00090421ED0714A90421BD0704A18329042C9
:102A000017D06E4A3032904213D06C4A483290420E
:102A10000FD06A4A603290420BD0684A78329042B6
:102A200007D0664A9032904203D0644AA83290425E
:102A30004ED1006810F0020F04D0A960606D40F024
:102A40000400606594F85C00102100F01F008140D4
:102A5000394258D02068B04234D0404532D0484541
:102A600030D050452ED058452CD0534A1832904281
:102A700028D0514A3032904224D04F4A48329042B6
:102A800020D04E4A90421DD04C4A1832904219D064
:102A90004A4A3032904215D0484A4832904200E0CB
:102AA00014E00FD0454A603290420BD0434A78324E
:102AB000904207D0414A9032904203D03F4AA83218
:102AC000904207D1006800F0080006E0006872E755
:102AD0000068B7E7006800F00400A0B1A9602068B2
:102AE0000168490304D50068000308D5A16C07E01C
:102AF0000168C90503D4016821F008010160216C57
:102B000009B12046884794F85C00202100F01F009E
:102B10008140394279D02068B04232D0404530D02F
:102B200048452ED050452CD058452AD0224A18323C
:102B3000904226D0204A3032904222D01E4A48325B
:102B400090421ED01D4A90421BD01C4A183290421F
:102B500017D01A4A3032904213D0184A4832904265
:102B60000FD0164A603290420BD0144A783290420D
:102B700007D0124A9032904203D0104AA8329042B5
:102B800003D1006800F0100002E0006800F00200CD
:102B9000B0B3A96094F835000428206801680FD00C
:102BA00049037ED5006800032BD4616C2AE0000045
:102BB000100002401C00002470000240100402407B
:102BC00021F0160101602068416921F08001416116
:102BD000206C08B9A06C20B12068016821F00801C0
:102BE000016094F85C303F21012003F01F030022B4
:102BF0009940A96084F8350084F83420216D65E09F
:102C000003E0E16B09B120468847606D00287DD064
:102C1000606DC00759D02068042184F83510B04297
:102C20002BD0404529D0484527D0504525D0584580
:102C300023D09D49884220D09B49183188421CD01E
:102C400099493031884218D09849884215D097491F
:102C50001831884211D09549303188420DD09349BE
:102C60004831884209D091496031884205D08F4966
:102C70007831884201D08D499031016821F00101FD
:102C8000016020680099019A491C0091914202D884
:102C90000168C907F6D10068C00710D003200FE013
:102CA000FFE70168C905ACD403680121002223F0C5
:102CB0001003036084F8351084F83420A1E7012064
:102CC00084F83500002084F83400E16C00291DD020
:102CD00002B02046BDE8F05F0847754988421DD024
:102CE00073491431884219D071492831884215D06E
:102CF0006F493C31884211D06D49503188420DD026
:102D00006B496431884209D0694900E084E0783138
:102D1000884203D066498C3188427DD194F85C802A
:102D20000427016808F01F0807FA08F717EA0C0FD4
:102D3000009746D04F0744D500980F04686003D52C
:102D4000C8033CD4A16CC1E7880638D42068B042DF
:102D50002DD055496039884229D0484527D0504563
:102D600025D0584523D05049884220D04E491831AB
:102D700088421CD04C493031884218D04B49884297
:102D800015D04A491831884211D04849303188421B
:102D90000DD046494831884209D0704507D090424D
:102DA00005D0984203D04149A831884203D1016837
:102DB00021F0080102E0016821F004010160216CAA
:102DC00084E7022707FA08F717EA0C0F00974ED09E
:102DD0008F074CD500980F04686003D5C80344D40E
:102DE000616C73E7880640D42068B0422FD02E492A
:102DF000603988422BD0484529D0504527D05845C6
:102E000025D02949884222D02749183188421ED02E
:102E100025493031884200E044E018D023498842F7
:102E200015D022491831884211D0204930318842CA
:102E30000DD01E494831884209D0704507D09042D4
:102E400005D0984203D01949A831884203D10168BE
:102E500021F0140102E0016821F00A010160012162
:102E600084F83510002084F83400E16B2EE7082246
:102E700002FA08F212EA0C0F14D0090712D5016801
:102E800021F00E01016094F85C100120002201F095
:102E90001F0100FA01F16960606584F8350084F86B
:102EA000342012E7BDE8FC9F880002401004024075
:102EB000085402582DE9F05F044600F059FC002C3C
:102EC00007467DD0E34E022120684FF00308DFF86B
:102ED00088934FF00005DFF884A3B042DFF880B399
:102EE00034D0DC4A1832904230D048452ED050457C
:102EF0002CD058452AD0DA4A1832904226D0D84AE7
:102F00003032904222D0D64A483290421ED0D54A22
:102F100090421BD0D34A1832904217D0D14A303257
:102F2000904213D0CF4A483290420FD0CD4A6032FF
:102F300090420BD0CB4A7832904207D0C94A9032A7
:102F4000904203D0C74AA83290427DD184F8351010
:102F5000B04284F834502ED0BE49183188422AD06D
:102F6000484528D0504526D0584524D0BC49183172
:102F7000884220D0BA49303188421CD0B849483103
:102F8000884218D0B749884215D0B64918318842CE
:102F900011D0B449303188420DD0B249483188420D
:102FA00009D0B0496031884205D0AE4978318842B5
:102FB00001D0AC499031016821F00101016008E0C5
:102FC00027E100BF00F0D4FBC01B052801D9202158
:102FD0001CE120680068C007F4D104F108002168F2
:102FE000D4E9053C8E4685C809681043D4E9072812
:102FF0001F43636A38439C4F40EA0C00104339403A
:1030000040EA0800042B40EA010003D1D4E90B1286
:1030100011430843954909686FF30F01B1F1005F4F
:103020000FD36168A1F12902052A08D9163A032AAB
:1030300005D9083A012A02D94F39032901D840F4A9
:103040008010CEF8000000E023E02068676A406945
:10305000042F20F0070047EA00070DD1D4E90A0148
:10306000074349B12046FEF773FB28B14020606555
:10307000012184F83510CCE0206847612046FEF736
:1030800085FA94F85C203F2102F01F029140816094
:1030900054E0774A90421BD0754B1433984217D0B6
:1030A000734B2833984213D0714B3C3398420FD066
:1030B0006F4B503398420BD06D4B6433984207D01E
:1030C0006B4B7833984203D0694B8C3398427DD157
:1030D00084F8351084F83450664B0168A26801EA20
:1030E000030E402A73D0802A72D00022D4E90378DC
:1030F000D4E9053142EAD70242EAD8085C4AD4E969
:10310000077C48EAD30848EAD10141EAD701524294
:1031100041EA1C11142341EA0E01016020681044A9
:10312000B0FBF3F08000E0652046FEF72FFA94F83C
:103130005C20012102F01F02914041602068B042F2
:1031400057D044491831884253D0484551D0504552
:103150004FD058454DD042491831884249D0404956
:103160003031884245D03E494831884241D03D49BE
:1031700088423ED03B49183188423AD039493031F3
:10318000884236D037494831884232D0354960319B
:1031900088422ED03349783188422AD03149903143
:1031A000884226D02F49A831884222D0304988420F
:1031B0001FD02F49143188421BD02D492831884215
:1031C00017D02B493C31884213D002E01DE017E0B4
:1031D00018E02749503188420BD025496431884294
:1031E00007D023497831884203D021498C31884265
:1031F00029D12046FEF724FAA06880280CD00CE0E4
:10320000102273E74FF4804270E74021616584F833
:1032100035800120BDE8F09F6560216E207908604F
:10322000D4E9190141606068401E072808D820468B
:10323000FEF754FAE06E0560D4E91C01416002E03B
:10324000E566256765670120656584F8350000201F
:10325000E0E7000010000240400002405800024039
:1032600070000240100402403F8010FE0010005C1D
:10327000085402580F00FEFF2DE9F84F04008C4659
:103280004FF00000009014D094F83400012812D0C0
:1032900094F835500120002184F83400012D0CD021
:1032A000C00260650120009084F834100098BDE8E9
:1032B000F88F0120FBE70220F9E78C4D02262068F9
:1032C00084F83560A8428A4D61658A4E8A4FDFF8DE
:1032D0002C82DFF82C92DFF82CA2DFF82CB226D05B
:1032E000A84224D0B04222D0B84220D040451ED0BF
:1032F00048451CD050451AD0584518D083498842BB
:1033000015D082491831884211D080493031884225
:103310000DD07E494831884209D07C4960318842CD
:1033200005D07A497831884201D0784990310168D6
:1033300021F00101016061462046FEF733FA6B4936
:10334000206888422CD0A8422AD0B04228D0B84267
:1033500026D0404524D0484522D0504520D058455D
:103360001ED06A4A90421BD0684A1832904217D049
:10337000664A3032904213D0644A483290420FD0AD
:10338000624A603290420BD0604A7832904207D055
:103390005E4A9032904203D05C4AA83290420CD1EF
:1033A000026822F01E0242F016020260206C88B110
:1033B0002068026842F008020BE0026822F00E0268
:1033C00042F00A020260206C20B12068026842F0DC
:1033D00004020260206888424BD0A84249D0B04223
:1033E00047D0B84245D0404543D0484541D05045EC
:1033F0003FD058453DD0454A90423AD0434A1832D2
:10340000904236D0414A3032904232D03F4A483220
:1034100090422ED03D4A603290422AD03B4A7832C8
:10342000904226D0394A9032904222D0374AA83270
:1034300090421ED0364A90421BD0354A14329042F8
:1034400017D0334A2832904213D0314A3C3290424E
:103450000FD02F4A503290420BD02D4A6432904206
:1034600007D02B4A7832904203D0294A8C329042BE
:103470000DD1206E0268D20303D5026842F4807237
:103480000260E06E18B1026842F480720260206847
:10349000884226D0A84224D0B04222D0B84220D0C0
:1034A00040451ED048451CD050451AD0584518D02C
:1034B0001649884215D015491831884211D0134950
:1034C000303188420DD011494831884209D00F4926
:1034D0006031884205D00D497831884201D00B49CE
:1034E0009031016841F001010160DFE61000024007
:1034F0002800024040000240580002407000024094
:1035000088000240A0000240B800024010040240BF
:10351000085402582DE9F84F03247D4D00234FF045
:1035200001094FF0B04B4FF00F0AE9E009FA03F739
:103530003A4076D00E7906F00306012E01D0022E15
:1035400018D1D0F808C04FEA430ECE6804FA0EF83E
:103550002CEA080C06FA0EF646EA0C068660D0F84D
:1035600004C00E792CEA070CC6F300169E4046EA0A
:103570000C0646600E79F643B6070BD0C6684FEAD4
:1035800043088F6804FA08FC26EA0C0607FA08F7D5
:103590003743C7600E7906F00306022E12D1DE080B
:1035A0000F694FEA437C00EB8606B646366A4FEA5F
:1035B000DC6C0AFA0CF807FA0CF726EA080637431F
:1035C000CEF820700F7906684FEA430807F003072A
:1035D00004FA08FC07FA08F726EA0C0637430760E6
:1035E0004E6816F4403F1CD04A4E376847F0020739
:1035F000376036689F0706F00206009623F0030640
:1036000006F1B046B6463F0FD6F80864DFF80881E9
:103610000AFA07FC404526EA0C0603D14FF0000CDD
:1036200041E06CE0DFF8F4C0604502D14FF0010CDE
:1036300039E0DFF8ECC0604502D14FF0020C32E017
:10364000DFF8E0C0604502D14FF0030C2BE0DFF85B
:10365000D8C0604502D14FF0040C24E0DFF8CCC0A4
:10366000604502D14FF0050C1DE0DFF8C4C0604595
:1036700002D14FF0060C16E0DFF8B8C0604502D169
:103680004FF0070C0FE0DFF8B0C0604502D14FF0FB
:10369000080C08E0DFF8A4C0604502D14FF0090C27
:1036A00001E04FF00A0C0CFA07FC4CEA060CCEF8CD
:1036B00008C44F68DBF80060FF0226EA020600D566
:1036C00016435F46CBF80060D1F804C0DBF8046015
:1036D0005FEA8C2C26EA020600D516437E606E68EF
:1036E0004F6826EA0206BF0300D516436E602E68B7
:1036F0004F6826EA0206FF0300D516432E605B1CC6
:103700000A6832FA03F67FF411AFBDE8F88F0000C3
:1037100080000058F4440258000002580004025887
:1037200000080258000C02580010025800140258F9
:1037300000180258001C02580020025800240258A9
:103740000069084000D001207047426921EA020365
:103750000A4043EA0241816170470AB181617047C2
:103760000904FBE701480068000C70470010005C8A
:1037700001488068704700001000002430B590F8C0
:103780004120202A24D190F84020012A20D0012372
:1037900080F84030242280F8412020230024026851
:1037A000156825F0010515600268156825F4805537
:1037B0001560026815680D43156001680A6842F0DB
:1037C00001020A6080F8413080F84040002030BD9E
:1037D000022030BD30B590F84120202A22D190F847
:1037E0004020012A1ED0012380F84030242280F896
:1037F0004120202400250268136823F00103136090
:103800000268136823F4706343EA012111600168C0
:103810000A6842F001020A6080F8414080F8405096
:10382000002030BD022030BD70B5040004D094F8F3
:103830004100002510B106E0012070BD204684F84B
:10384000405000F051F8242084F8410020680168BD
:1038500021F001010160D4E9001020F070600861DE
:103860002068816821F400418160E06821680128B6
:10387000A06830D040F404408860E06802282068E6
:1038800041682BD021F40061416020682021154A55
:103890004368134343602068C26822F40042C26058
:1038A00054F8106B0DCC104340EA0320F06054F83C
:1038B0001C3CD4E900021043186054F81C0D026847
:1038C00042F001020260656484F84110256384F8C7
:1038D0004250002070BD40F40040CDE741F400614B
:1038E000D2E700000080000210B5B6B004461421F3
:1038F00030A8FCF799FDC0216846FCF795FD1849F2
:10390000206888422AD10020219008210446CDE970
:103910000010684600F0CAFC08B1FEF754F81148E0
:10392000016841F002010160006830AB122100F033
:1039300002003590C020042283E813000A4830A911
:10394000CDE93342FFF7E6FD06480830016841F44F
:1039500000110160006800F40010359036B010BD11
:1039600000540040E04402580004025802488168B4
:10397000027811448160704710000024032010B5C4
:1039800000F0FAF801F00AFB0F4A104914681368B6
:10399000C4F3032203F00F038A5CC95C02F01F0228
:1039A00001F01F01D0400A4A20FA01F111600949D3
:1039B00008600F2000F010F808B1012010BD00F0E1
:1039C0009BF8002010BD00001844025880990008A0
:1039D000200000241C00002410B5102804468AB0E2
:1039E0002AD200220146192000F0A6F8192000F082
:1039F00095F8154804601548016841F0010101601F
:103A0000006808A900F001000990684601F052FA28
:103A100001F0B2FA0E49400000220E4CB0FBF1F169
:103A20000D4840F2E7330460C0E90332491EC0E9A3
:103A3000011201F087FF10B101200AB010BD064845
:103A400002F012F8F9E7000014000024F0440258D4
:103A500040420F000000014088040024154BF0B5DF
:103A6000083B427813491A600B680A1F23F00103D0
:103A70000B6043681360057BC67A827A437B2D070F
:103A8000847B45EA0665C77B90F809C0067A90F802
:103A900000E045EAC24040EA834040EA444040EA50
:103AA000074040EA0C2040EA460040EA0E00086069
:103AB000F0BD0000A0ED00E0BFF35F8F04480021DF
:103AC0000368034A23F48033036070321160704747
:103AD00024ED00E0074A40F0010006497032106012
:103AE000086840F480300860BFF34F8FBFF36F8FDA
:103AF0007047000024ED00E0074882B0016841F003
:103B000002010160006800220F2100F00200009015
:103B1000901E02B000F010B8F4440258002809DBEF
:103B2000410900F01F028900012001F1E0219040CD
:103B3000C1F80001704700000E4BF0B41B680D4641
:103B4000C3F30223C3F10706042E00D90426191D6E
:103B5000072901D2002300E0DB1E012404FA06F14C
:103B60009C40491E2940641E994014402143F0BCEA
:103B700003F06BBB0CED00E0064900F0070210B546
:103B80004FF6FF040868044B204040EA0220184327
:103B9000086010BD0CED00E00000FA05134970B597
:103BA0000A68D243520705D5096801F0070181422E
:103BB00013D118E00A6822F0070202430A60FFF7F7
:103BC000D7FD0A4D4FF47A760446083D07E000BF62
:103BD000FFF7CEFD001BB04201D9012070BD28685F
:103BE000C0438004F4D4002070BD00000C4802588B
:103BF00010B501F08DF905490968054AC1F30211B4
:103C0000515C01F01F01C84010BD00002044025863
:103C1000809900084A4930B5494C0B1D0A680C349C
:103C200009681D68246802F0030305F00102C1F36E
:103C30000511C4F3CC04002914FB02F200EE102A93
:103C4000F8EE400A76D0414A9FED3E1ADFED3E1A6B
:103C5000B7EE000A23B1012B5AD0022B18D15CE039
:103C6000374C283C23689B0612D5394B246801EE5B
:103C7000901A1168C4F3C104F8EE612AE34001EE22
:103C8000903AC1F30801F8EE611A81EEA22A07E02A
:103C900002EE101A1168F8EE422A81EEA22A45E0DF
:103CA00001EE901A1168F8EE611A40EE811A71EE79
:103CB000800A62EE200AC1F3462101EE101AB8EE26
:103CC000411A31EE001AC0EE811ABCEEE11A80ED05
:103CD000001A1168C1F3064101EE101AB8EE411A3C
:103CE00031EE001AC0EE811ABCEEE11A80ED011A25
:103CF0001168C1F3066101EE101AB8EE411A31EEF7
:103D0000000A80EE801ABCEEC10A80ED020A30BDC6
:103D100001EE901ADFED0F2A03E001EE901ADFEDBD
:103D20000E2A1168F8EE611A82EEA12AC1F3080189
:103D3000B6E7FFE7002101604160816030BD00000F
:103D400028440258000000390024744C30440258C2
:103D50000090D0030024744A20BCBE4B494930B5C2
:103D6000484C0B1D0A68143409681D68246802F069
:103D70000303C5F30012C1F30531C4F3CC040029D9
:103D800014FB02F200EE102AF8EE400A75D03F4A0A
:103D90009FED3D1AB7EE000A6BB1DFED3D1A012B26
:103DA00001D0022B64D002EE101A1168F8EE422AFC
:103DB00081EEA22A21E0334C283C23689B0612D5D1
:103DC000344B246801EE901A1168C4F3C104F8EE74
:103DD000612AE34001EE903AC1F30801F8EE611A5E
:103DE00081EEA22A0BE001EE901ADFED2B2A00BF34
:103DF000F8EE611A116882EEA12AC1F3080101EE02
:103E0000901A1168F8EE611A40EE811A71EE800A7C
:103E100062EE200AC1F3462101EE101AB8EE411AF3
:103E200031EE001AC0EE811ABCEEE11A80ED001AE4
:103E30001168C1F3064101EE101AB8EE411A31EED5
:103E4000001AC0EE811ABCEEE11A80ED011A116869
:103E5000C1F3066101EE101AB8EE411A31EE000A04
:103E600080EE801ABCEEC10A80ED020A30BD04E08B
:103E700001EE901ADFED092ABAE7002101604160E6
:103E80008160F3E7284402580000003938440258A2
:103E90000024744A0090D0030024744C20BCBE4B14
:103EA000494930B5484C0B1D0A681C3409681D6827
:103EB000246802F00303C5F30022C1F30551C4F3E3
:103EC000CC04002914FB02F200EE102AF8EE400A9E
:103ED00075D03F4A9FED3D1AB7EE000A6BB1DFED9A
:103EE0003D1A012B01D0022B64D002EE101A11688A
:103EF000F8EE422A81EEA22A21E0334C283C2368C6
:103F00009B0612D5344B246801EE901A1168C4F355
:103F1000C104F8EE612AE34001EE903AC1F30801D2
:103F2000F8EE611A81EEA22A0BE001EE901ADFEDA5
:103F30002B2A00BFF8EE611A116882EEA12AC1F3A4
:103F4000080101EE901A1168F8EE611A40EE811A2C
:103F500071EE800A62EE200AC1F3462101EE101ACA
:103F6000B8EE411A31EE001AC0EE811ABCEEE11A29
:103F700080ED001A1168C1F3064101EE101AB8EE87
:103F8000411A31EE001AC0EE811ABCEEE11A80ED42
:103F9000011A1168C1F3066101EE101AB8EE411A58
:103FA00031EE000A80EE801ABCEEC10A80ED020AF2
:103FB00030BD04E001EE901ADFED092ABAE70021D6
:103FC000016041608160F3E7284402580000003935
:103FD000404402580024744A0090D0030024744CDA
:103FE00020BCBE4B2DE9F04FAC4A0546DFF8A8A235
:103FF00080F48070DFF8AC9289B01311AA4C0843AA
:10400000A748AAF104064FF0805C4FF000582CD06E
:1040100085F400770F4357D0DFF87CB285F48067D2
:104020000F430BF1080B61D085F400670F4374D088
:1040300085F480570F436ED085F400570F434FF43B
:1040400080394FF4003E67D085F400270F4371D0CC
:1040500085F480370F436ED085F480460E436BD0D5
:1040600085F400420A4368D02AE0DAF8001001F033
:104070000701052924D2DFE801F075BC7D25B100D8
:1040800006A8FFF7C7FD079809B0BDE8F08F68469E
:10409000FFF764FE0098F7E703A8FFF701FF039816
:1040A000F2E72068C0F3C10022FA00F0ECE72268D2
:1040B000D20571D561456FD11846E5E74145E3D09A
:1040C0000020E1E74846DFE7DAF8001001F4E0718C
:1040D00080294FD004DC002944D04029F0D188E069
:1040E000C029EFD0B1F5807FEAD177E0DBF800108E
:1040F00001F46001B1F5800F3CD004DC91B3B1F55F
:10410000001FDDD175E0B1F5C00FDBD0B1F5000FB8
:10411000D6D163E001E018E030E0DBF8001001F0F8
:10412000E061B1F1007F25D008DCD9B1B1F1807F29
:10413000C6D15EE049E06CE079E09CE0B1F1407FFF
:10414000C0D0B1F1806FBBD148E0DAF8001001F4C3
:10415000E041B1F5005F0DD005DC19B1B1F5805F2C
:10416000AED146E094E0B1F5405FABD0B1F5804F01
:10417000A6D133E020688000A2D58DE7DAF80010E0
:1041800001F4E021B1F5403F6CD006DC61B1494556
:104190007AD0714594D157E037E0B1F5802F65D0E2
:1041A000B1F5A02F8CD10CE000F0D4FE6CE768468E
:1041B000FFF7D4FD019867E703A8FFF771FE0498A5
:1041C00062E721688903F1D47AE7DBF8001011F483
:1041D00040310ED0494510D07145F5D13168256880
:1041E00001F040516D077FF562AF00297FF45FAFAA
:1041F00057E720680001E7D549E720688000E3D54C
:1042000003A8FFF74DFE05983EE722689203DBD531
:1042100054E7306810F480303AD04845D4D1206853
:104220000001D1D56846FFF799FD02982CE7DBF82D
:10423000001001F0E041B1F1405F13D008DC71B132
:10424000614521D04145BFD120688000B4D437E713
:10425000B1F1804F0AD0B1F1A04FB2D030E7FFF7F3
:10426000C7FC11E720684007AED51AE72068C005F3
:10427000AAD521E708E0DAF8001011F04051A0D0EB
:10428000614505D041459FD1206800018FD417E7D3
:104290002068800198D5F3E6504402580090D0037E
:1042A00040787D010080BB00004402582DE9FE4F9C
:1042B0000546DFF8E48350F8081B0024F64FC94395
:1042C000019005F12800264608F124080090080115
:1042D0001DD4A86E50B1B0F5801F0CD0B0F5001FF2
:1042E0000ED0B0F5401F1ED001240FE0386840F416
:1042F0000030386017E00198022102F0D5F803E0A1
:104300000098022102F060F904000CD026462888AB
:10431000C043C00523D4A86D05281ED2DFE800F0F5
:104320000C11161B1B00AA6ED8F8001021F44011C6
:104330001143C8F80010EAE7386840F400303860EC
:1043400009E00198002102F0AFF803E00098002195
:1043500002F03AF9044674B100E0012426462888A8
:10436000C043800528D4E86D80281ED00CDC90B1B5
:1043700040280ED114E0AA6DD8F8001021F00701F2
:104380001143C8F80010EAE7C02813D0B0F5807FC9
:1043900010D001240FE0386840F40030386009E0A4
:1043A0000198002102F080F803E00098002102F05B
:1043B0000BF904469CB126462888DFF8DC92C043FE
:1043C00009F12C0940052CD4D5F8A800B0F5800FD0
:1043D00020D00DDCA0B1B0F5001F0FD115E0EA6DC3
:1043E000D8F8001021F4E0711143C8F80010E3E799
:1043F000B0F5C00F13D0B0F5000F10D001240FE0BE
:10440000386840F40030386009E00198002102F07B
:104410004BF803E00098002102F0D6F804467CB186
:1044200026462888C04300052DD4D5F8AC00B0F14D
:10443000007F21D00EDCA8B1B0F1807F10D116E052
:10444000D5F8A820D9F8001021F460011143C9F86B
:104450000010E6E7B0F1407F13D0B0F1806F10D0CC
:1044600001240FE0386840F40030386009E001981A
:10447000002102F019F803E00098002102F0A4F8EE
:10448000044674B126462868C04380011FD4E86CF6
:10449000D8B110280FD0202812D0302815D00124F0
:1044A00014E0D5F8AC20D9F8001021F0E0611143F8
:1044B000C9F80010E7E7386840F40030386004E0DD
:1044C0000198022101F0F0FF044674B126462888C5
:1044D000C043C0042BD4286EB0F5005F20D00DDCA3
:1044E000A0B1B0F5805F0FD115E06B48EA6C2030C9
:1044F000016821F0300111430160E8E7B0F5405F49
:1045000013D0B0F5804F10D001240FE0386840F48C
:104510000030386009E00198002101F0C5FF03E098
:104520000098002102F050F804468CB126462888F5
:10453000C043800429D4686EB0F5403F23D010DC1E
:1045400008B3B0F5803F14D0B0F5003F0FD115E0AF
:104550002A6ED8F8001021F4E0411143C8F8001089
:10456000E5E7B0F5802F0ED0B0F5A02F0BD00124D9
:104570000AE00198012101F097FF03E00098012172
:1045800002F022F8044694B126462888C04340042D
:104590002AD4D5F8B000B0F1405F23D010DC08B3C6
:1045A000B0F1805F14D0B0F1005F0FD115E06A6EFA
:1045B000D8F8001021F4E0211143C8F80010E4E716
:1045C000B0F1804F0ED0B0F1A04F0BD001240AE023
:1045D0000198012101F068FF03E00098012101F03A
:1045E000F3FF044674B126462888C04300041FD454
:1045F000286FD8B1B0F1805F0ED0B0F1005F10D05D
:10460000012414E0D5F8B020D9F8001021F0E041E1
:104610001143C9F80010E7E7386840F4003038600B
:1046200004E00198012101F03FFF044674B12646E1
:104630002868C043C0011ED4A86CD0B101280ED098
:10464000022811D0032814D0012413E02A6FD8F8CF
:10465000001021F040511143C8F80010E8E7386815
:1046600040F40030386004E00198022101F01CFFA2
:104670000446ACB126462868DFF81CB0C043ABF155
:104680001C0B400252D40548016841F4807101605E
:10469000FFF76EF8824611E02C4402580048025899
:1046A000FA48AA6C016821F0030111430160E2E7B6
:1046B000FFF75EF8A0EB0A00642835D8F4480068DC
:1046C000C005F5D58CBBDFF8C4A3B5F8B4100AF16A
:1046D000240ADAF8000001F4407100F440708842C6
:1046E00011D0DAF80010DAF8002021F4407142F419
:1046F0008032CAF80020DAF8002022F48032CAF8AA
:104700000020CAF80010D5F8B400B0F5807F1AD1A7
:10471000FFF72EF8029012E0FFF72AF80299411AEB
:1047200041F2883081420AD9032426462878DFF8EE
:104730005CA3C0430AF1080AC00721D03CE0DAF8C4
:1047400000008007E8D5D5F8B410C1F30120032894
:1047500058460DD0016821F47C510160B5F8B420B1
:10476000DAF80010C2F30B021143CAF80010DDE7BB
:10477000C84A036802EA111223F47C511143ECE7A2
:10478000E86F182816D005DCA0B1082808D010283A
:1047900004D10AE020280DD028280BD001240AE0FB
:1047A0000198012101F080FE03E00098012101F051
:1047B0000BFF044664B126462878C04380071ED408
:1047C000A86F062819D2DFE800F0160C111616168D
:1047D000EA6FDAF8001021F038011143CAF800102E
:1047E000EAE70198012101F05FFE03E00098012152
:1047F00001F0EAFE04467CB100E001242646287858
:10480000C04340071FD4D5F89400062819D2DFE82A
:1048100000F0160C11161616AA6FDAF8001021F027
:1048200007011143CAF80010E9E70198012101F0DE
:104830003BFE03E00098012101F0C6FE0446A4B14E
:1048400000E0012426462878C04380062BD4D5F802
:104850009000B0F1405F24D011DC10B3B0F1805F64
:1048600015D0B0F1005F10D116E0D5F89420D9F83A
:10487000001021F007011143C9F80010E3E7B0F17F
:10488000804F0ED0B0F1A04F0BD001240AE0019868
:10489000002101F009FE03E00098022101F094FEDE
:1048A000044694B126462878C04340062BD4D5F858
:1048B0009C00B0F5406F24D011DC10B3B0F5806FD0
:1048C00015D0B0F5006F10D116E0D5F89020DAF8C9
:1048D000001021F0E0411143CAF80010E3E7B0F501
:1048E000805F0ED0B0F5A05F0BD001240AE00198E4
:1048F000002101F0D9FD03E00098022101F064FEDF
:10490000044694B126462878C04300062BD4D5F837
:10491000A000B0F5C04F24D011DC10B3B0F5005F9B
:1049200015D0B0F5804F10D116E0D5F89C20D9F8FD
:10493000001021F4E0511143C9F80010E3E7B0F58D
:10494000004F0ED0B0F5204F0BD001240AE00198A3
:10495000002101F0A9FD03E00098022101F034FEDE
:10496000044654B126462878C04300071ED4D5F823
:104970008400B0F5805F0AD00FE0D5F8A020D9F808
:10498000001021F460411143C9F80010EBE70098D2
:10499000022101F019FE00B10126D5F88420DAF8D1
:1049A000001021F440511143CAF800102878C04388
:1049B000C00613D4D5F89800B0F5807F05D10098D3
:1049C000022101F001FE00B10126D5F89820D9F8A6
:1049D000001021F440711143C9F800102868C04349
:1049E000000316D4D5F8A40038B1B0F5803F09D043
:1049F000B0F5003F0BD001240AE00198002101F03E
:104A000053FD03E00098022101F0DEFD04468CB165
:104A100026462868C043400322D4D5F88800B0F564
:104A2000801F11D0B0F5001F13D0B0F5401F15D076
:104A3000012414E0D5F8A420D9F8001021F4403165
:104A40001143C9F80010E4E7386840F400303860DA
:104A500004E00098012101F0B7FD04465CB1264650
:104A60002868C043C00323D4286DA8B1B0F5803FA7
:104A700017D001241BE0D5F88820DAF8001021F4C3
:104A800040111143CAF80010EAE700004C440258F4
:104A900000480258CFFFFF00386840F4003038600B
:104AA00004E00198022101F0FFFC0446E4B126462F
:104AB0002868C043800005D40098022101F084FDDD
:104AC00000B101262868C04380031BD4D5F88000BC
:104AD000B0B1B0F5807F0FD0B0F5007F10D0B0F549
:104AE000407F0DD001240CE05A482A6D016821F462
:104AF000803111430160DBE7386840F400303860F2
:104B0000ECB326462868C043C00207D46A6FD8F8C1
:104B1000001021F000411143C8F800102868C0437C
:104B2000C00008D4D5F8B820DBF8001021F480418B
:104B30001143CBF800102868C043800207D4EA6E06
:104B4000D8F8001021F080711143C8F800102868CF
:104B5000C04340000CD4DBF8001021F40041CBF836
:104B60000010DBF80010D5F8BC201143CBF8001082
:104B70002868C04308D437486A6D016800E018E02F
:104B800021F04051114301602868C043000208D45D
:104B9000D5F88C20DAF8001021F440011143CAF84E
:104BA000001028790024C04300F0010020430AD0FF
:104BB0000FE0D5F88020DAF8001021F4407111439D
:104BC000CAF800109EE70198002101F06DFC00B1C9
:104BD00006462879C04300F00200204305D1019821
:104BE000012101F061FC00B106462879C04300F0C4
:104BF0000400204305D10198022101F055FC00B1C9
:104C000006462879C04300F00800204305D10098EB
:104C1000002101F0D9FC00B106462879C04300F01C
:104C20001000204305D10098012101F0CDFC00B116
:104C300006462879C04300F02000044304D10098C0
:104C4000022101F0C1FC00B916B10120BDE8FE8FC0
:104C50000020FBE74C4402582DE9F05F04000F46AA
:104C60007ED0DFF83882D8F8000000F00F00B8429C
:104C70000CD2D8F8001021F00F013943C8F8001009
:104C8000D8F8000000F00F00B84269D12078844DB8
:104C900040070AD52069296801F07001884204D9CB
:104CA000296821F070010143296020787C4E361D6F
:104CB00000070AD56069316801F07001884204D9A3
:104CC000316821F07001014331602078C0060AD5B7
:104CD000A069316801F4E061884204D9316821F4A7
:104CE000E061014331602078DFF8B4B180060BF158
:104CF000080B0CD5E1695846DBF8002002F0700281
:104D0000914204D9026822F070020A4302602078BE
:104D100080070AD5E068296801F00F01884204D9AC
:104D2000296821F00F01014329602078C0073ED097
:104D30005B49A2682868183920F470601043286025
:104D40006068022818D0032819D00968012819D0F2
:104D5000490700294ADADFF848A1AAF1080A00E069
:104D600044E0DAF8002022F007020243CAF80020EB
:104D7000FEF7FEFC814612E009688903E9E709684D
:104D80008901E6E7C905E4E7FEF7F2FCA0EB0901BB
:104D900041F28830814202D90320BDE8F09F61686A
:104DA000DAF8000000F03800B0EBC10FECD1207849
:104DB00080070AD5E068296801F00F01884204D213
:104DC000296821F00F0101432960D8F800104046FE
:104DD00001F00F01B9420BD9016821F00F013943ED
:104DE0000160006800F00F00B84201D00120D4E754
:104DF000207840070AD52069296801F070018842AF
:104E000004D2296821F0700101432960207800074D
:104E10000AD56069316801F07001884204D23168B6
:104E200021F07001014331602078C0060AD5A069E5
:104E3000316801F4E061884204D2316821F4E06114
:104E400001433160207880060CD5E1695846DBF8D3
:104E5000002002F07002914204D2026822F0700237
:104E60000A43026000F09AF80E492A682B68C2F3E0
:104E7000032203F00F038A5CC95C02F01F0201F0F9
:104E80001F01D040084A20FA01F11160074908606B
:104E900007480068BDE8F05FFEF79EBD00200052A5
:104EA0001844025880990008200000241C000024A7
:104EB0001400002470B5144C3F220260124A24688A
:104EC0000832131D114D04F00704446016681C1DC0
:104ED00006F470668660166806F00F06C6601268F3
:104EE00002F0700202611A6802F0700242611A68F0
:104EF00002F4E0628261226802F07002C2612868F6
:104F000000F00F00086070BD1044025800200052ED
:104F100030B500F043F80B4A0B490C4B1568146888
:104F2000C5F3032204F00F048A5C095D02F01F023E
:104F300001F01F01D040064A20FA01F1196010600B
:104F4000084630BD1844025880990008200000240B
:104F50001C00002400B5FFF7DBFF05490968054A7E
:104F6000C1F30211515C01F01F01C84000BD0000F7
:104F70001C4402588099000800B5FFF7C9FF054995
:104F80000968054AC1F30221515C01F01F01C840C4
:104F900000BD00001C44025880990008454970B5C6
:104FA00045480968434B103B11F0380208D0011105
:104FB000082A03D0102A0BD0182A0BD0084670BD3F
:104FC00019688906FBD51968C1F3C101C84070BDD5
:104FD0003A4870BD3749374D18310C1D24350A68E1
:104FE000096826682D6802F0030406F00102C1F387
:104FF0000511C5F3CC0515FB02F200EE102AB8EE40
:10500000400AE9B32F4ADFED2E0AB7EE001A6CB161
:10501000DFED2D1A012C01D0022C43D002EE101A24
:105020001068F8EE422A81EEA22A1EE01C68A4064F
:1050300011D51B6801EE901A1168C3F3C103F8EE95
:10504000612AD84001EE900AC1F30800F8EE611A17
:1050500081EEA22A0BE001EE901ADFED1C2A00BFC0
:10506000F8EE611A106882EEA12AC0F3080001EE82
:10507000900AF8EE611A40EE201A31EE810A00E043
:1050800015E022EE000A1068C0F34620401C00EE36
:10509000900AF8EE600A80EE201ABCEEC10A10EE0B
:1050A000100A70BD01EE901ADFED092AD8E7002042
:1050B00070BD0000104402580090D00340787D017C
:1050C00000000039304402580024744A0024744C13
:1050D00020BCBE4B2DE9F05F04007DD0FF4F20784F
:1050E000FE4D1837DFF8F493103DC00748D0D9F8CB
:1050F0000000396800F03800102815D0182803D1B6
:1051000001F0030002280FD06068B0F5803F12D094
:1051100010B1B0F5A02F18D0286820F48030286096
:10512000286820F4802009E02868800328D560687A
:105130000028D2D024E0286840F4803028606068DD
:1051400088B1FEF715FB064609E0286840F4802088
:105150002860F0E7FEF70CFB801B64286FD82868F6
:105160008003F7D50CE0FEF703FB064605E000BF21
:10517000FEF7FEFA801B6428F0D828688003F7D475
:10518000207841F20308D54E0C3E800769D5D9F846
:105190000000396810F038000ED0182801D18807B7
:1051A0000AD0E06890B3296821F019010143296011
:1051B000FEF7DEFA824631E02868400702D5E06853
:1051C00000288AD0E168286820F019000843286088
:1051D000FEF7CEFA824607E0DFE000BFFEF7C8FA2E
:1051E000A0EB0A000228B9D828684007F6D500BF0E
:1051F000FEF7B8FA40451BD82069402812D0316824
:1052000021F47C3141EA003030602AE018E000BF30
:10521000FEF7AEFAA0EB0A0002289FD828684007E4
:10522000F6D5E5E7306820F47C3040F40030EBE759
:10523000207C316821F0FE4141EA0060E4E70DE1A5
:10524000286820F001002860FEF792FA824605E007
:10525000FEF78EFAA0EB0A0002288DD828684007D6
:10526000F6D42078C0065DD5D9F80000DFF86CB21E
:10527000396800F03800ABF1040B082810D018286A
:1052800003D101F0030001280AD0E0690028286852
:1052900038D040F080002860FEF76AFA824623E0AA
:1052A0002868C00523D5E069802876D11FE0206AF0
:1052B000202821D0316821F0F84141EA8060306037
:1052C00030E000BF94F82010DBF8002022F07C5280
:1052D00042EA0161CBF8001024E000BFFEF748FA73
:1052E000A0EB0A00022898D82868C005F6D5FEF77A
:1052F00039FA4045E6D8DAE7306820F0F84040F067
:105300008040DCE720F080002860FEF731FA064696
:1053100005E000BFFEF72CFA801B02289DD8286804
:10532000C005F7D42078000729D56C48616964303E
:1053300000298046016811D041F001010160FEF7AB
:1053400017FA064605E000BFFEF712FA801B022896
:10535000C9D8D8F800008007F6D510E021F0010187
:105360000160FEF705FA064605E000BFFEF700FA09
:10537000801B022872D8D8F800008007F6D4207865
:10538000800623D5A0690028286810D040F48050FA
:105390002860FEF7EDF9064605E036E1FEF7E8F98C
:1053A000801B02285AD828688004F7D50EE020F424
:1053B00080502860FEF7DCF9064604E0FEF7D8F9D5
:1053C000801B02284AD828688004F7D42078400738
:1053D0004FD5DFF80C81D8F8001041F48071C8F87F
:1053E0000010FEF7C5F9064605E000BFFEF7C0F95C
:1053F000801B642832D8D8F80000C005F6D5374E97
:10540000A068603601280AD008B1052813D030689A
:1054100020F001003060306820F0040002E03068C5
:1054200040F001003060A06841F2883A90B1FEF788
:105430009FF980460AE0306840F004003060EEE7F3
:10544000FEF796F9A0EB0801514507D830688007B0
:10545000F6D50EE0FEF78CF9804607E084E000BF49
:10546000FEF786F9A0EB080151457DD8306880072A
:10547000F6D4606AB0B3DFF86480D9F8001008F1A0
:1054800020084FF6F87B08F10409C1F3C201032993
:10549000A8F1040A69D00228286820F080702860EA
:1054A00003D0FEF765F9044684E0FEF761F906468D
:1054B00005E000BFFEF75CF9801B022877D828685A
:1054C0008001F7D4E26A40F2F331386854F8283F9B
:1054D000884340EA02101843386004E01044025840
:1054E00000480258B5E0217B434622894FF4FE0C68
:1054F000208A4FF0FE474902267D521E401EA1F52C
:105500000071C2F308088AB2761E0CEA004042EA33
:1055100008020243504607EA06610A431A60DAF8B5
:10552000002022F00102CAF80020D9F80020266AE3
:1055300022EA0B0242EAC602C9F80020DAF800109B
:10554000A26921F00C011143CAF800100168E26958
:1055500021F0020111430160016841F480310160D2
:10556000016841F4003101E021E027E001600168B9
:1055700041F480210160016841F001010160286867
:1055800040F080702860FEF7F3F8044605E000BFA5
:10559000FEF7EEF8001B022809D828688001F7D52D
:1055A00057E000BFFEF7E4F8001B022802D90320F1
:1055B000BDE8F09F28688001F4D44AE039680128EA
:1055C000D8F8000021D0A26A01F0030393421CD155
:1055D000E26AC1F305118A4217D1216BC0F30802B8
:1055E000491E8A4211D1616BC0F34622491E914285
:1055F0000BD1A16BC0F30642491E914205D1E16B6C
:10560000C0F30660491E814201D00120D0E7A16CA1
:105610004E46D9F80000C0F3CC00814219D0DAF828
:105620000000554620F00100CAF80000FEF7A0F87F
:105630004FEA0007FEF79CF8B842FBD0A26C306836
:1056400020EA0B0040EAC2003060286840F0010008
:1056500028600020ACE700002DE9F047040029D0C5
:10566000594A4FF000092068584B594D9042C4F8F0
:10567000289006D0984204D0A84202D0E1680F29B1
:1056800018D8E1684FF0010AE76B0831C9080AEB46
:1056900057167143904205D0984203D0A84201D0DA
:1056A000082907D8904203D0984201D0A84204D1DB
:1056B000102902D90120BDE8F08794F8810020B9B3
:1056C000204684F8809000F085F8022084F881005C
:1056D0002068016821F0010101602068A1698268E9
:1056E000B1F1806F02F4F81110D16268B2F5800F49
:1056F00001D01AB10AE0A26B22B107E0A26BB2F1AD
:10570000805F03D1026842F4805202606068400208
:1057100009D5E068072806D32068236D026822F4C3
:1057200080721A4303E02068026822F480720260EB
:10573000A66AE069E26B25683043E3680A431043D8
:105740001843A860D4E90D02D4E90581636A25698C
:105750001843D4F820C00A43266810432843A56D97
:10576000D4E90172D4E9123140EA080040EA0C00A1
:1057700038430843104318432843F060606868B911
:105780002068816821F4C05141F400618160206883
:10579000816821F4C06141F4806181602068016DFD
:1057A00021F0010101656068400206D52068626D44
:1057B000C16821F000411143C160C4F8849084F8AD
:1057C00081A0002077E70000003001400038004051
:1057D000003C004070B5B6B00446142130A8FAF77A
:1057E00023FEC0216846FAF71FFE27492068884239
:1057F00048D1002180140C460225CDE900010AA9F8
:105800002022782381E82C0086100D950E9540000B
:10581000CDE90F64119418906846FEF747FD08B172
:10582000FCF7D1F81948016841F480510160006823
:1058300000F48050359015481038016841F001019E
:105840000160016801F001013591016841F0020138
:1058500001600068052630A900F002003590802024
:105860003090CDE931540A48CDE93346FDF752FE78
:1058700018203090CDE93154064830A9CDE933469F
:10588000FDF748FE36B070BD00300140F0440258CC
:10589000000002580004025870477047704700002B
:1058A000F0B590F83C20012A3BD01F4E012480F82F
:1058B0003C40022280F83D2002681C4D5368B242F1
:1058C000D2F808C001D0AA4203D14F6823F4700374
:1058D0003B430F6823F070031F4357600268B242D6
:1058E00013D0B2F1804F10D0114B9A420DD0114B12
:1058F0009A420AD0104B9A4207D0AA4205D00F4BC9
:105900009A4202D00E4B9A4204D189682CF080034F
:1059100019439160002180F83D4080F83C10084612
:10592000F0BD0220F0BD0000000001400004014075
:105930000004004000080040000C00400018004037
:105940000040014010B5040003D094F83D0010B1B0
:1059500007E0012010BD002084F83C00204600F044
:1059600023F8022084F83D002068211D01F082F810
:10597000012084F8480084F83E0084F83F0084F851
:10598000400084F8410084F8420084F8430084F821
:10599000440084F8450084F8460084F8470084F801
:1059A0003D00002010BD000008B50C4A01680C48FD
:1059B000914207D1016841F002010160006800F0E6
:1059C000020009E0074A914207D1016841F0040151
:1059D0000160006800F00400009008BD0004004071
:1059E000E84402580008004090F83D10012901D019
:1059F00001207047144B0222016880F83D20994233
:105A000014D0B1F1804F11D0104881420ED010480F
:105A100081420BD00F48814208D00F48814205D007
:105A20000E48814202D00E48814207D188680D4A53
:105A30001040062806D0B0F5803F03D0086840F03B
:105A40000100086000207047000001400004004091
:105A500000080040000C0040000401400018004015
:105A6000004001400700010090F83D10012901D0DD
:105A700001207047174A022180F83D100168CB6869
:105A800043F00103CB600068904214D0B0F1804F26
:105A900011D0114988420ED0104988420BD01049CC
:105AA000884208D00F49884205D00F49884202D069
:105AB0000E49884207D181680D4A1140062906D057
:105AC000B1F5803F03D0016841F001010160002081
:105AD0007047000000000140000400400008004042
