:020000040800F2
:10000000B011052471030008238E0008BF87000883
:10001000218E0008452E000881AE00080000000077
:10002000000000000000000000000000B102000815
:1000300009350008000000000D030008F99E0008C3
:100040008B0300088B0300088B0300088B03000858
:100050008B0300088B0300088B0300088B03000848
:100060008B0300088B0300088B030008B9300008DD
:10007000C53000088B0300088B0300088B030008C1
:100080008B0300088B0300088B0300088B03000818
:100090008B0300088B0300088B0300088B03000808
:1000A0008B03000899A000088B0300088B0300084D
:1000B0008B0300088B0300088B0300088B030008E8
:1000C0008B0300088B0300088B0300088B030008D8
:1000D0008B03000869AE00088B0300088B0300083F
:1000E0008B0300088B030008000000008B0300084E
:1000F0008B0300088B0300088B0300088B030008A8
:100100008B0300088B0300088B0300088B03000897
:100110008B0300088B030008A5A000088B030008D0
:100120008B0300088B0300088B0300088B03000877
:100130008B0300088B0300088B0300088B03000867
:1001400000000000000000000000000000000000AF
:100150008B0300088B0300088B03000875AE0008B2
:100160008B0300088B0300088B0300088B03000837
:100170008B0300088B0300088B0300088B03000827
:100180008B0300088B0300088B0300088B03000817
:100190008B0300088B0300088B0300088B03000807
:1001A0008B0300088B0300088B0300088B030008F7
:1001B0008B0300088B0300088B0300088B030008E7
:1001C0008B0300088B0300088B0300088B030008D7
:1001D0008B0300088B0300088B0300088B030008C7
:1001E0008B0300088B0300088B0300088B030008B7
:1001F0008B0300088B0300088B0300088B030008A7
:100200008B0300088B0300088B0300088B03000896
:100210008B0300088B0300088B0300088B03000886
:100220008B0300088B0300088B030008000000000C
:100230008B0300088B030008000000008B030008FC
:100240008B0300088B0300088B0300088B03000856
:100250008B0300088B0300088B0300088B03000846
:100260008B0300088B0300088B0300088B03000836
:100270008B0300088B0300088B03000800000000BC
:100280008B0300088B0300088B03000800000000AC
:10029000000000008B030008DFF810D000F0FCFB2A
:1002A0000048004749E30008AFF30080B01105247F
:1002B0002C4B19680868B0E8F04F80F30988BFF349
:1002C0006F8F4FF0000080F311887047000000002E
:1002D00008480068006880F308884FF0000080F349
:1002E000148862B661B6BFF34F8FBFF36F8F00DF24
:1002F00000BF00BF08ED00E0DFF80C00016841F42A
:1003000070010160704700BF88ED00E0EFF30980E5
:10031000BFF36F8F134B1A681EF0100F08BF20ED4C
:10032000108A20E9F04F106009B44FF0500080F3BC
:100330001188BFF34F8FBFF36F8F10F03DF94FF06F
:10034000000080F3118809BC19680868B0E8F04F14
:100350001EF0100F08BFB0EC108A80F30988BFF3BD
:100360006F8F704728000024EFF30580704700006E
:100370000648804706480047FEE7FEE7FEE7FEE73F
:10038000FEE7FEE7FEE7FEE7FEE7FEE7BD9F0008AB
:10039000990200082DE9F05F0546002092469B4631
:1003A00088460646814640241BE02846414647468B
:1003B000224600F020F853465A46C01A914110D305
:1003C00011461846224600F0EEF82D1A67EB010898
:1003D0004F4622460120002100F0E5F817EB000906
:1003E0004E41201EA4F10104DFDC484631462A4676
:1003F0004346BDE8F09F202A04DB203A21FA02F0B0
:100400000021704721FA02F3D040C2F1200291404E
:1004100008431946704740EA01039B0703D009E0EF
:1004200008C9121F08C0042AFAD203E011F8013BE0
:1004300000F8013B521EF9D27047D2B201E000F839
:10044000012B491EFBD270470022F6E710B5134678
:100450000A4604461946FFF7F0FF204610BD10B5C6
:10046000044604E00B7800F8013B03B1491C521E1E
:10047000F8D2204610BD10B5002200E0521C835C6B
:100480008C5CA34201D1002BF8D1D8B2E1B2401A62
:1004900010BD000070B50F4D00B92868002412E0AF
:1004A0000A4602E09E4203D0521C1378002BF9D179
:1004B000DAB2224305D02BB124B1002100F8011B90
:1004C00004E00446401C0678002EE9D1286020464E
:1004D00070BD0000780200242DE9F05F93460F46BE
:1004E0008046044600260AF001FDD0F800908246BE
:1004F00014F8015B2DB100F065F80068405DC0079D
:10050000F6D12B2D02D02D2D1AD0641E0021CAF851
:1005100000105A463946204600F061F8014627B1DE
:100520003868A04201D1C7F80080DAF8000002283C
:1005300009D0CAF80090700505D54842BDE8F09F83
:1005400046F48066E2E70846F8E7C1F30A52C1F3D1
:10055000130140F2FF3341F480119A4202DA002085
:100560000146704740F233439A42A2F2334202DC22
:100570005242FFF740BF00F016B830B50B460146B7
:1005800000202022012409E021FA02F59D4205D332
:1005900003FA02F5491B04FA02F52844151EA2F1DC
:1005A0000102F1DC30BD202A04DB203A00FA02F11E
:1005B000002070479140C2F1200320FA03F3194351
:1005C0009040704700487047C816010810B50446AF
:1005D000FFF7F8FF0068005D00F0010010BD2DE995
:1005E000F05F82460078002715468B460AF1010429
:1005F000B946302801D09DB113E014F8010B012752
:10060000782803D0582801D045B10AE00DB1102D4B
:1006100007D10027102514F8010B02E0082500E09F
:100620000A250026B0460EE005FB080005FB06F192
:10063000012701EB10461FFA80F8B6F5803F00D382
:10064000B94614F8010B294600F04AFA0028EBDA03
:10065000BBF1000F05D00FB1641E00E05446CBF88B
:100660000040B9F1000F06D00AF040FC0221016001
:10067000C81EBDE8F09F48EA0640FAE70FB4002321
:1006800000B589B00CA900910B996FF00042CB60C6
:100690001E4B06931E4B07930423CDE901321D4ADE
:1006A000089202466B46002000F0BCFA09B05DF8E3
:1006B00014FB70B586B006464FF0FF300091CDE9CF
:1006C0000101002015460C4604903246694604A8F4
:1006D000FFF7D4FF02460498211825B108B1084657
:1006E00000E020462860049800280DD0002A02DD92
:1006F0000098884208D0081B0094CDE901043246D6
:10070000694604A8FFF7BAFF06B070BD5D0E000889
:100710007B0E0008CD05000810B541000CD0C0F3D9
:10072000C751962908DC7E2909DC06DB410204D08A
:1007300000F0004040F07E5010BD002010BDC1F11F
:100740009604C4F1200100FA01F1E04000F0A6FB9C
:10075000A04010BD2DE9FE4F804681EA0300C00F86
:100760000C46009021F0004123F00045B8EB020058
:10077000A94105D24046214690461C460B460246FA
:1007800023F00040104347D0270DC7F30A00C3F3FE
:100790000A510290401A019040286BDAC3F313000B
:1007A00040F4801B0098924620B10023D2EB030A4C
:1007B00063EB0B0B01985946C0F140025046FFF71E
:1007C000F2FE06460D4650465946019A00F076F96B
:1007D00010EB08006141002487EA115284EAE773B4
:1007E0001A4340D0009A62B3019A012A4FEA075295
:1007F00015DC001B61EB02014FF0004202EA0752D8
:10080000CDE90042001C41F5801132462B4600F034
:100810008BFB03B0BDE8F08F40462146F9E7001B93
:1008200061EB0201001C41F5801300185B412018A8
:10083000A2F5001747EB030140EAD570B6196D41E8
:1008400011E06D084FEA360645EAC0754FEA0752D7
:10085000001B61EB0201001C41F5801149084FEAC1
:1008600030000019514132462B4603B0BDE8F04F2D
:1008700000F04BBB0098012240000023D0EB0202A5
:1008800063EBE073009821464FEAE074B8EB000098
:1008900061EB0401E9E783F000435BE781F000418D
:1008A00058E72DE9FE4F81EA030404F0004421F0EB
:1008B000004100944FF0000B23F0004350EA010484
:1008C0005ED052EA03045BD0C3F30A54C1F30A5565
:1008D0002C44A4F2F3340194A0FB0254C1F313019D
:1008E00041F48011C3F3130343F4801301FB02446A
:1008F00000FB034E840A970A44EA815447EA83576F
:10090000A4FB076802958D0A05FB07854FEA932C27
:1009100004FB0C542705029D4FEA065847EA163798
:10092000B5EB08056EEB070C870E920E47EA8117B0
:1009300042EA8312A7FB0201B6EB0B0164EB000451
:100940002B0D43EA0C335E1844EB1C50DA4651463B
:10095000E7FB0201C5F313044FEA0B3343EA1453D8
:100960004FEA0432019C43EA0603A4F10C0402940A
:10097000009CCDE900B400F0D7FA03B0BDE8F08FD9
:1009800000200146F9E72DE9F04D81EA030404F067
:10099000004B21F0004514464FF0000A23F00041BF
:1009A00050EA050220D054EA01021DD0C5F30A57CF
:1009B0000246C5F31303C1F31300C1F30A5640F412
:1009C000801543F48013A7EB0608101BD64608F2E7
:1009D000FD3873EB050002D308F1010801E092181D
:1009E0005B41B8F1000F03DA00200146BDE8F08D4D
:1009F00000204FF48011064684460EE0171B73EB6F
:100A0000050705D3121B63EB050306434CEA010CF3
:100A100049084FEA300092185B4150EA0107EDD1D6
:100A200052EA030012D082EA040083EA0501084377
:100A300005D0101BAB4106D20122002306E00022A4
:100A40004FF0004302E06FF0010253101AEB060072
:100A50004CEB085110EB0A0041EB0B01BDE8F04DE7
:100A600000F053BA30B5041E71F1000404DB4FF0FE
:100A70000044404264EB0101141E73F1000405DBE5
:100A80001C464FF00043524263EB0403994208BFF7
:100A9000904230BD00207047064C074D06E0E068EC
:100AA00040F0010394E8070098471034AC42F6D3B5
:100AB000FFF7F6FB58AB010878AB0108202A06DBEC
:100AC000CB17203A41FA02F043EAE07306E041FA1C
:100AD00002F3D040C2F1200291400843194670470A
:100AE0003A2800D2303820F02002412A01D3A2F166
:100AF0003700884201D34FF0FF3070472DE9FF4F98
:100B0000087883B09946FF2805D0491C2D2804D0C9
:100B10000024002008E000200BE00124F9E700EBAE
:100B2000800003EB4000491C0B78FF2BF7D104B188
:100B3000404200230293147819461D462D2C01D003
:100B40002B2C04D1521C2D2C13D000240294AA4625
:100B50001478FF2C0FD00A25A3FB057801FB058133
:100B60004FF0000C03FB0C11521CE3194AEB01017E
:100B7000EEE70124EAE7814453EA010002D019F5C7
:100B8000C87F06DA03980021C0E9001107B0BDE86C
:100B9000F08F0025AE4E2F46DFF8B882184600F0E1
:100BA00011FACDE90001B9F1000002DAC9F100043F
:100BB00000E004460023A74A1AEB030B42EB045A59
:100BC00012E0E00707D02A46334638464146FFF791
:100BD00068FE074688462A46334610461946FFF700
:100BE00060FE05460E466410002CEAD1DDE90001E6
:100BF000B9F1000F5A46534606DAFFF7C4FE3A46EB
:100C00004346FFF7C0FE05E0FFF74BFE3A4643467A
:100C1000FFF747FE029A0AB181F00041039AC2E948
:100C20000001B3E72DE9FF4F1F468DB0D7E901461C
:100C30004FF0FF382E2045464FF000090B90B96960
:100C40006D1C0E988847396A824688470028F6D17D
:100C5000BAF1FF3F0AD024F4D064002E11DDBAF1BE
:100C60002B0F08D0BAF12D0F0BD102E0404611B086
:100C70008DE744F48064B9696D1C0E9888478246FC
:100C8000761E6946600501D52D2000E02B208DF8E9
:100C9000000001F1010B0DF1200809E0B9696D1C9C
:100CA0000E98884782460F9844F40074761E0560BB
:100CB000002E02DDBAF1300FF0D00B998A453ED1FB
:100CC00044F0800406E00F99681CA9F1010944F47E
:100CD00000740860B9696D1C761E0E9888478246BC
:100CE0003028F0D02BE00B998A4505D1200603D49B
:100CF00044F08004761E18E050460AF0DBFF08B38B
:100D00000DF11301761E44F400748B4508D2AAF14C
:100D100030000BF8010B200607D5A9F1010003E014
:100D2000200602D409F101008146A00502D50F99E1
:100D3000681C0860B9696D1C0E9888478246002EB1
:100D4000D1DC53E0002E51DDBAF1650F02D0BAF1CB
:100D5000450F4BD1A00549D5B9696D1C24F44074E9
:100D6000761E0E9888478246002E0CDD2B2804D074
:100D7000BAF12D0F07D144F48074B9696D1C0E9837
:100D800088478246761EE00501D52D2100E02B2103
:100D900008F8011BCDF82C8021E00DF12901761E09
:100DA00044F4007488450CD2AAF1300010F0FF0022
:100DB00088F8000002D10B99884509D908F101088B
:100DC00006E0E00501D5244801E042F20F708146BB
:100DD000B9696D1C0E98884782460F980560002EF1
:100DE00004DD50460AF066FF0028D6D1F9690E9856
:100DF0008847FF208BF8000088F80000002006904C
:100E000007904B466A4608A906A8FFF777FEA0059B
:100E100002D46FF001002AE714F0240F0AD0E00793
:100E200014D1DDE906123868031D3B600068C0E993
:100E300000120BE0DDE9060100F0D0F80146E00702
:100E400004D13868021D3A600068016028460EE748
:100E5000000014400000F03FF1D8FFFF426842B1AB
:100E6000016811F8013B23B1521EC0E90012184677
:100E700070470121C160881E704742685AB1C3683B
:100E8000016843B983688B4205D0491E521CC0E9F2
:100E90000012002070474FF0FF3070470029A8BFB4
:100EA0007047401C490008BF20F00100704710B493
:100EB000B0FA80FC00FA0CF050EA010404BF10BC48
:100EC000704749B1CCF1200421FA04F411FA0CF175
:100ED00018BF012121430843A3EB0C01CB1D4FEAAE
:100EE00000614FEA102042BF002010BC704700EBA9
:100EF000C35010440029A4BF10BC7047401C4900D7
:100F000008BF20F0010010BC704710B5141E73F12B
:100F1000000408DA401C41F1000192185B411A43B9
:100F200001D120F0010010BD2DE9F04D92469B4605
:100F300011B1B1FA81F202E0B0FA80F220329046AB
:100F4000FFF731FB04460F4640EA0A0041EA0B0175
:100F500053465A46084313D0114653EA010019D0AC
:100F6000C8F140025046FFF746FA05460E46504685
:100F700059464246FFF717FB084305D0012004E01D
:100F800020463946BDE8F08D0020054346EAE0766C
:100F90002C4337430A986305E40AA0EB08000022BB
:100FA000FD0A44EA47540A3002D500200146E9E729
:100FB000010510196941DDE9084500196941BDE8DD
:100FC000F04DA2E70EB540F2334202920022CDE985
:100FD00000221346FFF7A8FF03B000BD01F0004355
:100FE00030B421F0004150EA010206D00A0DA2F50A
:100FF0006072C1F31301002A02DC30BC002070478C
:10100000440F44EAC104C100E01830BC00EBC250F8
:10101000FFF744BF70B58C1810F8015B15F007039B
:1010200001D110F8013B2A1106D110F8012B03E081
:1010300010F8016B01F8016B5B1EF9D12B0705D489
:101040000023521E0DD401F8013BFAE710F8013BD2
:10105000CB1A921C03E013F8015B01F8015B521EEE
:10106000F9D5A142D8D3002070BD00002DE9F04F82
:1010700081B001266FF001044FEA510E06EB5107D3
:1010800004EB510800974FEA42090024002500BFF5
:10109000ADB26600AC422BD250F82670EA0050F890
:1010A0003510043240F8261046F0010140F8357042
:1010B00050F821A0875840F8217040F802A0009A0B
:1010C000A118AF1850F831A04FEAC10B50F83720E3
:1010D0004FEAC70C40F8312040F837A00BF104016B
:1010E0000CF1040750F801A0C259425040F807A083
:1010F00005EB0E0100EB860250F831709668CD00CA
:10110000D2F80CC097602F1D40F83160A11CC55962
:101110008CB2D5601D8844454B4440F807C0B7D910
:1011200001B0BDE8F08F70B50446807825880E4682
:10113000A3890128626806D194ED040A3046294645
:1011400001F0DAF803E03046294600F041FFE0788C
:10115000012807D121883046E289A368BDE87040A4
:10116000FFF784BF70BD000042F6583C0180C0F616
:10117000010CC0F804C0FF29827041F65232C370DE
:10118000C0F601024FF0FF030DDDB1F5807F13D0F3
:10119000B1F5805F15D0B1F5806F22D106329FED99
:1011A000160A042117E010290FD0402919D17E32E8
:1011B0009FED0F0A40210EE01E329FED0E0A102116
:1011C00009E09FED090A012105E002F5FF729FED9C
:1011D000070A4FF4807100238181C181826080ED14
:1011E000040A58B2704700BF000080390000803DFB
:1011F0000000803C0000803B0000803A2DE9F04375
:1012000081B02DED028B0023B3EB920F90460C467C
:10121000054669D04FEA9800474200BF95ED010AA4
:1012200020EE008A95ED000A00EE008AB0EE480A32
:101230000AF01AFCB4EEC00AF1EE10FA03D7B0EED1
:10124000480A0AF011FC84ED000A95ED030A20EE2D
:10125000008A95ED020A00EE008AB0EE480A0AF014
:1012600003FCB4EEC00AF1EE10FA03D7B0EE480A60
:101270000AF0FAFB84ED010A95ED050A20EE008ADA
:1012800095ED040A00EE008AB0EE480A0AF0ECFB85
:10129000B4EEC00AF1EE10FA03D7B0EE480A0AF035
:1012A000E3FB84ED020A05F1200995ED070A20EE23
:1012B000008A04F1100695ED060A00EE008AB0EEF1
:1012C000480A0AF0D1FBB4EEC00AF1EE10FA03D7D7
:1012D000B0EE480A0AF0C8FB013784ED030A4D4618
:1012E00034469BD134464D4618F003001DD046428B
:1012F00095ED010A20EE008A271D95ED000A00EE0B
:10130000008AB0EE480A0AF0AFFBB4EEC00AF1EE74
:1013100010FA03D7B0EE480A0AF0A6FB013684EDB6
:10132000000A05F108053C46E2D1BDEC028B01B094
:10133000BDE8F0830023B3EB920F38D080B593085B
:10134000C3F1000C90ED010A20EE000A00F1200E1E
:1013500090ED001A01F1100301EE010A1CF1010CDD
:1013600081ED000A90ED030A20EE000A90ED021ACA
:1013700001EE010A81ED010A90ED050A20EE000A56
:1013800090ED041A01EE010A81ED020A90ED070AC0
:1013900020EE000A90ED061A704601EE010A81ED7A
:1013A000030A1946CED119467046BDE8804012F0B6
:1013B000030208BF7047524290ED010A20EE000A76
:1013C0000B1D90ED001A013201EE010A00F1080038
:1013D00081ED000A1946EFD1704700000023B3EBFE
:1013E000920F17D010B593085C4200BF036800F15C
:1013F000100C0B6001F1100E436801344B608368E0
:101400008B60C068C86060467146EFD17146604627
:10141000BDE8104012F0030208BF7047524200BFFF
:1014200050F8043B013241F8043BF9D17047000009
:101430009FED201AB5EE002A00EE012A9FED1E1A3C
:10144000BDEEC20AB5EEC02AF1EE10FA10EE100A97
:10145000B8BF013800EE100A0020B8EEC00A32EE24
:10146000400A9FED162A20EE010ABCEEC01A11EECA
:10147000101A30EE021AB0EB512F18BF002102EE05
:10148000101A42F2543000FE010AC0F60100B8EE14
:10149000422A00EB810090ED011A30EE420AB7EECD
:1014A000002A32EE402A20EE010A90ED001A02EEE8
:1014B000010A704783F9223E00000044000000C486
:1014C000B0B50025B5EB920F2AD0940822F0030E98
:1014D00000EB8E0C64429FED1B0A0D4690ED001A46
:1014E00095ED002A01EE020A013490ED011A95ED06
:1014F000012A01EE020A90ED021A95ED022A01EE90
:10150000020A90ED031A95ED032A01EE020A00F19A
:10151000100005F11005E1D101EB8E01604601E0FC
:101520009FED080A12F0030208D05242B0EC011AF3
:10153000B1EC012A01EE020A0132F7D183ED000A73
:10154000B0BD00BF000000000022B2EB910F0FD031
:101550008A08524200F1100380ED000A80ED010A72
:10156000013280ED020A80ED030A1846F2D11846D6
:1015700011F0030108BF7047494200BF021D80ED12
:10158000000A01311046F9D1704700002DE9F04FF3
:1015900081B02DED048B88B006880027B7EBD30F00
:1015A000D0F804C0A6F1010584680CEB850B039507
:1015B000CDE9016300F05E81F008079026F0070096
:1015C00004EB8000069046F0070006F007050CEBE0
:1015D000800AA7EBD600059068424FEAD309049031
:1015E0009FEDD10A604600BF0B68CBF800304B6816
:1015F000CBF804308B68CBF80830CB68CBF80C30D4
:101600000B69CBF810304B69CBF814308B69CBF8F1
:101610001830CB69CBF81C30079BD0ED006AD0EDB9
:10162000015AD0ED027AD0ED031AD0ED043AD0ED94
:10163000052A002BD0ED064A00F0C2804FF00008CA
:10164000DDF814E0B0EE401AB0EE402AB0EE403AB9
:10165000B0EE404AB0EE405AB0EE406AB0EE407A8A
:10166000F0EE400A04EB080600EB080396ED009A42
:1016700093ED078A46EE890A1EF1010E05EE897A7E
:1016800008F1200807EE896A01EE895A03EE894ABB
:1016900002EE893A04EE892A09EE081A96ED019ABB
:1016A000D3ED086A45EE890A07EE897A01EE896A68
:1016B00003EE895A02EE894A04EE893A08EE092AB5
:1016C00009EE261A96ED029AD3ED095A47EE890AD9
:1016D00001EE897A03EE896A02EE895A04EE894A9C
:1016E00008EE093A06EE892A09EE251A96ED039AC4
:1016F000D3ED0A7A41EE890A03EE897A02EE896A0D
:1017000004EE895A08EE094A06EE893A05EE892A5E
:1017100009EE271A96ED049AD3ED0B1A43EE890AC7
:1017200002EE897A04EE896A08EE095A06EE894AC1
:1017300005EE893A07EE892A09EE211A96ED059AF7
:10174000D3ED0C3A42EE890A04EE897A08EE096A72
:1017500006EE895A05EE894A07EE893A01EE892A92
:1017600009EE231A96ED069AD3ED0D2A44EE890A66
:1017700008EE097A06EE896A05EE895A07EE894A6B
:1017800001EE893A03EE892A09EE221A96ED079AAC
:10179000D3ED0E4A48EE090A06EE897A05EE896A0B
:1017A00007EE895A01EE894A03EE893A02EE892A48
:1017B00009EE241A7FF456AF5646069B13E000BF8D
:1017C00000F11C06F0EE400AB0EE407AB0EE406A3E
:1017D000B0EE405AB0EE404AB0EE403AB0EE402A89
:1017E000B0EE401A23462031002D0BF1200B26D0FD
:1017F000049F00BF93ED008A46EE880AF0EE656A0A
:10180000043305EE887AF0EE675A013707EE886AEE
:10181000F0EE617A01EE885AF0EE631A03EE884A20
:10182000F0EE623AF0EE642A04EE882AD6ED004A21
:1018300003EE883A06F1040608EE241ADAD102F122
:101840002003C2ED000A82ED017A203082ED026AA7
:10185000B9F1010982ED035A0AF1200A82ED044A26
:1018600082ED053A82ED062A82ED071A1A467FF4C8
:10187000BBAE01E060461346029A12F0070825D07D
:10188000019AC2F1000E9FED280A00BF0E6877464C
:10189000CBF800600026B0EE401A00BF8519A219EF
:1018A00095ED002A92ED003A02EE031A013706F197
:1018B0000406F3D11A1D83ED001A04310BF1040B59
:1018C000B8F1010800F104001346DFD10021039FA5
:1018D000B1EB970F18D0B908494200BF0268013137
:1018E000CCF800204268CCF8042000F11002836894
:1018F000CCF808300CF11003C068CCF80C009C4602
:101900001046EBD110469C4617F0030106D0494221
:1019100050F8042B01314CF8042BF9D108B0BDEC80
:10192000048B01B0BDE8F08F00000000B0B5DDF819
:1019300010C0054601EB0C0029806FF00301AA607E
:1019400001EB800118461C46FEF77EFD6C60B0BDC1
:101950002DE9F04F8BB0B0F800B0B0F802E0F345DD
:1019600040F051810B88FD229B4540F04D814F880E
:10197000BB4240F04981BBF1000F436800F0298170
:101980006FF003004C6800EB8B08CDF81CE00027DB
:1019900000934FF07E5906945E462046BBEB06004E
:1019A00009D0B9002046FEF74FFD002001308742E4
:1019B00004F10404FAD104F1040AC4F80090751E7D
:1019C00010D0A8EB87015046FEF73EFD012054469B
:1019D0000130864204F10404FAD1002D07F1010719
:1019E0002E46DBD1BBF1000F009BDDF81CE000F0C0
:1019F000F0800420CDF814B000EB8E000190184662
:101A0000ABF1010603EB8E044FEA8E021D1DCEF1F1
:101A10000001002308919FED800A7746814600BFB0
:101A20005B4580F0F58003FB0EF0B0EE403A09EB29
:101A300080010A9191ED001A0699B0EE414A01EB3E
:101A4000800009902146304606E000BF91ED004A33
:101A50000138B0EE423A1144B5EEC04AF1EE10FA48
:101A60000ADDB4EEC34AB0EE442AF1EE10FAD8BF54
:101A7000B0EE432A09E000BFB1EE442AB4EEC23A08
:101A8000F1EE10FA01DBB0EE432A0028DED1B5EE0C
:101A9000402AF1EE10FA00F0BB80B0EEC13AB4EE8D
:101AA000423AF1EE10FA1CBFD84310EB0B0004D001
:101AB000002000BF01308642FCD1B5EE401AF1EEA5
:101AC00010FA00F0A580CDE90346AEEB030C0A99AD
:101AD000BCF1010F4FF07E5008600AD0012029466A
:101AE00091ED002A82EE012A01308742A1EC012A01
:101AF000F6D1DDE9080100BF91ED002A82EE012A4E
:101B00000C1D013081ED002A2146F5D1ACF1010B0D
:101B100005994FF00008DDF818A04846CDF8089068
:101B2000984505D100EB8C060AEB8E0A33E000BF26
:101B300090ED001A0A9CB0EE413ABBF1000F94ED13
:101B4000002A01EE423A00F1040680ED003A15D079
:101B50000120002406EB040905EB040E99ED002A90
:101B60009EED003A01EE432A0130874204F104045D
:101B700089ED002AEED12644DDF81CE0DDE90804F9
:101B80009AED002A94ED003A01EE432A0434013024
:101B9000AAEC012AF4D106EB8300013908F101080F
:101BA000BED1DDF80890013F049E09F10409039CB1
:101BB00003F101030198A6F101060444DDF814B015
:101BC00005447FF42DAFB5EE401A009BF1EE10FAFC
:101BD00020D10EFB0BF1002000294FF000020BD0AA
:101BE00093ED000AB5EE400AF1EE10FA04D101328D
:101BF0008A4203F10403F3D38A4208BF6FF0040062
:101C00000BB0BDE8F08FFD2250B20BB0BDE8F08FF5
:101C1000FB22F9E70022F7E7000000002DE9F04F72
:101C200088B0B0F802C00B889C4540F08880B0F8BE
:101C300000E013889E4540F08280B1F802905388FE
:101C400099457CD14FEA9C04476804FB09F0496838
:101C50000CF00305029101EB0010019000202CF024
:101C60000303A0EB9C0107EB830607914FEA89036E
:101C70005168C5F1000A00919FED330ACDE9039C3C
:101C8000CDE9050E0099CE4601EB8008DDE901BCE7
:101C9000002CB0EE401AE146384627D0624607993C
:101CA0003846B0EE401A00BF92ED002A90ED003A9F
:101CB00003EE021A1A4490ED014A92ED002A04EE56
:101CC000021A1A4490ED025A92ED002A05EE021A09
:101CD0001A4490ED036A92ED002A06EE021A0131D1
:101CE00000F110001A44DFD1D946304655B15146B3
:101CF00090ED002A99ED003A02EE031A043001310A
:101D00009944F5D108F1040088ED001ABEF1010EE6
:101D10000CF1040C0BF1040B8046B9D1DDF80C90EA
:101D20000598DDF810C04844DDF818E007EB8C0793
:101D3000BEF1010E06EB8C06A2D1002000E0FD20D2
:101D400040B208B0BDE8F08F000000002DE9F04F70
:101D500083B002884B889A424DD144880B889C42BC
:101D600049D10023D1F804804FEA940C416804F073
:101D7000030ECDF80080A3EB9404029414019600A6
:101D80000194CEF1000B4046BCF1000F1ED0474637
:101D9000029C00BF08683D4638603744486807EB3E
:101DA0000609A85101F11000D1F808A0013447F844
:101DB00006A009EB0607C968374449F80610014632
:101DC000E8D101996C18014603E000BF009800EBD0
:101DD0008304BEF1000F07D05D4600BF51F8040B2D
:101DE000013520603444F9D10133013A08F1040887
:101DF000CAD1002000E0FD2040B203B0BDE8F08F62
:101E0000F0B54C1E4FF0000CBCEB940F90ED000AA7
:101E100000F1040E3AD001262546A70866F3010515
:101E20007E424FF0000C04279EED001A9EED012A21
:101E300080FE014AB4EEC10A9EED023AF1EE10FABC
:101E400084FE021AB4EEC24A9EED030AB8BFA7F19F
:101E5000030CF1EE10FA81FE032AB4EEC31A0EF160
:101E6000100EB8BFA7F1020CF1EE10FAB4EEC02AC2
:101E700082FE000AB8BFA7F1010CF1EE10FAB8BF5C
:101E8000BC4604370136CFD100EB850E14F00300B9
:101E900012D040429EED001AB4EEC10A80FE011A33
:101EA0000EF1040EF1EE10FAB8BF01EB000CB0EE2B
:101EB000410A0130EED101E0B0EE401A82ED001A85
:101EC000C3F800C0F0BD0000B0B50025B5EB930F1E
:101ED00031D09D08C5F1000C90ED000A91ED001A7B
:101EE00020EE010A00F1100E01F1100402F11005BC
:101EF00082ED000A1CF1010C90ED010A91ED011A2E
:101F000020EE010A82ED010A90ED020A91ED021A1B
:101F100020EE010A82ED020A90ED030A91ED031A08
:101F200020EE010A7046214682ED030A2A46D3D1EB
:101F300021462A46704613F003030DD05B4200BFD2
:101F4000B0EC010AB1EC011A20EE010A151D0133B3
:101F500082ED000A2A46F3D1B0BD00000023B3EBA6
:101F6000910F23D080B58B0821F0030CC3F1000E34
:101F70009FED160A034600BF93ED001A01EE010A19
:101F80001EF1010E93ED011A01EE010A93ED021A02
:101F900001EE010A93ED031A03F1100301EE010AA9
:101FA000EAD100EB8C00BDE8804001E09FED070A1C
:101FB00011F0030106D04942B0EC011A01EE010A0A
:101FC0000131F9D182ED000A704700BF0000000026
:101FD0002DE9F04F88B08C08059204EB440701907E
:101FE00026010094151D079600220494FF00039318
:101FF000A2EB910603EB430204304FEAC40E4FEA12
:10200000031A4FEAC30B4FEAC2093A462C462F4641
:10201000079B00EB0E0800EB030C831810ED010A80
:1020200090ED001A18ED012A98ED003A1CED014AD6
:102030009CED005A13ED016A93ED007A70EE040AEC
:10204000013672EE061A71EE052A73EE073A32EE89
:10205000462A31EE451A33EE473A30EEA15A32EEB7
:10206000A37A30EE440A72EEE32A71EE423A17ED9B
:10207000014A97ED006A00ED015A70EEE10A80ED29
:10208000007A70EE031A14ED015A23EE857A00F1FE
:10209000080031EE021A574494ED002A30EE430A4C
:1020A0005C4423EE823A01EEC27A22EE862A01EEE9
:1020B000853A15ED015AD5ED001A64EE222A4D44F9
:1020C00000EE842A21EE214A21EE051A40EEC62AAE
:1020D00008ED012A00EE054A00EE611AC8ED002A5B
:1020E0000CED013A8CED007A03ED014A83ED001A04
:1020F0008ED11429C0F0B480049D00BF0398AA08B3
:1021000080000292039080B2EE0007904FF0FF3003
:1021100000EB9500069002EB4200C700D000041DC2
:102120004FEA021C019A4FF0000900239046059ADD
:1021300002EBC3004FEAC30E90ED000A0EF104005B
:10214000104490ED001A02EB03104FEA031E90EDCD
:10215000002A0EF10400104490ED003A03EB430016
:1021600002EBC00EC000043010449EED004A42460F
:1021700090ED005A4046C84600EB0C0A90ED006A0C
:102180009AED007A00EB040B76EE470A00EB070E9F
:1021900036EE076A1BED017ADEED001A77EE612A52
:1021A000A84437EE217A8845D0ED011ADBED003ADC
:1021B000DAED014ADEED015A71EEE46A73EEE57A7A
:1021C00071EEA41A73EEA53A70EEA74A70EEE70A14
:1021D00071EEE37A76EEE25A76EEA22A76EE476A5E
:1021E00036EE076A31EEA37A63EE271A62EE273ADB
:1021F00080ED006A60EE247A80ED017A24EE206A98
:10220000304424EE227A41EE257A60EE255A42EEE1
:10221000261A43EE663A41EE645A05EE226A4BED09
:10222000011A05EE607ACBED003ACAED007ACAEDEC
:10223000015A8EED006A8EED017A9DD3079809F15F
:10224000010903440698814502F108027FF66EAF4A
:1022500004981328029D4FEA900004903FF64EAF79
:1022600000984042019900BF91ED000A91ED011ADA
:1022700091ED022A91ED033A91ED044A91ED055A50
:1022800091ED066A91ED077A70EE040A013030EEA6
:10229000440A31EE054A31EE451A32EE065A73EE23
:1022A000071A32EE462A33EE473A30EE856A34EEAC
:1022B000217A30EEC55A34EE614A81ED006A30EE83
:1022C000036A81ED017A31EE427A81ED025A30EEF5
:1022D000430A81ED034A31EE021A81ED046A81ED71
:1022E000057A81ED060A81ED071A01F12001BBD1C3
:1022F00008B0BDE8F08F00002DE9F04F81B02DED62
:10230000048B88B08C08059204EB440701902601E9
:102310000094151D079600220494FF000393A2EB7E
:10232000910603EB430204304FEAC40E4FEA031A4E
:102330004FEAC30B4FEAC2093A462C462F4600BF6C
:10234000079B00EB0E08034400EB020C10ED011A92
:1023500090ED002A13ED013A93ED004A18ED015A71
:1023600098ED006A1CED017ADCED000A71EE031AAB
:10237000013675EE072A72EE043A76EE204A31EE07
:10238000431A32EE442A36EE604A31EEA26A73EE08
:10239000A40A35EE475A71EEE21A71EE442A17ED9F
:1023A000013A97ED007A00ED016A73EEE43AC0ED70
:1023B000000A72EE054A94ED006A62EE860A00F1A8
:1023C000080031EE041A574414ED014A32EE452A52
:1023D0005C4422EE845A44EE840A21EE834A04EEE1
:1023E000C65A15ED016AD5ED002A61EE871A4D44F3
:1023F00003EEC74A21EE067A21EE221A43EE231A93
:1024000008ED014A02EE627A02EE061AC8ED001AE1
:1024100003ED015AC3ED000A0CED017A8CED001AB0
:102420008ED11429C0F0B480049D00BF0398AA087F
:1024300080000292039080B2EE0007904FF0FF30D0
:1024400000EB9500069002EB4200C700D000041D8F
:102450004FEA021C019A4FF0000900239046059AAA
:1024600002EBC3004FEAC30E90ED001A0EF1040018
:10247000104490ED002A02EB03104FEA031E90ED8A
:10248000003A0EF10400104490ED004A03EB4300C3
:1024900002EBC00EC000043010449EED005A4246CC
:1024A00090ED006A4046C84600EB0C0A90ED007AB9
:1024B000DAED000A00EB040B77EE601A00EB070E72
:1024C00037EE207A5BED010ADEED002A70EEE23A8B
:1024D000A84470EEA20A8845D0ED012ADBED004A3F
:1024E000DAED015ADEED016A72EEE57A34EEE68A43
:1024F00072EEA52A74EEA64A71EEC85A71EE881AD9
:1025000032EEE48A77EEA36A77EEE33A77EE607A0A
:1025100037EE207A23EE089A63EE270A72EEA42A99
:1025200080ED007A04EE279A61EE254A62EE255A84
:10253000C0ED012A65EE217A304426EE217A44EE80
:10254000480A42EE664A41EE265A46EE637A4BED61
:10255000010A05EE237A8BED009ACAED004ACAED16
:10256000015ACEED007A8EED017A9DD3079809F1DC
:10257000010903440698814502F108027FF66EAF17
:1025800004981328029D4FEA900004903FF64EAF46
:1025900000984042019900BF91ED001A91ED012A87
:1025A00091ED023A91ED034A91ED045A91ED056ADD
:1025B00091ED067AD1ED070A71EE051A013031EE80
:1025C000451A32EE065A32EE462A33EE076A74EEA8
:1025D000202A33EE473A34EE604A31EE867A75EEC1
:1025E000220A31EEC66A35EE625A71EE441A72EE74
:1025F000032A31EE041A32EE432A27EE003A20EE87
:10260000804A26EE006A25EE005A81ED003A21EE5E
:10261000803A81ED014A22EE804A81ED026A21EE84
:10262000001A81ED035A22EE002A81ED043A81ED71
:10263000054A81ED061A81ED072A01F12001ABD18F
:1026400008B0BDEC048B01B0BDE8F08F9FED1F1A00
:1026500020EE010A9FED1F2ABDEEC01AB5EEC00A9A
:10266000F1EE10FA11EE100AB8BF013801EE100AAF
:102670000020B8EEC11A30EE410A9FED151A20EE87
:10268000010ABCEEC01A11EE101A30EE021AB0EBBD
:10269000512F18BF002102EE101A42F2543000FEF2
:1026A000010AC0F60100B8EE422A00EB810090ED6D
:1026B000011A30EE420AB7EE002A32EE402A20EE2E
:1026C000010A90ED001A02EE010A704783F9223EDA
:1026D00000000044000000C4B0B50025B5EB930F26
:1026E00031D09D08C5F1000C90ED000A91ED001A63
:1026F00030EE410A00F1100E01F1100402F1100554
:1027000082ED000A1CF1010C90ED010A91ED011A15
:1027100030EE410A82ED010A90ED020A91ED021AB3
:1027200030EE410A82ED020A90ED030A91ED031AA0
:1027300030EE410A7046214682ED030A2A46D3D183
:1027400021462A46704613F003030DD05B4200BFBA
:10275000B0EC010AB1EC011A30EE410A151D01334B
:1027600082ED000A2A46F3D1B0BD00002DE9F04702
:10277000184E4FF40079002204464946304603F0D3
:1027800008F944F4885500244FF480684FF400673A
:1027900030460022394603F0FCF8280401D5012216
:1027A00000E000224146304603F0F3F86D00394660
:1027B0000122304603F0EDF800F00EF8641CE4B29C
:1027C000102CE5D349463046BDE8F047012203F01E
:1027D000E0B800000000025808B500200090401C3E
:1027E0000A280090FBDB08BD9FED222B2DE9F0416C
:1027F00080EE021B9FED210B42F440480C4605463B
:102800004FF4807021EE000BBDEEC00B10EE102ACD
:10281000C2F30D06C2F38D3700F034F84FF40450C4
:1028200000F030F815B1012D05D010E046F48040DD
:1028300047F4804503E046F4004047F4004500F0CB
:1028400021F8284600F01EF8404600F01BF844B17D
:10285000022C09D0012C0AD16003BDE8F04100F040
:1028600011B842F20200F8E742F22800F5E7BDE8AD
:10287000F08100000000000080842E410000004034
:10288000E17A64412DE9F04701221D4E0546D70249
:102890003046394603F07DF84FF480583046012227
:1028A0004446414603F075F800222146304603F0C5
:1028B00070F800244FF48069280401D5012200E05B
:1028C00000224946304603F064F8FFF785FF0022F6
:1028D0003946304603F05DF8FFF77EFF01223946A6
:1028E000304603F056F8641C6D00E4B2102CE3D3BC
:1028F00041463046BDE8F047012203F04AB80000E7
:102900000000025870B51E4C00220221204603F040
:1029100040F81C4800224FF4004103F03AF81A4DE9
:1029200000224FF40061284603F033F800222046CD
:10293000012103F02EF800222046042103F029F89B
:1029400000222046102103F024F8002220462021F6
:1029500003F01FF800222046402103F01AF800225D
:1029600028464FF4805103F014F800222046082135
:1029700003F00FF8BDE870400A2009F0E7BF00003F
:10298000000C025800000258000802587CB50024D0
:1029900000940194FFF7B6FF00F02EF84FF4967004
:1029A00009F0D4FF134E4FF400450022294630466B
:1029B00002F0EFFF02208DF800008DF801400422A4
:1029C0008DF80240002069468DF8034000F0D4F8ED
:1029D0008DF80440A7208DF80540032201A98DF849
:1029E0000600012000F0C8F801222946304602F016
:1029F000D0FF7CBD0000025870B5114C01220221AD
:102A0000204602F0C6FF0A2009F0A0FF002220465F
:102A1000022102F0BEFF0B4D4FF40044002221467C
:102A2000284602F0B6FF08480022211102F0B1FF4B
:102A300021462846BDE87040012202F0AABF0000EE
:102A4000000C025800000258000802582DE9F0411D
:102A5000DFF84C800024134F4FF4006605463146E2
:102A60000022384602F095FF012009F07DFF28067C
:102A700001D5012200E000224046012102F089FF39
:102A800001223146384602F084FF012009F06CFF34
:102A90006806641C050EE4B2082CE0D3BDE8F081A2
:102AA000000C025800080258F8B50E4E04460020EB
:102AB0004FF40045024629460090304602F069FF77
:102AC000200A8DF800000222694610468DF8014068
:102AD00000F052F801222946304602F05AFF08F071
:102AE000AFF9F8BD0000025838B50020009000F0A2
:102AF0000FFD010E8DF80010020C8DF801200D4D18
:102B0000030A4FF400448DF80230002221468DF86C
:102B10000300284602F03DFF04226946104600F0FB
:102B20002BF801222146284602F033FF08F088F9ED
:102B300038BD000000000258F8B50E4E04460020D3
:102B40004FF40045024629460090304602F021FF2E
:102B5000200A8DF800000222694605208DF8014008
:102B600000F00AF801222946304602F012FF08F070
:102B700067F9F8BD0000025870B5002415460E46EE
:102B8000FFF764FF04E0305DFFF760FF641CE4B210
:102B9000AC42F8D370BD000070B53A4905460068F4
:102BA000884202D0384A904202D1D1F8080302E0AC
:102BB0003648D0F8080310F4403F11D004F0C4FAAE
:102BC00004466868B0F5803F06D0B0F5003F03D0FA
:102BD000B0F5403F27D101E0000C18E0A40822E046
:102BE00000214FF4002003F019FB044668688103BC
:102BF000890B18D181140C2915D2DFE801F01406D5
:102C000006060606060B0D0F1113800C4000B4FBE0
:102C1000F0F408E0240906E0640904E0A40902E0F5
:102C2000E40900E0240A02F0B9FE41F203018842FF
:102C300008D8174884422868816813D821F4807125
:102C4000816070BD13496008884204D82868816893
:102C500021F44071F4E71049884206D82868816859
:102C600021F4407141F48071EAE70C4988422868F8
:102C7000816804D821F4407141F40071E0E741F427
:102C80004071DDE700200240002102400060025850
:102C9000002D3101105E5F0020BCBE0040787D0138
:102CA00010B5846B616D11F0500F06D0616DC906CF
:102CB00025D5204600F0A5FF10BD606D40F40070E2
:102CC000606520680168090707D505F085FD90B1AA
:102CD0002068C068800403D50DE0C06880070AD171
:102CE000606D20F480706065606DC00403D4606D19
:102CF00040F001006065204600F070FF10BDE16CFF
:102D0000C96CBDE81040084710B5806B416D41F0BB
:102D100040014165816D41F00401816500F071FF62
:102D200010BD10B5806B00F06BFF10BD70B5044690
:102D3000006881688268C1F3400112F0010F28D059
:102D400039BB816801F00D01012914D18168124A53
:102D50001140891C816021680320086002F024FE74
:102D6000054612E002F020FE401B02280DD9206823
:102D70008068C00709D0606D40F010006065A06DEC
:102D800040F00100A065012070BD20688068C00788
:102D9000E8D1002070BD0000C0FFFF7F70B5044681
:102DA0000068816811F0010F40D18168204A11420A
:102DB0002DD18168D5432940491C816002F0F4FD82
:102DC0001C49064620681C4B884201D0984201D11C
:102DD0001A4A00E01A4A9268984202F01F0200D094
:102DE000014681421DD0E2B120E0816811F0010F5F
:102DF00003D181682940491C816002F0D5FD801B08
:102E000002280ED920680068C043C00709D0606D51
:102E100040F010006065A06D40F00100A065012049
:102E200070BD20680168C943C907DED1002070BDAC
:102E30003F000080002002400021024000230240A9
:102E400000630258FEE710B5846B204601F096F946
:102E50000120207110BD10B5846B204601F0E4F80C
:102E60000120207110BD10B5846B206940F0040072
:102E70002061204601F08FF90120207110BD10B5AE
:102E8000846B206940F004002061204601F0CFF8F7
:102E90000120207110BD10B5806B01F075F910BDD7
:102EA00010B5806B01F0C1F810BD000000F1AC015D
:102EB00010B540220C4600F02DF804F01F008030C1
:102EC000BFF34F8F05490C60203820340028FADC0E
:102ED000BFF34F8FBFF36F8F10BD000068EF00E0AE
:102EE00000F12C0110B540220C4600F013F804F05C
:102EF0001F008030BFF34F8F05490C60203820340D
:102F00000028FADCBFF34F8FBFF36F8F10BD0000B6
:102F100068EF00E02DE9F041044616460F462DED1E
:102F2000028B406928B1A06918B100259FED1B8A6A
:102F300031E000204FF4006103E000BF27F81010DB
:102F4000401CB042FAD3BDEC028BBDE8F08100BF5B
:102F5000D4E901102368E26818185141A269C2F14E
:102F60004002C4E90001FDF746FA6169D4ED040AA4
:102F700031F8100000EE100AB8EE400A30EE480AB0
:102F800020EE800A30EE080ABCEEC00A10EE100AED
:102F900027F815006D1CB542DAD3D4E700F0FF44E2
:102FA0002DE9F041984617460E460446069D4FF41B
:102FB0009871FDF749FA04F11C01B7EE000A81E8A7
:102FC000E00184ED040ABDE8F0810000B5EEC00A1E
:102FD000F1EE10FA02D29FED060A06E010EE101A8A
:102FE000B1F17E5F01DDB7EE000A80ED040A7047A3
:102FF00000000000B7EEC01A9FED0B3BB0EE002BB7
:1030000010B590ED070A044621EE031B21EE021BCA
:10301000B8EE402B81EE020B51EC100BFDF795FA48
:10302000C4E9020110BD0000000000000000E04300
:1030300041614FF000011AB100E0491C5208FCD177
:1030400081617047F8B500F12C01054640220E461B
:10305000FFF760FF4022284605F1AC01FFF75AFF59
:1030600006F01F00344600F58070BFF34F8F0B4908
:103070000C60203820340028FADCBFF34F8FBFF3F8
:103080006F8F0020009080233246D5E9080101F0BF
:1030900029F9A86ABDE8F84004F0DABD68EF00E05D
:1030A00010B50446806A04F059FED4E90801BDE871
:1030B000104001F087B90000014801F0A3BC0000F6
:1030C00048060024014801F09DBC0000C006002411
:1030D000294A016891423AD0274A1832914236D0A3
:1030E000254A3032914232D0234A483291422ED082
:1030F000214A603291422AD01F4A7832914226D02A
:103100001D4A9032914222D01B4AA83291421ED0D1
:103110001A4A91421BD0194A1832914217D0174AC5
:103120003032914213D0154A483291420FD0134A9F
:10313000603291420BD0114A7832914207D00F4A47
:103140009032914203D00D4AA832914211D1CAB2B5
:103150001823103AB2FBF3F26FF30901032A02F0CD
:103160000703074AD25CC26500D9091D816508467C
:10317000704721F0FF01F9E71000024010040240FF
:10318000C410010830B5224A012301689142CAB235
:103190001BD01F4C1434A14217D01D4C2834A1421F
:1031A00013D01B4C3C34A1420FD0194C5034A142D7
:1031B0000BD0174C6434A14207D0154C7834A1428F
:1031C00003D0134C8C34A1420CD11421114C083A79
:1031D000B2FBF1F10F4A803201F01F0504EB8101CF
:1031E000AB4010E00C4D1824103A0D44B2FBF4F142
:1031F000A82D00D80831094A01F01F0402EB810113
:10320000064AA3408032603080E80E0030BD0000E6
:103210000854025800580258F0FBFDBF0008024055
:1032200010B50279531E072B2DD8174C0168A14207
:103230001BD0154C1434A14217D0134C2834A14292
:1032400013D0114C3C34A1420FD00F4C5034A1424A
:103250000BD00D4C6434A14207D00B4C7834A14202
:1032600003D0094C8C34A14203D10849074C4431A6
:1032700002E00749064C443104EB8202C0E91B21FD
:1032800001219940416710BD08540258FC5802586A
:10329000FC08024010B583694FF0C074826A014691
:1032A000002053B1B3F5005F15D072B1012A0CD0E4
:1032B000022A0AD0032A09D104E01AB1012A06D051
:1032C000022A03D1C96AC90100D5012010BDC96A0B
:1032D000A142FAD010BD002AF7D0012AF2D0022A6A
:1032E000F3D0032AF3D010BD2DE9F04F804E804F6C
:1032F000DFF8FC911836DFF8F8A148370468856DCF
:103300000AF1300ADFF8ECB14C45DFF8ECC1DFF828
:10331000ECE16DD0B4426BD0544569D0BC4267D06B
:10332000DFF8D081A8F11808444561D05C455FD032
:1033300064455DD074455BD0DFF8C481444557D007
:10334000DFF8BC8108F11808444551D0DFF8B0819E
:1033500008F1300844454BD0DFF8A48108F1480853
:10336000444545D0DFF8988108F1600844453FD0D6
:10337000DFF88C8108F17808444539D0DFF8808186
:1033800008F19008444533D0DFF8748108F1A808AB
:1033900044452DD0DFF86C81444529D0DFF86481A5
:1033A00008F11408444523D0DFF8588108F12808B3
:1033B00044451DD0DFF84C8108F13C08444517D046
:1033C000DFF8408108F15008444511D0DFF834811E
:1033D00008F1640844450BD0DFF8288108F178082B
:1033E000444505D0DFF81C8108F18C08444509D11B
:1033F000D0E91948C4F80480C46E1CB1D0E91C4857
:10340000C4F8048004684C452ED0B4422CD05445F6
:103410002AD0BC4228D0374E183EB44224D05C4556
:1034200022D0644520D074451ED0354EB4421BD006
:10343000334E1836B44217D0314E3036B44213D022
:103440002F4E4836B4420FD02D4E6036B4420BD0CA
:103450002B4E7836B44207D0294E9036B44203D072
:10346000274EA836B44215D190F85C603F2406F090
:103470001F06B440AC600468256825F480252560EB
:103480002EE09A600068C160BDE8F08F9960006826
:10349000C260F9E71B4EB4421BD01A4E1436B44238
:1034A00017D0184E2836B44213D0164E3C36B442CC
:1034B0000FD0144E5036B4420BD0124E6436B44284
:1034C00007D0104E7836B44203D00E4E8C36B4423C
:1034D000DAD190F85C60012406F01F06B4406C60FD
:1034E000046863608368402B0368CFD1C9E700009C
:1034F0001000024088000240A0000240B8000240D4
:103500001004024008540258704772B6FEE70000EB
:10351000044890ED001B21EE000BBCEEC00B10EE3A
:10352000100A7047A8000024F8B500270446154685
:103530000E46009790F8500001280BD0012084F827
:1035400050002046FFF7F2FB0100606D04D040F010
:1035500010002DE00220F8BD20F4885040F0020059
:103560006065206806F4803205F08043134D1A43ED
:1035700083682B401A4342F000428260104A206860
:103580000EE0009B5B1C0093934209D3606D84F8AE
:10359000507020F0020040F0100060650120F8BD7E
:1035A0008368DB0FEDD1606D20F0020040F0010078
:1035B0006065084684F85070F8BD0000C0FFFE3F0B
:1035C00000F8C3252DE9F0470F4690F850109AB047
:1035D000044601294FF0000915D00026DFF8F880D5
:1035E000012084F8500015961696216841450ED1A9
:1035F0003A4D0095284605F0EBF88246206805F024
:10360000E7F860B10EE002201AB0BDE8F087606D07
:1036100084F8506040F0200060650120F4E7BAF1C2
:10362000000F09D0616D4FF0010941F02000606585
:10363000484684F85060E7E720684146884201D058
:10364000A84201D1264800E0264840F61F72D7F86C
:1036500000C0254BBCF1000F23D0D0F808C0D7F82C
:1036600004802CF4404C4CEA080CC0F808C0D4F894
:1036700000C08C4501D0AC4507D18968AB6801F02A
:10368000010103F00103194302E0996801F001010F
:103690000029CDD1BD683968836829439343194314
:1036A00017E0876827F44047876027688F4201D07A
:1036B000AF4207D18968AB6801F0010103F0010353
:1036C000194302E0996801F001010029B0D1816835
:1036D00091438160ACE700000020024000210240DD
:1036E0000023024000630258006002582DE9F043B5
:1036F00099B0904689460446006805F069F868B9B3
:1037000094F85000012809D0364E01212068364F28
:10371000B04284F8501005D1394604E0022019B0B7
:10372000BDE8F08301464FF00005814201D02046FC
:1037300014E0159516952068B84205D120460096EC
:10374000FFF72CFB48B10CE0009584F85050606DF9
:1037500040F0200060650120E1E76846FFF71EFBAE
:1037600010B184F85050DAE7606D1C2140F6016218
:10377000904340F480706065A565E26C1B48D0639F
:10378000E26C1B481064E26C1A48D0642068016047
:1037900084F850502068416841F010014160216870
:1037A000B14201D1384600E00846884206D0E06CBC
:1037B000403143464A4601F07BFEB0E7B94201D0B2
:1037C000B14201D10C4900E00C494346E06C4A4645
:1037D0000C3101F06DFE2168094B8A681A40121DF8
:1037E0008A609CE70021024000200240A12C0008D2
:1037F000232D0008092D0008002302400063025811
:10380000C0FFFF7F2DE9F84F4FF0000B0D46E54F4D
:103810000446CDF800B0D94690F85010DFF888A3E0
:10382000012907D0012684F85060206804F0CCFFFD
:1038300018B168E10220BDE8F88F286800280DDB88
:1038400021680303CA6927D090FAA0F0B0FA80F08B
:1038500000F01F0006FA00F00243CA61D5E9001229
:103860004FF00C0C20681F23C1F384610CEA921CFA
:1038700002F01F02604493409140026B9A430A4356
:103880000263206804F0A0FF8046206804F098FFDF
:1038900058EA000003D07FE0C0F38460D8E72068D6
:1038A000AA68296804F0A0FFC0480068B6EB107F42
:1038B00006D121686869C968C1F38201490008E03E
:1038C0002068C168C906C1686869F5D501F01001B2
:1038D00049088840296904292ED023682A6803EB07
:1038E000810102F0F8420B6E024303F000401043E6
:1038F0000866697E22682869012917D05FF00001F7
:1039000002EB8000026E22F000420A430266297E2A
:1039100020682A6901290CD00021036902F01F02E6
:10392000914023F4F0420A43026135E04FF0004138
:10393000E6E74FF40061F0E720682978026E02F0B4
:10394000F842B2EB816F03D1016E21F000410166B4
:1039500020682978426E02F0F842B2EB816F03D101
:10396000416E21F00041416620682978826E02F0A4
:10397000F842B2EB816F03D1816E21F00041816684
:1039800020682978C26E02F0F842B2EB816F03D151
:10399000C16E21F00041C1662068816811F0010FFD
:1039A00076D150F8C02F95F80CC0814B29680CF0E7
:1039B000180823FA08F3C1F3130C0B4022EA0C0297
:1039C0001A4302607B48E968814277D12868010385
:1039D0001BD090FAA0F1B1FA81F1491C01F01F014E
:1039E00009294FEA003131D8002911D090FAA0F10D
:1039F000B1FA81F101F1010101F01F0106FA01F6AE
:103A000009D100BFC0F3846109E0C0F38461E4E739
:103A1000C0F38461EEE790FAA0F1B1FA81F101F10F
:103A2000010101F01F0146EA816102D1C0F3846007
:103A300003E090FAA0F0B0FA80F000F1010000F08D
:103A40001F0000EB400041EA005133E000290ED096
:103A500090FAA0F1B1FA81F101F1010101F01F0129
:103A600006FA01F606D100BFC0F3846106E0C0F398
:103A70008461F1E790FAA0F1B1FA81F101F101015D
:103A800001F01F0146EA816103D1C0F3846004E0C4
:103A90003FE090FAA0F0B0FA80F0474A00F1010050
:103AA00000F01F0000EB400002EB005041EA000173
:103AB00041F00071AA68206804F096FE2E68002E7E
:103AC00027DA3E4A20683E49DFF8F8C0904201D02C
:103AD000B84201D10B4600E063469B68904203F078
:103AE000E07301D0B84209D19568D7F8088005F095
:103AF000010508F0010845EA080503E0DAF8085076
:103B000005F001054DB1616D4FF0010941F0200054
:103B10006065484684F850B08DE62B4DAE421CD10E
:103B20001D021AD45045F4D1904202D0B84200D0C0
:103B300061468A6843F4000022F0E07202438A6022
:103B4000234922480968B1FBF0F04000801C00E0E6
:103B5000401E00900028FBD1DBE71E4DAE420CD189
:103B6000DD010AD45045D4D1904202D0B84200D0F1
:103B700061468A6843F080700EE0174DAE42C8D1AE
:103B80005D02C6D45045C4D1904202D0B84200D0A4
:103B900061468A6843F4800022F0E07202438A6042
:103BA000B7E7000000210240006002580010005CEE
:103BB000FFFF0F000000FF47000020FE0020024032
:103BC0000023024000630258000084CB400D030034
:103BD00020000024000052C70000B8CF10B50068D4
:103BE0000449884205D1044804F0B8F8034901208B
:103BF000088110BD002002403C040024B0000024D5
:103C000070477047F8B54FF000060400354600963F
:103C100002D0606D10B107E00120F8BD204600F031
:103C200005F9A66584F8506020688168C1F3407189
:103C300019B18168704A1140816020688168C1F3C0
:103C4000007181B981686D4A114041F080518160F5
:103C50006C496B480968B1FBF0F0401C00E0401E65
:103C600000900028FBD120688168C1F3007141B940
:103C7000616D012541F010016165A16D41F0010107
:103C8000A16504F0A1FD616DC90600D420B1606D8D
:103C9000012540F0100093E0606D20F4807040F04A
:103CA000020060652068816811F0010F1FD1564A3B
:103CB000564B904201D0984207D191689E6801F01E
:103CC000010106F00106314303E05149896801F022
:103CD000010161B9904201D0984201D14D4800E004
:103CE0004D488268616822F47C120A43826001F0C8
:103CF00055FE41F20301884202D9A06810280CD079
:103D0000617D227FA368206B490341EA0241184389
:103D10000843217F01290CD010E0607D227F216BB8
:103D2000400340EA024241F01000104340F00C0012
:103D3000EFE7218C394A02EB41410843616A29B11E
:103D4000A26A01F47871014342EA01002168344B10
:103D5000CA681A400243CA60206804F035FD06466E
:103D6000206804F02DFD30431DD1216844F2030387
:103D7000267DE26AC86842EA863298431043C860EA
:103D800094F8380001281ED02068016921F0010153
:103D900001612068626B016921F07041114301618A
:103DA0002046FEF7F9FEE068012820681CD0016B70
:103DB00021F00F010163606D20F0020040F001006E
:103DC00060652846F8BD2068A28F164FD4E9101C04
:103DD000154E07EB0247A36C026941EA0C013B4315
:103DE000324019431143D3E7A269016B521E21F0FF
:103DF0000F011143DEE70000C0FFFF5FC0FFFF7F40
:103E0000400D030020000024002002400021024059
:103E10000060025800230240006302580000FEFFC9
:103E200003C0F0FF0100FFFF1EF800FCF0B587B0F3
:103E3000064614216846FCF707FB304A0025304946
:103E40004FF0030437682F4B10688F422E4900F162
:103E5000010034D10128106007D1186840F020001B
:103E60001860186800F020000590086840F0040011
:103E700008600868694600F00400059010208DE88D
:103E80003100224801F062FC214C092121484FF405
:103E9000807C021584E823001701C4E903528314CF
:103EA0002046C4E907C56562C4E9053701F01EF97B
:103EB00008B1FFF72AFBF464A66307B0F0BD164E05
:103EC000B742FAD10128106007D1186840F02000ED
:103ED0001860186800F020000590086840F00100A4
:103EE00008600868694600F00100059040208DE8F0
:103EF00031000A4801F02AFCDFE70000100000242E
:103F000000200240D8440258E044025800080258F9
:103F10004806002410000240002102400000025820
:103F20002DE9F0413B4D044600683B4FA84201D0CB
:103F3000B84201D1394900E03949896801F01F06CA
:103F400004F042FC18B102210846BDE8F08194F863
:103F5000500001280CD0012084F850002046FEF7C4
:103F60001DFF01004FF0000204D084F85020EBE761
:103F70000220EAE7636D40F6016C206823EA0C0337
:103F8000B84243F48073636501D12B4600E00346D9
:103F9000834200D01EB9636D23F480136365636DA3
:103FA000DB0404D5A36D23F00603A36500E0A2653E
:103FB0001C23036084F850202068B84201D12A46AF
:103FC00000E00246824215D0A6B1052E12D0092E7D
:103FD00010D0626DB84242F48012626500D005468E
:103FE000E8688001B0D5606D20F4005040F4805046
:103FF0006065A9E7C268920105D5626D22F400529E
:1040000042F4805262658268064B1A40121D82603B
:104010009AE70000002002400021024000230240F5
:1040200000630258C0FFFF7F7047704770477047BA
:104030002DE9F05F040017460D464FF0000B0FD03E
:1040400075B1607901280ED04FF0010A84F805A0FF
:1040500002212171286807F01006042805D04BE0E2
:104060000120BDE8F09F0220FBE701F09DFC8046A7
:104070004FF003095FB125E001F096FCA0EB0800CA
:10408000012805D92068406B384201D012E03A4F30
:104090002068406B3842EFD12168A869086418E0B5
:1040A00001F082FCA0EB080001280BD92068406BCE
:1040B000002807DA216941F00801216184F80490A1
:1040C0000320CEE72068406B0028E9DB2168A8695F
:1040D000486440F2FF332168EA69B340886CB2401B
:1040E0009843104388642068FF222B6AB240C16C59
:1040F000B34091431943C1642869012808D122685B
:104100001F236969906BB340B140984301439163A9
:1041100023680721E868DA6BB140012822EA01022E
:1041200003D0022826D0A86820B30021AF682868F1
:10413000384308434FF48041B0401043D8632068AF
:10414000B14002688A4302602268116840F6FE733B
:104150006868B3409943B04008431060C021B14043
:10416000206802688A43026084F804A0002060711D
:10417000584676E70121D9E7008000200148FEF784
:1041800095BE0000586D03240148FEF7A9BE00004B
:10419000586D0324704770472DE9F04104460068CC
:1041A00004270668456BB10410D5A9040ED5277104
:1041B0002269F90242F0010222614163206801682C
:1041C00021F4805101602046FFF7E4FFB00014D5D0
:1041D000A80012D54FF000502771216941F002016B
:1041E0002161216848632068016821F080510160E5
:1041F0002046BDE8F041FFF719BFBDE8F08170B57A
:10420000040003D02079002510B105E0012070BD25
:104210002046657100F008F8022121710120256116
:104220002071002070BD00002DE9F04186B080466D
:1042300014216846FCF708F92549D8F8000088429F
:1042400042D12448016841F000510160006800F04B
:10425000005005901F480838016841F001010160D5
:1042600000680025032100F00100059030208DE852
:1042700023001948694601F069FA184C4022184891
:10428000432104F1040ED701206003158EE82600B7
:10429000C614D00204F11001C4E908054FF4807C73
:1042A000204681E8C81000F021FF08B1FFF72DF982
:1042B000C8F8084000220521C4F83880362001F0F3
:1042C00057FD362001F046FD06B0BDE8F081000044
:1042D00000740040E844025800000258C006002460
:1042E000280002402DE9F041040017460D460698CB
:1042F0001BD0617901291BD0012666710221217131
:10430000C5B1E168294ACA63E26829491164E268D3
:104310002849D16421680A6842F080520A6040B39B
:104320002268042828D01C3227E00120BDE8F08153
:104330000220FBE7A168204ACA63A2681F491164F2
:10434000A2681F49D16421680A6842F480520A6059
:1043500020B12268042804D0103203E02268083219
:1043600000E00C322068016841F400510160A0684F
:1043700009E02268143200E018322068016841F038
:1043800000510160E068394601F092F80021617146
:1043900020B1216941F004012161C7E7216805F0DE
:1043A00010030A689E4032430A60BFE7572E000898
:1043B000A12E00087F2E0008472E0008972E000827
:1043C000672E000870B504001FD02268012500295F
:1043D00001F010004FF48053116803FA00F321EA52
:1043E0000301116005FA00F32068016821EA030166
:1043F00001600CD0E06800F013F82068016821F03B
:10440000005101602571002070BD012070BDA068C1
:1044100000F006F82068016821F40051F1E700007F
:104420002DE9F84F044601F0BFFA00903CB194F832
:104430003500022806D0802161650020E4E00120DB
:10444000BDE8F88FC74DC74EC649183520683036CD
:10445000DFF81483DFF814938842DFF814A3DFF841
:1044600014B32ED0A8422CD0B0422AD0404528D038
:10447000484526D0504524D0584522D0BD4A183250
:1044800090421ED0BC4A90421BD0BB4A1832904288
:1044900017D0B94A3032904213D0B74A48329042CE
:1044A0000FD0B54A603290420BD0B34A7832904276
:1044B00007D0B14A9032904203D0AF4AA83290421E
:1044C00009D1026822F01E0202602068426922F0CF
:1044D0008002426103E0026822F00E020260276857
:1044E0008F4238464DD0A8424BD0B04249D04045CB
:1044F00047D0484545D0504543D0584541D09D4AC6
:10450000183290423DD09C4A90423AD09A4A183292
:10451000904236D0984A3032904232D0964A483251
:1045200090422ED0944A603290422AD0924A7832F9
:10453000904226D0904A9032904222D08E4AA832A1
:1045400090421ED08D4A90421BD08C4A1432904229
:1045500017D08A4A2832904213D0884A3C3290427F
:104560000FD0864A503290420BD0844A6432904237
:1045700007D0824A7832904203D0804A8C329742E8
:1045800004D1206E026822F48072026075492068AE
:10459000884228D0A84226D0B04224D0404522D01C
:1045A000484520D050451ED058451CD0714918317F
:1045B000884218D07049884215D06F491831884216
:1045C00011D06D49303188420DD06B494831884255
:1045D00009D069496031884205D0674978318842FD
:1045E00001D065499031016821F0010101600EE0C0
:1045F00001F0DAF90099401A052808D920226265ED
:104600000321002084F8351084F8340017E7386857
:10461000C007EDD1534A0121206890422ED0A84214
:104620002CD0B0422AD0404528D0484526D050450D
:1046300024D0584522D04F4B183398421ED04E4BB1
:1046400098421BD04C4B1833984217D04A4B30330A
:10465000984213D0484B483398420FD0464B6033B2
:1046600098420BD0444B7833984207D0424B90335A
:10467000984203D0404BA833984208D194F85C701C
:104680003F23A06D07F01F07BB40836007E094F84D
:104690005C30A06D03F01F0301FA03F34360206850
:1046A00090424DD0A8424BD0B04249D0404547D06F
:1046B000484545D0504543D0584541D02D4A183241
:1046C00090423DD02C4A90423AD02B4A1832904228
:1046D00036D0294A3032904232D0274A483290426E
:1046E0002ED0254A603290422AD0234A7832904216
:1046F00026D0214A9032904222D01F4AA8329042BE
:104700001ED01E4A90421BD01C4A1432904217D031
:104710001A4A2832904213D0184A3C3290420FD0A5
:10472000164A503290420BD0144A6432904207D05D
:10473000124A7832904203D0104A8C3290420BD108
:10474000D4E919024260E06E30B1026822F480724E
:104750000260D4E91C024260002084F8351084F81D
:1047600034006DE610000240580002407000024024
:1047700088000240A0000240100402400854025881
:104780002DE9F05F28B190F83510022904D080217E
:1047900041650120BDE8F09F904C904B0168183CAA
:1047A00018338E4ADFF83C92A1428D4CDFF838E294
:1047B0008E4FDFF83CB2DFF83CA28F4D8F4E31D0E8
:1047C00091422FD099422DD0A1422BD0494529D0DA
:1047D000714527D0B94225D0DFF810C20CF1180C72
:1047E00061451FD0DFF808C2ACF1600C614519D0FB
:1047F000DFF8FCC1ACF1480C614513D0DFF8F0C123
:10480000ACF1300C61450DD0DFF8E4C1ACF1180C0F
:10481000614507D0594505D0514503D0A94201D083
:10482000B1422CD1DFF8B4C14FF0040880F83580D4
:10483000ACF1180C61451DD091421BD0994219D0A2
:10484000A14217D0494515D0714513D0B94211D0B6
:104850006648183081420DD065486038814209D0E1
:1048600063484838814205D061483038814201D0E0
:104870005F481838086820F001000860ABE0D1F804
:1048800000C02CF00E08DFF854C1C1F80080ACF174
:10489000180C0168614527D0914225D0994223D058
:1048A000A14221D049451FD071451DD0B9421BD02E
:1048B000DFF838C10CF1180C614515D0DFF830C1B4
:1048C000ACF1600C61450FD0DFF824C1ACF1480CAD
:1048D000614509D0DFF818C1ACF1300C614503D057
:1048E000DFF80CC1ACF1180CD1F800C02CF0010CB1
:1048F000C1F800C0DFF8E4804FF0010C0168A8F1B6
:104900001808414546D0914244D0994242D0A14234
:1049100040D049453ED071453CD0B9423AD0334AA7
:104920001832914236D0324A603A914232D0304AFF
:10493000483A91422ED02E4A303A91422AD02C4AFF
:10494000183A914226D0594524D0514522D0A94247
:1049500020D0B1421ED02A4A91421BD0284A14329C
:10496000914217D0264A2832914213D0244A3C3231
:1049700091420FD0224A503291420BD0204A6432E9
:10498000914207D01E4A7832914203D01C4A8C32A1
:10499000914218D1016E0A6822F480720A6090F880
:1049A0005C20816D02F01F020CFA02F24A60D0E92D
:1049B00019124A60C16E31B10A6822F480720A602D
:1049C000D0E91C124A600022016D80F835C080F8E1
:1049D000342001B188470020DCE6000028000240B6
:1049E000580002407000024088000240A0000240CF
:1049F0007004024088040240A0040240B80402404F
:104A0000085402582DE9FC5F0446F74E0020DFF8F9
:104A1000D88300904FF41652F44808F11808A56D99
:104A2000DFF8C493DFF8C0A3016809F130092068FA
:104A30000AF1480AB1FBF2F1B04201912F68D5F8B2
:104A400000C0DFF8ACB335D04146884232D048458B
:104A500030D050452ED058452CD0E54918318842E9
:104A600028D0E3493031884224D0E1494831884296
:104A700020D0E04988421DD0DE491831884219D043
:104A8000DC493031884215D0DA494831884211D0AA
:104A9000DFF860E30EF1600E70450BD0D54A783236
:104AA000904207D0D34B9033984203D0D149A831DC
:104AB00088427DD194F85C20082102F01F0201FA9F
:104AC00002F23A424AD0B04232D0404530D0484556
:104AD0002ED050452CD058452AD0C54A1832904285
:104AE00026D0C34A3032904222D0C14A4832904246
:104AF0001ED0C04A90421BD0BE4A1832904217D0F6
:104B0000BC4A3032904213D0BA4A483290420FD059
:104B1000B84A603290420BD0B64A7832904207D001
:104B2000B44A9032904203D0B24AA832904203D1A4
:104B3000026802F0040202E0026802F008026AB1B0
:104B4000026822F00402026094F85C0000F01F008A
:104B50008140A960606D40F00100606594F85C00E0
:104B6000012100F01F008140394240D02068B0424E
:104B700034D0404532D0484530D050452ED05845ED
:104B80002CD09B4A1832904228D0994A3032904219
:104B900024D0974A4832904220D0964A90421DD065
:104BA000944A1832904219D0924A3032904200E032
:104BB000AFE113D08F4A483290420FD08D4A603215
:104BC00090420BD08B4A7832904207D0894A90327B
:104BD000904203D0874AA83290427DD1406910F0BC
:104BE000800F04D0A960606D40F00200606594F809
:104BF0005C00042100F01F00814039423ED0206853
:104C0000B04232D0404530D048452ED050452CD00F
:104C100058452AD0764A1832904226D0744A30320B
:104C2000904222D0724A483290421ED0714A90423D
:104C30001BD0704A1832904217D06E4A30329042E0
:104C400013D06C4A483290420FD06A4A6032904288
:104C50000BD0684A7832904207D0664A9032904230
:104C600003D0644AA83290424ED1006810F0020F7F
:104C700004D0A960606D40F00400606594F85C00A9
:104C8000102100F01F008140394258D02068B04206
:104C900034D0404532D0484530D050452ED05845CC
:104CA0002CD0534A1832904228D0514A3032904288
:104CB00024D04F4A4832904220D04E4A90421DD0D4
:104CC0004C4A1832904219D04A4A3032904215D09C
:104CD000484A4832904200E014E00FD0454A603222
:104CE00090420BD0434A7832904207D0414A9032EA
:104CF000904203D03F4AA832904207D1006800F0AA
:104D0000080006E0006872E70068B7E7006800F096
:104D10000400A0B1A96020680168490304D50068B7
:104D2000000308D5A16C07E00168C90503D4016838
:104D300021F008010160216C09B12046884794F8F0
:104D40005C00202100F01F008140394279D02068AA
:104D5000B04232D0404530D048452ED050452CD0BE
:104D600058452AD0224A1832904226D0204A303262
:104D7000904222D01E4A483290421ED01D4A904294
:104D80001BD01C4A1832904217D01A4A3032904237
:104D900013D0184A483290420FD0164A60329042DF
:104DA0000BD0144A7832904207D0124A9032904287
:104DB00003D0104AA832904203D1006800F01000DE
:104DC00002E0006800F00200B0B3A96094F835007A
:104DD0000428206801680FD049037ED500680003CD
:104DE0002BD4616C2AE00000100002402000002457
:104DF000700002401004024021F01601016020689A
:104E0000416921F080014161206C08B9A06C20B19A
:104E10002068016821F00801016094F85C303F21AE
:104E2000012003F01F0300229940A96084F8350097
:104E300084F83420216D65E003E0E16B09B1204680
:104E40008847606D00287DD0606DC00759D020680C
:104E5000042184F83510B0422BD0404529D0484574
:104E600027D0504525D0584523D09D49884220D091
:104E70009B49183188421CD099493031884218D05A
:104E80009849884215D097491831884211D09549E0
:104E9000303188420DD093494831884209D0914938
:104EA0006031884205D08F497831884201D08D49E0
:104EB0009031016821F00101016020680099019A98
:104EC000491C0091914202D80168C907F6D10068D7
:104ED000C00710D003200FE0FFE70168C905ACD47C
:104EE00003680121002223F01003036084F83510C9
:104EF00084F83420A1E7012084F83500002084F8EC
:104F00003400E16C00291DD002B02046BDE8F05FFE
:104F10000847754988421DD073491431884219D019
:104F200071492831884215D06F493C31884211D0EF
:104F30006D49503188420DD06B496431884209D0A7
:104F4000694900E084E07831884203D066498C31B9
:104F500088427DD194F85C800427016808F01F081E
:104F600007FA08F717EA0C0F009746D04F0744D509
:104F700000980F04686003D5C8033CD4A16CC1E756
:104F8000880638D42068B0422DD05549603988420F
:104F900029D0484527D0504525D0584523D05049E1
:104FA000884220D04E49183188421CD04C493031BB
:104FB000884218D04B49884215D04A491831884256
:104FC00011D04849303188420DD046494831884295
:104FD00009D0704507D0904205D0984203D041498E
:104FE000A831884203D1016821F0080102E001687C
:104FF00021F004010160216C84E7022707FA08F719
:1050000017EA0C0F00974ED08F074CD500980F046D
:10501000686003D5C80344D4616C73E7880640D444
:105020002068B0422FD02E49603988422BD04845A5
:1050300029D0504527D0584525D02949884222D02B
:105040002749183188421ED025493031884200E076
:1050500044E018D02349884215D0224918318842AB
:1050600011D02049303188420DD01E494831884244
:1050700009D0704507D0904205D0984203D0194915
:10508000A831884203D1016821F0140102E00168CF
:1050900021F00A010160012184F83510002084F814
:1050A0003400E16B2EE7082202FA08F212EA0C0F34
:1050B00014D0090712D5016821F00E01016094F89F
:1050C0005C100120002201F01F0100FA01F169606B
:1050D000606584F8350084F8342012E7BDE8FC9F51
:1050E0008800024010040240085402582DE9F05F85
:1050F000044600F059FC002C07467DD0E34E022107
:1051000020684FF00308DFF888934FF00005DFF8C0
:1051100084A3B042DFF880B334D0DC4A1832904226
:1051200030D048452ED050452CD058452AD0DA4AA8
:105130001832904226D0D84A3032904222D0D64AF5
:10514000483290421ED0D54A90421BD0D34A1832E2
:10515000904217D0D14A3032904213D0CF4A4832D1
:1051600090420FD0CD4A603290420BD0CB4A783279
:10517000904207D0C94A9032904203D0C74AA83221
:1051800090427DD184F83510B04284F834502ED04E
:10519000BE49183188422AD0484528D0504526D0EB
:1051A000584524D0BC491831884220D0BA49303102
:1051B00088421CD0B8494831884218D0B749884243
:1051C00015D0B6491831884211D0B44930318842DF
:1051D0000DD0B2494831884209D0B0496031884287
:1051E00005D0AE497831884201D0AC499031016890
:1051F00021F00101016008E027E100BF00F0D4FBCD
:10520000C01B052801D920211CE120680068C007C7
:10521000F4D104F108002168D4E9053C8E4685C824
:1052200009681043D4E907281F43636A38439C4F39
:1052300040EA0C001043394040EA0800042B40EAE1
:10524000010003D1D4E90B121143084395490968C1
:105250006FF30F01B1F1005F0FD36168A1F1290273
:10526000052A08D9163A032A05D9083A012A02D98B
:105270004F39032901D840F48010CEF8000000E037
:1052800023E02068676A4069042F20F0070047EA9E
:1052900000070DD1D4E90A01074349B12046FDF7C3
:1052A000F9FF28B140206065012184F83510CCE079
:1052B000206847612046FDF70BFF94F85C203F21F2
:1052C00002F01F029140816054E0774A90421BD067
:1052D000754B1433984217D0734B2833984213D030
:1052E000714B3C3398420FD06F4B503398420BD0E8
:1052F0006D4B6433984207D06B4B7833984203D0A0
:10530000694B8C3398427DD184F8351084F8345041
:10531000664B0168A26801EA030E402A73D0802A16
:1053200072D00022D4E90378D4E9053142EAD702E9
:1053300042EAD8085C4AD4E9077C48EAD30848EA3C
:10534000D10141EAD701524241EA1C11142341EA3A
:105350000E01016020681044B0FBF3F08000E065AE
:105360002046FDF7B5FE94F85C20012102F01F02F3
:10537000914041602068B04257D04449183188427A
:1053800053D0484551D050454FD058454DD0424953
:105390001831884249D040493031884245D03E4991
:1053A0004831884241D03D4988423ED03B4918317E
:1053B00088423AD039493031884236D0374948316D
:1053C000884232D03549603188422ED03349783115
:1053D00088422AD031499031884226D02F49A831BD
:1053E000884222D0304988421FD02F491431884248
:1053F0001BD02D492831884217D02B493C31884297
:1054000013D002E01DE017E018E027495031884230
:105410000BD025496431884207D02349783188422E
:1054200003D021498C31884229D12046FDF7AAFEBC
:10543000A06880280CD00CE0102273E74FF4804263
:1054400070E74021616584F835800120BDE8F09F58
:105450006560216E20790860D4E9190141606068B7
:10546000401E072808D82046FDF7DAFEE06E0560EA
:10547000D4E91C01416002E0E5662567656701200B
:10548000656584F835000020E0E700001000024068
:1054900040000240580002407000024010040240E8
:1054A0003F8010FE0010005C085402580F00FEFF01
:1054B0002DE9F84F04008C464FF00000009014D006
:1054C00094F83400012812D094F8355001200021BE
:1054D00084F83400012D0CD0C002606501200090DA
:1054E00084F834100098BDE8F88F0120FBE7022013
:1054F000F9E78C4D0226206884F83560A8428A4D71
:1055000061658A4E8A4FDFF82C82DFF82C92DFF833
:105510002CA2DFF82CB226D0A84224D0B04222D050
:10552000B84220D040451ED048451CD050451AD026
:10553000584518D08349884215D08249183188428D
:1055400011D08049303188420DD07E49483188429F
:1055500009D07C496031884205D07A497831884247
:1055600001D078499031016821F001010160614664
:105570002046FDF7B9FE6B49206888422CD0A8422E
:105580002AD0B04228D0B84226D0404524D0484541
:1055900022D0504520D058451ED06A4A90421BD098
:1055A000684A1832904217D0664A3032904213D07F
:1055B000644A483290420FD0624A603290420BD027
:1055C000604A7832904207D05E4A9032904203D0CF
:1055D0005C4AA83290420CD1026822F01E0242F0CE
:1055E00016020260206C88B12068026842F008024E
:1055F0000BE0026822F00E0242F00A020260206C08
:1056000020B12068026842F00402026020688842EB
:105610004BD0A84249D0B04247D0B84245D04045CF
:1056200043D0484541D050453FD058453DD0454AEC
:1056300090423AD0434A1832904236D0414A3032F2
:10564000904232D03F4A483290422ED03D4A60329A
:1056500090422AD03B4A7832904226D0394A903242
:10566000904222D0374AA83290421ED0364A904209
:105670001BD0354A1432904217D0334A2832904218
:1056800013D0314A3C3290420FD02F4A50329042D0
:105690000BD02D4A6432904207D02B4A7832904288
:1056A00003D0294A8C3290420DD1206E0268D20379
:1056B00003D5026842F480720260E06E18B102689D
:1056C00042F4807202602068884226D0A84224D02A
:1056D000B04222D0B84220D040451ED048451CD010
:1056E00050451AD0584518D01649884215D015494A
:1056F0001831884211D01349303188420DD01149F8
:105700004831884209D00F496031884205D00D499F
:105710007831884201D00B499031016841F0010194
:105720000160DFE610000240280002404000024015
:10573000580002407000024088000240A000024071
:10574000B800024010040240085402582DE9F84FF6
:1057500003247D4D00234FF001094FF0B04B4FF073
:105760000F0AE9E009FA03F73A4076D00E7906F01D
:105770000306012E01D0022E18D1D0F808C04FEA3E
:10578000430ECE6804FA0EF82CEA080C06FA0EF660
:1057900046EA0C068660D0F804C00E792CEA070CA5
:1057A000C6F300169E4046EA0C0646600E79F643A4
:1057B000B6070BD0C6684FEA43088F6804FA08FCA6
:1057C00026EA0C0607FA08F73743C7600E7906F099
:1057D0000306022E12D1DE080F694FEA437C00EB6C
:1057E0008606B646366A4FEADC6C0AFA0CF807FA07
:1057F0000CF726EA08063743CEF820700F790668C2
:105800004FEA430807F0030704FA08FC07FA08F711
:1058100026EA0C06374307604E6816F4403F1CD05A
:105820004A4E376847F00207376036689F0706F030
:105830000206009623F0030606F1B046B6463F0F77
:10584000D6F80864DFF808810AFA07FC404526EA22
:105850000C0603D14FF0000C41E06CE0DFF8F4C01F
:10586000604502D14FF0010C39E0DFF8ECC0604533
:1058700002D14FF0020C32E0DFF8E0C0604502D107
:105880004FF0030C2BE0DFF8D8C0604502D14FF099
:10589000040C24E0DFF8CCC0604502D14FF0050CC9
:1058A0001DE0DFF8C4C0604502D14FF0060C16E0E1
:1058B000DFF8B8C0604502D14FF0070C0FE0DFF809
:1058C000B0C0604502D14FF0080C08E0DFF8A4C07A
:1058D000604502D14FF0090C01E04FF00A0C0CFAC0
:1058E00007FC4CEA060CCEF808C44F68DBF80060F1
:1058F000FF0226EA020600D516435F46CBF8006099
:10590000D1F804C0DBF804605FEA8C2C26EA0206BA
:1059100000D516437E606E684F6826EA0206BF0314
:1059200000D516436E602E684F6826EA0206FF0314
:1059300000D516432E605B1C0A6832FA03F67FF42A
:1059400011AFBDE8F88F000080000058F444025801
:10595000000002580004025800080258000C0258C7
:10596000001002580014025800180258001C025877
:1059700000200258002402580069084000D001208D
:105980007047426921EA02030A4043EA0241816109
:1059900070470AB1816170470904FBE7014800685C
:1059A000000C70470010005C0148806870470000E0
:1059B0001400002430B590F84120202A24D190F81A
:1059C0004020012A20D0012380F84030242280F892
:1059D0004120202300240268156825F00105156088
:1059E0000268156825F480551560026815680D4336
:1059F000156001680A6842F001020A6080F84130CF
:105A000080F84040002030BD022030BD30B590F815
:105A10004120202A22D190F84020012A1ED00123C3
:105A200080F84030242280F841202024002502689C
:105A3000136823F0010313600268136823F4706392
:105A400043EA0121116001680A6842F001020A601C
:105A500080F8414080F84050002030BD022030BD29
:105A600070B5040004D094F84100002510B106E0A0
:105A7000012070BD204684F8405000F051F82420E9
:105A800084F841002068016821F001010160D4E937
:105A9000001020F0706008612068816821F40041E6
:105AA0008160E06821680128A06830D040F404409B
:105AB0008860E0680228206841682BD021F40061EA
:105AC000416020682021154A4368134343602068E1
:105AD000C26822F40042C26054F8106B0DCC10432F
